{
  "contractName": "Airdrop",
  "abi": [
    {
      "inputs": [],
      "stateMutability": "nonpayable",
      "type": "constructor"
    },
    {
      "anonymous": false,
      "inputs": [
        {
          "indexed": true,
          "internalType": "address",
          "name": "owner",
          "type": "address"
        },
        {
          "indexed": true,
          "internalType": "address",
          "name": "spender",
          "type": "address"
        },
        {
          "indexed": false,
          "internalType": "uint256",
          "name": "value",
          "type": "uint256"
        }
      ],
      "name": "Approval",
      "type": "event"
    },
    {
      "anonymous": false,
      "inputs": [
        {
          "indexed": true,
          "internalType": "address",
          "name": "from",
          "type": "address"
        },
        {
          "indexed": true,
          "internalType": "address",
          "name": "to",
          "type": "address"
        },
        {
          "indexed": false,
          "internalType": "uint256",
          "name": "value",
          "type": "uint256"
        }
      ],
      "name": "Transfer",
      "type": "event"
    },
    {
      "inputs": [],
      "name": "Igovern",
      "outputs": [
        {
          "internalType": "contract IGovernance",
          "name": "",
          "type": "address"
        }
      ],
      "stateMutability": "view",
      "type": "function"
    },
    {
      "inputs": [],
      "name": "Ipool",
      "outputs": [
        {
          "internalType": "contract IPool",
          "name": "",
          "type": "address"
        }
      ],
      "stateMutability": "view",
      "type": "function"
    },
    {
      "inputs": [
        {
          "internalType": "address",
          "name": "owner",
          "type": "address"
        },
        {
          "internalType": "address",
          "name": "spender",
          "type": "address"
        }
      ],
      "name": "allowance",
      "outputs": [
        {
          "internalType": "uint256",
          "name": "",
          "type": "uint256"
        }
      ],
      "stateMutability": "view",
      "type": "function"
    },
    {
      "inputs": [
        {
          "internalType": "address",
          "name": "spender",
          "type": "address"
        },
        {
          "internalType": "uint256",
          "name": "amount",
          "type": "uint256"
        }
      ],
      "name": "approve",
      "outputs": [
        {
          "internalType": "bool",
          "name": "",
          "type": "bool"
        }
      ],
      "stateMutability": "nonpayable",
      "type": "function"
    },
    {
      "inputs": [
        {
          "internalType": "address",
          "name": "account",
          "type": "address"
        }
      ],
      "name": "balanceOf",
      "outputs": [
        {
          "internalType": "uint256",
          "name": "",
          "type": "uint256"
        }
      ],
      "stateMutability": "view",
      "type": "function"
    },
    {
      "inputs": [],
      "name": "dayLen",
      "outputs": [
        {
          "internalType": "uint256",
          "name": "",
          "type": "uint256"
        }
      ],
      "stateMutability": "view",
      "type": "function"
    },
    {
      "inputs": [],
      "name": "decimals",
      "outputs": [
        {
          "internalType": "uint8",
          "name": "",
          "type": "uint8"
        }
      ],
      "stateMutability": "view",
      "type": "function"
    },
    {
      "inputs": [
        {
          "internalType": "address",
          "name": "spender",
          "type": "address"
        },
        {
          "internalType": "uint256",
          "name": "subtractedValue",
          "type": "uint256"
        }
      ],
      "name": "decreaseAllowance",
      "outputs": [
        {
          "internalType": "bool",
          "name": "",
          "type": "bool"
        }
      ],
      "stateMutability": "nonpayable",
      "type": "function"
    },
    {
      "inputs": [],
      "name": "dropLastTime",
      "outputs": [
        {
          "internalType": "uint256",
          "name": "",
          "type": "uint256"
        }
      ],
      "stateMutability": "view",
      "type": "function"
    },
    {
      "inputs": [],
      "name": "dropProportion",
      "outputs": [
        {
          "internalType": "uint256",
          "name": "",
          "type": "uint256"
        }
      ],
      "stateMutability": "view",
      "type": "function"
    },
    {
      "inputs": [
        {
          "internalType": "address",
          "name": "spender",
          "type": "address"
        },
        {
          "internalType": "uint256",
          "name": "addedValue",
          "type": "uint256"
        }
      ],
      "name": "increaseAllowance",
      "outputs": [
        {
          "internalType": "bool",
          "name": "",
          "type": "bool"
        }
      ],
      "stateMutability": "nonpayable",
      "type": "function"
    },
    {
      "inputs": [
        {
          "internalType": "address",
          "name": "",
          "type": "address"
        },
        {
          "internalType": "uint256",
          "name": "",
          "type": "uint256"
        }
      ],
      "name": "lockInfos",
      "outputs": [
        {
          "internalType": "uint256",
          "name": "",
          "type": "uint256"
        }
      ],
      "stateMutability": "view",
      "type": "function"
    },
    {
      "inputs": [],
      "name": "name",
      "outputs": [
        {
          "internalType": "string",
          "name": "",
          "type": "string"
        }
      ],
      "stateMutability": "view",
      "type": "function"
    },
    {
      "inputs": [],
      "name": "symbol",
      "outputs": [
        {
          "internalType": "string",
          "name": "",
          "type": "string"
        }
      ],
      "stateMutability": "view",
      "type": "function"
    },
    {
      "inputs": [],
      "name": "totalSupply",
      "outputs": [
        {
          "internalType": "uint256",
          "name": "",
          "type": "uint256"
        }
      ],
      "stateMutability": "view",
      "type": "function"
    },
    {
      "inputs": [
        {
          "internalType": "address",
          "name": "to",
          "type": "address"
        },
        {
          "internalType": "uint256",
          "name": "amount",
          "type": "uint256"
        }
      ],
      "name": "transfer",
      "outputs": [
        {
          "internalType": "bool",
          "name": "",
          "type": "bool"
        }
      ],
      "stateMutability": "nonpayable",
      "type": "function"
    },
    {
      "inputs": [
        {
          "internalType": "address",
          "name": "from",
          "type": "address"
        },
        {
          "internalType": "address",
          "name": "to",
          "type": "address"
        },
        {
          "internalType": "uint256",
          "name": "amount",
          "type": "uint256"
        }
      ],
      "name": "transferFrom",
      "outputs": [
        {
          "internalType": "bool",
          "name": "",
          "type": "bool"
        }
      ],
      "stateMutability": "nonpayable",
      "type": "function"
    },
    {
      "inputs": [
        {
          "internalType": "address",
          "name": "_governAddr",
          "type": "address"
        },
        {
          "internalType": "string",
          "name": "name_",
          "type": "string"
        },
        {
          "internalType": "string",
          "name": "symbol_",
          "type": "string"
        },
        {
          "internalType": "address",
          "name": "_account",
          "type": "address"
        },
        {
          "internalType": "uint256",
          "name": "_amount",
          "type": "uint256"
        }
      ],
      "name": "initialize",
      "outputs": [],
      "stateMutability": "nonpayable",
      "type": "function"
    },
    {
      "inputs": [],
      "name": "startDrop",
      "outputs": [],
      "stateMutability": "nonpayable",
      "type": "function"
    },
    {
      "inputs": [
        {
          "internalType": "address",
          "name": "_account",
          "type": "address"
        },
        {
          "internalType": "uint256",
          "name": "_amount",
          "type": "uint256"
        }
      ],
      "name": "burn",
      "outputs": [],
      "stateMutability": "nonpayable",
      "type": "function"
    },
    {
      "inputs": [
        {
          "internalType": "address",
          "name": "_from",
          "type": "address"
        },
        {
          "internalType": "address",
          "name": "_leaseAddr",
          "type": "address"
        },
        {
          "internalType": "uint256",
          "name": "_leaseDate",
          "type": "uint256"
        },
        {
          "internalType": "uint256",
          "name": "_period",
          "type": "uint256"
        },
        {
          "internalType": "uint256",
          "name": "_amount",
          "type": "uint256"
        }
      ],
      "name": "lockLeaseMargin",
      "outputs": [],
      "stateMutability": "nonpayable",
      "type": "function"
    },
    {
      "inputs": [
        {
          "internalType": "address",
          "name": "_account",
          "type": "address"
        },
        {
          "internalType": "uint256",
          "name": "_leaseDate",
          "type": "uint256"
        },
        {
          "internalType": "uint256",
          "name": "_amount",
          "type": "uint256"
        }
      ],
      "name": "unlockLeaseMargin",
      "outputs": [],
      "stateMutability": "nonpayable",
      "type": "function"
    },
    {
      "inputs": [
        {
          "internalType": "uint256",
          "name": "_leaseDate",
          "type": "uint256"
        },
        {
          "internalType": "uint256",
          "name": "_amount",
          "type": "uint256"
        }
      ],
      "name": "zeroIncomePunish",
      "outputs": [],
      "stateMutability": "nonpayable",
      "type": "function"
    }
  ],
  "bytecode": "0x608060405260006007556001600860006101000a81548160ff0219169083151502179055503480156200003157600080fd5b506040518060400160405280600c81526020017f726574546f6b656e4e616d6500000000000000000000000000000000000000008152506040518060400160405280600e81526020017f726574546f6b656e53796d626f6c0000000000000000000000000000000000008152508160039080519060200190620000b6929190620000d8565b508060049080519060200190620000cf929190620000d8565b505050620001ed565b828054620000e690620001b7565b90600052602060002090601f0160209004810192826200010a576000855562000156565b82601f106200012557805160ff191683800117855562000156565b8280016001018555821562000156579182015b828111156200015557825182559160200191906001019062000138565b5b50905062000165919062000169565b5090565b5b80821115620001845760008160009055506001016200016a565b5090565b7f4e487b7100000000000000000000000000000000000000000000000000000000600052602260045260246000fd5b60006002820490506001821680620001d057607f821691505b60208210811415620001e757620001e662000188565b5b50919050565b61386780620001fd6000396000f3fe608060405234801561001057600080fd5b506004361061014d5760003560e01c806375b30be6116100c3578063a9059cbb1161007c578063a9059cbb1461038e578063a909a232146103be578063cd2d07ca146103dc578063dd62ed3e146103f8578063f2a1959214610428578063f4881775146104465761014d565b806375b30be6146102cc5780638baf96a5146102e857806395d89b41146103065780639dc29fac14610324578063a457c2d714610340578063a8e92704146103705761014d565b806334d84c7b1161011557806334d84c7b1461020c578063395093511461021657806351d2ae16146102465780636c2cb65f1461026257806370a0823114610280578063734dc67e146102b05761014d565b806306fdde0314610152578063095ea7b31461017057806318160ddd146101a057806323b872dd146101be578063313ce567146101ee575b600080fd5b61015a610476565b604051610167919061231a565b60405180910390f35b61018a600480360381019061018591906123e4565b610508565b604051610197919061243f565b60405180910390f35b6101a861052b565b6040516101b59190612469565b60405180910390f35b6101d860048036038101906101d39190612484565b610535565b6040516101e5919061243f565b60405180910390f35b6101f6610564565b60405161020391906124f3565b60405180910390f35b61021461056d565b005b610230600480360381019061022b91906123e4565b610ad2565b60405161023d919061243f565b60405180910390f35b610260600480360381019061025b919061250e565b610b7c565b005b61026a610c2a565b6040516102779190612469565b60405180910390f35b61029a60048036038101906102959190612561565b610c30565b6040516102a79190612469565b60405180910390f35b6102ca60048036038101906102c5919061258e565b610c78565b005b6102e660048036038101906102e19190612703565b610da8565b005b6102f0610f6b565b6040516102fd9190612815565b60405180910390f35b61030e610f91565b60405161031b919061231a565b60405180910390f35b61033e600480360381019061033991906123e4565b611023565b005b61035a600480360381019061035591906123e4565b611172565b604051610367919061243f565b60405180910390f35b61037861125c565b6040516103859190612469565b60405180910390f35b6103a860048036038101906103a391906123e4565b611261565b6040516103b5919061243f565b60405180910390f35b6103c6611284565b6040516103d39190612469565b60405180910390f35b6103f660048036038101906103f19190612830565b611289565b005b610412600480360381019061040d91906128ab565b611554565b60405161041f9190612469565b60405180910390f35b6104306115db565b60405161043d919061290c565b60405180910390f35b610460600480360381019061045b91906123e4565b611601565b60405161046d9190612469565b60405180910390f35b60606003805461048590612956565b80601f01602080910402602001604051908101604052809291908181526020018280546104b190612956565b80156104fe5780601f106104d3576101008083540402835291602001916104fe565b820191906000526020600020905b8154815290600101906020018083116104e157829003601f168201915b5050505050905090565b600080610513611626565b905061052081858561162e565b600191505092915050565b6000600254905090565b600080610540611626565b905061054d8582856117f9565b610558858585611885565b60019150509392505050565b60006012905090565b600073ffffffffffffffffffffffffffffffffffffffff16600560009054906101000a900473ffffffffffffffffffffffffffffffffffffffff1673ffffffffffffffffffffffffffffffffffffffff166308c17a4a6040518163ffffffff1660e01b8152600401602060405180830381865afa1580156105f2573d6000803e3d6000fd5b505050506040513d601f19601f82011682018060405250810190610616919061299d565b73ffffffffffffffffffffffffffffffffffffffff16141561066d576040517f08c379a000000000000000000000000000000000000000000000000000000000815260040161066490612a16565b60405180910390fd5b60006106996201518061068b60075442611b0690919063ffffffff16565b611b1c90919063ffffffff16565b116106d9576040517f08c379a00000000000000000000000000000000000000000000000000000000081526004016106d090612a82565b60405180910390fd5b6000600560009054906101000a900473ffffffffffffffffffffffffffffffffffffffff1673ffffffffffffffffffffffffffffffffffffffff16639054031d6040518163ffffffff1660e01b8152600401602060405180830381865afa158015610748573d6000803e3d6000fd5b505050506040513d601f19601f8201168201806040525081019061076c9190612ab7565b9050600081116107b1576040517f08c379a00000000000000000000000000000000000000000000000000000000081526004016107a890612b30565b60405180910390fd5b600560009054906101000a900473ffffffffffffffffffffffffffffffffffffffff1673ffffffffffffffffffffffffffffffffffffffff166308c17a4a6040518163ffffffff1660e01b8152600401602060405180830381865afa15801561081e573d6000803e3d6000fd5b505050506040513d601f19601f82011682018060405250810190610842919061299d565b600660006101000a81548173ffffffffffffffffffffffffffffffffffffffff021916908373ffffffffffffffffffffffffffffffffffffffff160217905550600560009054906101000a900473ffffffffffffffffffffffffffffffffffffffff1673ffffffffffffffffffffffffffffffffffffffff166321cec6af6040518163ffffffff1660e01b8152600401602060405180830381865afa1580156108ef573d6000803e3d6000fd5b505050506040513d601f19601f820116820180604052508101906109139190612ab7565b600660009054906101000a900473ffffffffffffffffffffffffffffffffffffffff1673ffffffffffffffffffffffffffffffffffffffff166318160ddd6040518163ffffffff1660e01b8152600401602060405180830381865afa158015610980573d6000803e3d6000fd5b505050506040513d601f19601f820116820180604052508101906109a49190612ab7565b10156109e5576040517f08c379a00000000000000000000000000000000000000000000000000000000081526004016109dc90612b9c565b60405180910390fd5b6000600660009054906101000a900473ffffffffffffffffffffffffffffffffffffffff1673ffffffffffffffffffffffffffffffffffffffff1663f4e266356040518163ffffffff1660e01b8152600401602060405180830381865afa158015610a54573d6000803e3d6000fd5b505050506040513d601f19601f82011682018060405250810190610a789190612ab7565b905060008111610abd576040517f08c379a0000000000000000000000000000000000000000000000000000000008152600401610ab490612c08565b60405180910390fd5b42600781905550610ace8183611b32565b5050565b600080610add611626565b9050610b71818585600160008673ffffffffffffffffffffffffffffffffffffffff1673ffffffffffffffffffffffffffffffffffffffff16815260200190815260200160002060008973ffffffffffffffffffffffffffffffffffffffff1673ffffffffffffffffffffffffffffffffffffffff16815260200190815260200160002054610b6c9190612c57565b61162e565b600191505092915050565b6000600960003373ffffffffffffffffffffffffffffffffffffffff1673ffffffffffffffffffffffffffffffffffffffff1681526020019081526020016000206000848152602001908152602001600020549050600081118015610c135750610bf26201518042611b1c90919063ffffffff16565b610c11601e83610c029190612cad565b85611e5b90919063ffffffff16565b105b15610c2457610c23308584611885565b5b50505050565b60075481565b60008060008373ffffffffffffffffffffffffffffffffffffffff1673ffffffffffffffffffffffffffffffffffffffff168152602001908152602001600020549050919050565b6000600960003373ffffffffffffffffffffffffffffffffffffffff1673ffffffffffffffffffffffffffffffffffffffff1681526020019081526020016000206000848152602001908152602001600020549050600081118015610d935750610cee6201518042611b1c90919063ffffffff16565b610d91600560009054906101000a900473ffffffffffffffffffffffffffffffffffffffff1673ffffffffffffffffffffffffffffffffffffffff1663b97fb3ae6040518163ffffffff1660e01b8152600401602060405180830381865afa158015610d5e573d6000803e3d6000fd5b505050506040513d601f19601f82011682018060405250810190610d829190612ab7565b85611e5b90919063ffffffff16565b105b15610da357610da23083611e71565b5b505050565b600073ffffffffffffffffffffffffffffffffffffffff16600560009054906101000a900473ffffffffffffffffffffffffffffffffffffffff1673ffffffffffffffffffffffffffffffffffffffff1614610e39576040517f08c379a0000000000000000000000000000000000000000000000000000000008152600401610e3090612d53565b60405180910390fd5b8360039080519060200190610e4f9291906121de565b508260049080519060200190610e669291906121de565b506000811115610e7b57610e7a8282612048565b5b84600560006101000a81548173ffffffffffffffffffffffffffffffffffffffff021916908373ffffffffffffffffffffffffffffffffffffffff160217905550600560009054906101000a900473ffffffffffffffffffffffffffffffffffffffff1673ffffffffffffffffffffffffffffffffffffffff16636ec13680306040518263ffffffff1660e01b8152600401610f179190612d82565b600060405180830381600087803b158015610f3157600080fd5b505af1158015610f45573d6000803e3d6000fd5b505050506001600860006101000a81548160ff0219169083151502179055505050505050565b600560009054906101000a900473ffffffffffffffffffffffffffffffffffffffff1681565b606060048054610fa090612956565b80601f0160208091040260200160405190810160405280929190818152602001828054610fcc90612956565b80156110195780601f10610fee57610100808354040283529160200191611019565b820191906000526020600020905b815481529060010190602001808311610ffc57829003601f168201915b5050505050905090565b60008111611066576040517f08c379a000000000000000000000000000000000000000000000000000000000815260040161105d90612de9565b60405180910390fd5b3373ffffffffffffffffffffffffffffffffffffffff16600560009054906101000a900473ffffffffffffffffffffffffffffffffffffffff1673ffffffffffffffffffffffffffffffffffffffff166308c17a4a6040518163ffffffff1660e01b8152600401602060405180830381865afa1580156110ea573d6000803e3d6000fd5b505050506040513d601f19601f8201168201806040525081019061110e919061299d565b73ffffffffffffffffffffffffffffffffffffffff1614611164576040517f08c379a000000000000000000000000000000000000000000000000000000000815260040161115b90612e55565b60405180910390fd5b61116e8282611e71565b5050565b60008061117d611626565b90506000600160008373ffffffffffffffffffffffffffffffffffffffff1673ffffffffffffffffffffffffffffffffffffffff16815260200190815260200160002060008673ffffffffffffffffffffffffffffffffffffffff1673ffffffffffffffffffffffffffffffffffffffff16815260200190815260200160002054905083811015611243576040517f08c379a000000000000000000000000000000000000000000000000000000000815260040161123a90612ee7565b60405180910390fd5b611250828686840361162e565b60019250505092915050565b601e81565b60008061126c611626565b9050611279818585611885565b600191505092915050565b601481565b3373ffffffffffffffffffffffffffffffffffffffff16600560009054906101000a900473ffffffffffffffffffffffffffffffffffffffff1673ffffffffffffffffffffffffffffffffffffffff166308c17a4a6040518163ffffffff1660e01b8152600401602060405180830381865afa15801561130d573d6000803e3d6000fd5b505050506040513d601f19601f82011682018060405250810190611331919061299d565b73ffffffffffffffffffffffffffffffffffffffff1614611387576040517f08c379a000000000000000000000000000000000000000000000000000000000815260040161137e90612f79565b60405180910390fd5b600073ffffffffffffffffffffffffffffffffffffffff168573ffffffffffffffffffffffffffffffffffffffff1614156113f7576040517f08c379a00000000000000000000000000000000000000000000000000000000081526004016113ee9061300b565b60405180910390fd5b600073ffffffffffffffffffffffffffffffffffffffff168473ffffffffffffffffffffffffffffffffffffffff161415611467576040517f08c379a000000000000000000000000000000000000000000000000000000000815260040161145e9061309d565b60405180910390fd5b600082116114aa576040517f08c379a00000000000000000000000000000000000000000000000000000000081526004016114a19061312f565b60405180910390fd5b600081116114ed576040517f08c379a00000000000000000000000000000000000000000000000000000000081526004016114e4906131c1565b60405180910390fd5b81600960008673ffffffffffffffffffffffffffffffffffffffff1673ffffffffffffffffffffffffffffffffffffffff16815260200190815260200160002060008581526020019081526020016000208190555061154d853083611885565b5050505050565b6000600160008473ffffffffffffffffffffffffffffffffffffffff1673ffffffffffffffffffffffffffffffffffffffff16815260200190815260200160002060008373ffffffffffffffffffffffffffffffffffffffff1673ffffffffffffffffffffffffffffffffffffffff16815260200190815260200160002054905092915050565b600660009054906101000a900473ffffffffffffffffffffffffffffffffffffffff1681565b6009602052816000526040600020602052806000526040600020600091509150505481565b600033905090565b600073ffffffffffffffffffffffffffffffffffffffff168373ffffffffffffffffffffffffffffffffffffffff16141561169e576040517f08c379a000000000000000000000000000000000000000000000000000000000815260040161169590613253565b60405180910390fd5b600073ffffffffffffffffffffffffffffffffffffffff168273ffffffffffffffffffffffffffffffffffffffff16141561170e576040517f08c379a0000000000000000000000000000000000000000000000000000000008152600401611705906132e5565b60405180910390fd5b80600160008573ffffffffffffffffffffffffffffffffffffffff1673ffffffffffffffffffffffffffffffffffffffff16815260200190815260200160002060008473ffffffffffffffffffffffffffffffffffffffff1673ffffffffffffffffffffffffffffffffffffffff168152602001908152602001600020819055508173ffffffffffffffffffffffffffffffffffffffff168373ffffffffffffffffffffffffffffffffffffffff167f8c5be1e5ebec7d5bd14f71427d1e84f3dd0314c0f7b2291e5b200ac8c7c3b925836040516117ec9190612469565b60405180910390a3505050565b60006118058484611554565b90507fffffffffffffffffffffffffffffffffffffffffffffffffffffffffffffffff811461187f5781811015611871576040517f08c379a000000000000000000000000000000000000000000000000000000000815260040161186890613351565b60405180910390fd5b61187e848484840361162e565b5b50505050565b600073ffffffffffffffffffffffffffffffffffffffff168373ffffffffffffffffffffffffffffffffffffffff1614156118f5576040517f08c379a00000000000000000000000000000000000000000000000000000000081526004016118ec906133e3565b60405180910390fd5b600073ffffffffffffffffffffffffffffffffffffffff168273ffffffffffffffffffffffffffffffffffffffff161415611965576040517f08c379a000000000000000000000000000000000000000000000000000000000815260040161195c90613475565b60405180910390fd5b6119708383836121a8565b60008060008573ffffffffffffffffffffffffffffffffffffffff1673ffffffffffffffffffffffffffffffffffffffff168152602001908152602001600020549050818110156119f6576040517f08c379a00000000000000000000000000000000000000000000000000000000081526004016119ed90613507565b60405180910390fd5b8181036000808673ffffffffffffffffffffffffffffffffffffffff1673ffffffffffffffffffffffffffffffffffffffff16815260200190815260200160002081905550816000808573ffffffffffffffffffffffffffffffffffffffff1673ffffffffffffffffffffffffffffffffffffffff1681526020019081526020016000206000828254611a899190612c57565b925050819055508273ffffffffffffffffffffffffffffffffffffffff168473ffffffffffffffffffffffffffffffffffffffff167fddf252ad1be2c89b69c2b068fc378daa952ba7f163c4a11628f55a4df523b3ef84604051611aed9190612469565b60405180910390a3611b008484846121ad565b50505050565b60008183611b149190613527565b905092915050565b60008183611b2a919061358a565b905092915050565b600860009054906101000a900460ff16611b81576040517f08c379a0000000000000000000000000000000000000000000000000000000008152600401611b7890613607565b60405180910390fd5b6000600860006101000a81548160ff02191690831515021790555060005b82811015611e3b576000600660009054906101000a900473ffffffffffffffffffffffffffffffffffffffff1673ffffffffffffffffffffffffffffffffffffffff1663ef9ea722836040518263ffffffff1660e01b8152600401611c049190612469565b602060405180830381865afa158015611c21573d6000803e3d6000fd5b505050506040513d601f19601f82011682018060405250810190611c45919061299d565b90506000600660009054906101000a900473ffffffffffffffffffffffffffffffffffffffff1673ffffffffffffffffffffffffffffffffffffffff1663ea8f56b0836040518263ffffffff1660e01b8152600401611ca49190612d82565b602060405180830381865afa158015611cc1573d6000803e3d6000fd5b505050506040513d601f19601f82011682018060405250810190611ce59190612ab7565b90506000600660009054906101000a900473ffffffffffffffffffffffffffffffffffffffff1673ffffffffffffffffffffffffffffffffffffffff166370a08231846040518263ffffffff1660e01b8152600401611d449190612d82565b602060405180830381865afa158015611d61573d6000803e3d6000fd5b505050506040513d601f19601f82011682018060405250810190611d859190612ab7565b9050600082118015611d975750600081115b15611e25576000611dc662015180611db88542611b0690919063ffffffff16565b611b1c90919063ffffffff16565b9050600081118015611dea57506000611de887836121b290919063ffffffff16565b145b15611e2357611e166064611e086014856121c890919063ffffffff16565b611b1c90919063ffffffff16565b9150611e228483612048565b5b505b5050508080611e3390613627565b915050611b9f565b506001600860006101000a81548160ff0219169083151502179055505050565b60008183611e699190612c57565b905092915050565b600073ffffffffffffffffffffffffffffffffffffffff168273ffffffffffffffffffffffffffffffffffffffff161415611ee1576040517f08c379a0000000000000000000000000000000000000000000000000000000008152600401611ed8906136e2565b60405180910390fd5b611eed826000836121a8565b60008060008473ffffffffffffffffffffffffffffffffffffffff1673ffffffffffffffffffffffffffffffffffffffff16815260200190815260200160002054905081811015611f73576040517f08c379a0000000000000000000000000000000000000000000000000000000008152600401611f6a90613774565b60405180910390fd5b8181036000808573ffffffffffffffffffffffffffffffffffffffff1673ffffffffffffffffffffffffffffffffffffffff168152602001908152602001600020819055508160026000828254611fca9190613527565b92505081905550600073ffffffffffffffffffffffffffffffffffffffff168373ffffffffffffffffffffffffffffffffffffffff167fddf252ad1be2c89b69c2b068fc378daa952ba7f163c4a11628f55a4df523b3ef8460405161202f9190612469565b60405180910390a3612043836000846121ad565b505050565b600073ffffffffffffffffffffffffffffffffffffffff168273ffffffffffffffffffffffffffffffffffffffff1614156120b8576040517f08c379a00000000000000000000000000000000000000000000000000000000081526004016120af906137e0565b60405180910390fd5b6120c4600083836121a8565b80600260008282546120d69190612c57565b92505081905550806000808473ffffffffffffffffffffffffffffffffffffffff1673ffffffffffffffffffffffffffffffffffffffff168152602001908152602001600020600082825461212b9190612c57565b925050819055508173ffffffffffffffffffffffffffffffffffffffff16600073ffffffffffffffffffffffffffffffffffffffff167fddf252ad1be2c89b69c2b068fc378daa952ba7f163c4a11628f55a4df523b3ef836040516121909190612469565b60405180910390a36121a4600083836121ad565b5050565b505050565b505050565b600081836121c09190613800565b905092915050565b600081836121d69190612cad565b905092915050565b8280546121ea90612956565b90600052602060002090601f01602090048101928261220c5760008555612253565b82601f1061222557805160ff1916838001178555612253565b82800160010185558215612253579182015b82811115612252578251825591602001919060010190612237565b5b5090506122609190612264565b5090565b5b8082111561227d576000816000905550600101612265565b5090565b600081519050919050565b600082825260208201905092915050565b60005b838110156122bb5780820151818401526020810190506122a0565b838111156122ca576000848401525b50505050565b6000601f19601f8301169050919050565b60006122ec82612281565b6122f6818561228c565b935061230681856020860161229d565b61230f816122d0565b840191505092915050565b6000602082019050818103600083015261233481846122e1565b905092915050565b6000604051905090565b600080fd5b600080fd5b600073ffffffffffffffffffffffffffffffffffffffff82169050919050565b600061237b82612350565b9050919050565b61238b81612370565b811461239657600080fd5b50565b6000813590506123a881612382565b92915050565b6000819050919050565b6123c1816123ae565b81146123cc57600080fd5b50565b6000813590506123de816123b8565b92915050565b600080604083850312156123fb576123fa612346565b5b600061240985828601612399565b925050602061241a858286016123cf565b9150509250929050565b60008115159050919050565b61243981612424565b82525050565b60006020820190506124546000830184612430565b92915050565b612463816123ae565b82525050565b600060208201905061247e600083018461245a565b92915050565b60008060006060848603121561249d5761249c612346565b5b60006124ab86828701612399565b93505060206124bc86828701612399565b92505060406124cd868287016123cf565b9150509250925092565b600060ff82169050919050565b6124ed816124d7565b82525050565b600060208201905061250860008301846124e4565b92915050565b60008060006060848603121561252757612526612346565b5b600061253586828701612399565b9350506020612546868287016123cf565b9250506040612557868287016123cf565b9150509250925092565b60006020828403121561257757612576612346565b5b600061258584828501612399565b91505092915050565b600080604083850312156125a5576125a4612346565b5b60006125b3858286016123cf565b92505060206125c4858286016123cf565b9150509250929050565b600080fd5b600080fd5b7f4e487b7100000000000000000000000000000000000000000000000000000000600052604160045260246000fd5b612610826122d0565b810181811067ffffffffffffffff8211171561262f5761262e6125d8565b5b80604052505050565b600061264261233c565b905061264e8282612607565b919050565b600067ffffffffffffffff82111561266e5761266d6125d8565b5b612677826122d0565b9050602081019050919050565b82818337600083830152505050565b60006126a66126a184612653565b612638565b9050828152602081018484840111156126c2576126c16125d3565b5b6126cd848285612684565b509392505050565b600082601f8301126126ea576126e96125ce565b5b81356126fa848260208601612693565b91505092915050565b600080600080600060a0868803121561271f5761271e612346565b5b600061272d88828901612399565b955050602086013567ffffffffffffffff81111561274e5761274d61234b565b5b61275a888289016126d5565b945050604086013567ffffffffffffffff81111561277b5761277a61234b565b5b612787888289016126d5565b935050606061279888828901612399565b92505060806127a9888289016123cf565b9150509295509295909350565b6000819050919050565b60006127db6127d66127d184612350565b6127b6565b612350565b9050919050565b60006127ed826127c0565b9050919050565b60006127ff826127e2565b9050919050565b61280f816127f4565b82525050565b600060208201905061282a6000830184612806565b92915050565b600080600080600060a0868803121561284c5761284b612346565b5b600061285a88828901612399565b955050602061286b88828901612399565b945050604061287c888289016123cf565b935050606061288d888289016123cf565b925050608061289e888289016123cf565b9150509295509295909350565b600080604083850312156128c2576128c1612346565b5b60006128d085828601612399565b92505060206128e185828601612399565b9150509250929050565b60006128f6826127e2565b9050919050565b612906816128eb565b82525050565b600060208201905061292160008301846128fd565b92915050565b7f4e487b7100000000000000000000000000000000000000000000000000000000600052602260045260246000fd5b6000600282049050600182168061296e57607f821691505b6020821081141561298257612981612927565b5b50919050565b60008151905061299781612382565b92915050565b6000602082840312156129b3576129b2612346565b5b60006129c184828501612988565b91505092915050565b7f73746b546f6b656e41646472206973206e6f7420736574210000000000000000600082015250565b6000612a0060188361228c565b9150612a0b826129ca565b602082019050919050565b60006020820190508181036000830152612a2f816129f3565b9050919050565b7f64726f70696e6721000000000000000000000000000000000000000000000000600082015250565b6000612a6c60088361228c565b9150612a7782612a36565b602082019050919050565b60006020820190508181036000830152612a9b81612a5f565b9050919050565b600081519050612ab1816123b8565b92915050565b600060208284031215612acd57612acc612346565b5b6000612adb84828501612aa2565b91505092915050565b7f63616c54696d65206973207a65726f2100000000000000000000000000000000600082015250565b6000612b1a60108361228c565b9150612b2582612ae4565b602082019050919050565b60006020820190508181036000830152612b4981612b0d565b9050919050565b7f4c657373207468656e2066756e6473446f776e4c696d69742100000000000000600082015250565b6000612b8660198361228c565b9150612b9182612b50565b602082019050919050565b60006020820190508181036000830152612bb581612b79565b9050919050565b7f6d656d626572546f74616c206973207a65726f21000000000000000000000000600082015250565b6000612bf260148361228c565b9150612bfd82612bbc565b602082019050919050565b60006020820190508181036000830152612c2181612be5565b9050919050565b7f4e487b7100000000000000000000000000000000000000000000000000000000600052601160045260246000fd5b6000612c62826123ae565b9150612c6d836123ae565b9250827fffffffffffffffffffffffffffffffffffffffffffffffffffffffffffffffff03821115612ca257612ca1612c28565b5b828201905092915050565b6000612cb8826123ae565b9150612cc3836123ae565b9250817fffffffffffffffffffffffffffffffffffffffffffffffffffffffffffffffff0483118215151615612cfc57612cfb612c28565b5b828202905092915050565b7f49676f7665726e20736574656421000000000000000000000000000000000000600082015250565b6000612d3d600e8361228c565b9150612d4882612d07565b602082019050919050565b60006020820190508181036000830152612d6c81612d30565b9050919050565b612d7c81612370565b82525050565b6000602082019050612d976000830184612d73565b92915050565b7f6275726e3a20616d6f756e74206973207a65726f210000000000000000000000600082015250565b6000612dd360158361228c565b9150612dde82612d9d565b602082019050919050565b60006020820190508181036000830152612e0281612dc6565b9050919050565b7f6275726e3a206d73672e73656e64657220697320696c6c6567616c2100000000600082015250565b6000612e3f601c8361228c565b9150612e4a82612e09565b602082019050919050565b60006020820190508181036000830152612e6e81612e32565b9050919050565b7f45524332303a2064656372656173656420616c6c6f77616e63652062656c6f7760008201527f207a65726f000000000000000000000000000000000000000000000000000000602082015250565b6000612ed160258361228c565b9150612edc82612e75565b604082019050919050565b60006020820190508181036000830152612f0081612ec4565b9050919050565b7f6c6f636b4c656173654d617267696e3a206d73672e73656e646572206973206960008201527f6c6c6567616c2100000000000000000000000000000000000000000000000000602082015250565b6000612f6360278361228c565b9150612f6e82612f07565b604082019050919050565b60006020820190508181036000830152612f9281612f56565b9050919050565b7f6c6f636b4c656173654d617267696e3a205f66726f6d20697320696c6c65676160008201527f6c21000000000000000000000000000000000000000000000000000000000000602082015250565b6000612ff560228361228c565b915061300082612f99565b604082019050919050565b6000602082019050818103600083015261302481612fe8565b9050919050565b7f6c6f636b4c656173654d617267696e3a205f6c6561736541646472206973206960008201527f6c6c6567616c2100000000000000000000000000000000000000000000000000602082015250565b600061308760278361228c565b91506130928261302b565b604082019050919050565b600060208201905081810360008301526130b68161307a565b9050919050565b7f6c6f636b4c656173654d617267696e3a205f706572696f64206973207a65726f60008201527f2100000000000000000000000000000000000000000000000000000000000000602082015250565b600061311960218361228c565b9150613124826130bd565b604082019050919050565b600060208201905081810360008301526131488161310c565b9050919050565b7f6c6f636b4c656173654d617267696e3a205f616d6f756e74206973207a65726f60008201527f2100000000000000000000000000000000000000000000000000000000000000602082015250565b60006131ab60218361228c565b91506131b68261314f565b604082019050919050565b600060208201905081810360008301526131da8161319e565b9050919050565b7f45524332303a20617070726f76652066726f6d20746865207a65726f2061646460008201527f7265737300000000000000000000000000000000000000000000000000000000602082015250565b600061323d60248361228c565b9150613248826131e1565b604082019050919050565b6000602082019050818103600083015261326c81613230565b9050919050565b7f45524332303a20617070726f766520746f20746865207a65726f20616464726560008201527f7373000000000000000000000000000000000000000000000000000000000000602082015250565b60006132cf60228361228c565b91506132da82613273565b604082019050919050565b600060208201905081810360008301526132fe816132c2565b9050919050565b7f45524332303a20696e73756666696369656e7420616c6c6f77616e6365000000600082015250565b600061333b601d8361228c565b915061334682613305565b602082019050919050565b6000602082019050818103600083015261336a8161332e565b9050919050565b7f45524332303a207472616e736665722066726f6d20746865207a65726f20616460008201527f6472657373000000000000000000000000000000000000000000000000000000602082015250565b60006133cd60258361228c565b91506133d882613371565b604082019050919050565b600060208201905081810360008301526133fc816133c0565b9050919050565b7f45524332303a207472616e7366657220746f20746865207a65726f206164647260008201527f6573730000000000000000000000000000000000000000000000000000000000602082015250565b600061345f60238361228c565b915061346a82613403565b604082019050919050565b6000602082019050818103600083015261348e81613452565b9050919050565b7f45524332303a207472616e7366657220616d6f756e742065786365656473206260008201527f616c616e63650000000000000000000000000000000000000000000000000000602082015250565b60006134f160268361228c565b91506134fc82613495565b604082019050919050565b60006020820190508181036000830152613520816134e4565b9050919050565b6000613532826123ae565b915061353d836123ae565b9250828210156135505761354f612c28565b5b828203905092915050565b7f4e487b7100000000000000000000000000000000000000000000000000000000600052601260045260246000fd5b6000613595826123ae565b91506135a0836123ae565b9250826135b0576135af61355b565b5b828204905092915050565b7f41697264726f703a204c4f434b45442100000000000000000000000000000000600082015250565b60006135f160108361228c565b91506135fc826135bb565b602082019050919050565b60006020820190508181036000830152613620816135e4565b9050919050565b6000613632826123ae565b91507fffffffffffffffffffffffffffffffffffffffffffffffffffffffffffffffff82141561366557613664612c28565b5b600182019050919050565b7f45524332303a206275726e2066726f6d20746865207a65726f2061646472657360008201527f7300000000000000000000000000000000000000000000000000000000000000602082015250565b60006136cc60218361228c565b91506136d782613670565b604082019050919050565b600060208201905081810360008301526136fb816136bf565b9050919050565b7f45524332303a206275726e20616d6f756e7420657863656564732062616c616e60008201527f6365000000000000000000000000000000000000000000000000000000000000602082015250565b600061375e60228361228c565b915061376982613702565b604082019050919050565b6000602082019050818103600083015261378d81613751565b9050919050565b7f45524332303a206d696e7420746f20746865207a65726f206164647265737300600082015250565b60006137ca601f8361228c565b91506137d582613794565b602082019050919050565b600060208201905081810360008301526137f9816137bd565b9050919050565b600061380b826123ae565b9150613816836123ae565b9250826138265761382561355b565b5b82820690509291505056fea2646970667358221220c00e022ac2e2b4d400074648c080eab5e40e2e3b285014f4d549fa58ae1a285264736f6c634300080c0033",
  "immutableReferences": {},
  "source": "// SPDX-License-Identifier: GPL-3.0-only\r\npragma solidity ^0.8.0;\r\nimport \"./ERC20.sol\";\r\nimport \"@openzeppelin/contracts/utils/math/SafeMath.sol\";\r\nimport \"@openzeppelin/contracts/utils/Address.sol\";\r\n\r\ninterface IGovernance{\r\n    function stkTokenAddr() external view returns (address);\r\n    function setRetTokenAddr(address _stkTokenAddr) external;\r\n    function getCalTime() external  view returns(uint);    \r\n    function getFundsDownLimit() external  view returns(uint);\r\n    function getZeroTimeLimit() external  view returns(uint);\r\n}\r\n\r\ninterface IPool{\r\n    function memberTotal() external view returns (uint);\r\n    function memberAddrs(uint _index) external view returns (address);\r\n    function memberTimes(address _account) external view returns (uint256);\r\n    function balanceOf(address _account) external view returns (uint256);\r\n    function totalSupply() external view returns (uint256);\r\n    // function balance() external view returns (uint256);\r\n}\r\n\r\ncontract Airdrop is ERC20{\r\n    using SafeMath for uint256;\r\n\r\n    IGovernance public Igovern;\r\n    IPool public Ipool;\r\n    //10:2\r\n    uint public constant dropProportion = 20;\r\n    //peroid\r\n    uint public constant dayLen = 30;\r\n    //\r\n    uint256 public dropLastTime = 0;\r\n    //lock\r\n    bool private unlocked = true;\r\n    //\r\n    mapping(address => mapping (uint => uint)) public lockInfos;\r\n\r\n    constructor () ERC20('retTokenName','retTokenSymbol'){\r\n    }\r\n\r\n    //,_amountWei\r\n    function initialize (\r\n        address _governAddr,\r\n        string memory name_,\r\n        string memory symbol_,\r\n        address _account,\r\n        uint _amount\r\n    ) external{\r\n        require(address(Igovern) == address(0),'Igovern seted!');\r\n        _name = name_;\r\n        _symbol = symbol_;\r\n        if(_amount > 0){\r\n            _mint(_account, _amount);\r\n        }        \r\n        Igovern = IGovernance(_governAddr);\r\n        //GovernmentretToken\r\n        Igovern.setRetTokenAddr(address(this));\r\n        //constant\r\n        unlocked = true;\r\n    }\r\n\r\n    modifier lock() {\r\n        require(unlocked, 'Airdrop: LOCKED!');\r\n        unlocked = false;\r\n        _;\r\n        unlocked = true;\r\n    }\r\n\r\n    //\r\n    function droping(uint _memberTotal, uint _calTime) private lock{        \r\n        // uint256 balance = Ipool.balance();\r\n        // uint256 totalSupply = Ipool.totalSupply();\r\n        for(uint i=0;i < _memberTotal;i++){\r\n            address account = Ipool.memberAddrs(i);\r\n            uint256 memberTime = Ipool.memberTimes(account);\r\n            uint256 amount = Ipool.balanceOf(account);\r\n            if(memberTime > 0 && amount > 0){\r\n                //_calTime\r\n                uint256 day = (block.timestamp).sub(memberTime).div(60 * 60 *24);\r\n                if(day > 0 && day.mod(_calTime) == 0){       \r\n                    //token\r\n                    // amount = balance.mul(amount).mul(dropProportion).div(totalSupply).div(100);    \r\n                    //stktoken\r\n                    amount = amount.mul(dropProportion).div(100);   \r\n                    _mint(account, amount);\r\n                }           \r\n            }        \r\n        }\r\n    }\r\n\r\n    //\r\n    function startDrop() public{\r\n        //\r\n        require(Igovern.stkTokenAddr() != address(0),'stkTokenAddr is not set!');\r\n        require((block.timestamp).sub(dropLastTime).div(60 * 60 *24) > 0,'droping!');\r\n        uint calTime = Igovern.getCalTime();\r\n        require(calTime > 0,'calTime is zero!');\r\n        Ipool = IPool(Igovern.stkTokenAddr());\r\n        require(Ipool.totalSupply() >= Igovern.getFundsDownLimit(),'Less then fundsDownLimit!');\r\n        uint memberTotal = Ipool.memberTotal();\r\n        require(memberTotal > 0,'memberTotal is zero!');\r\n        dropLastTime = block.timestamp;\r\n        droping(memberTotal,calTime);\r\n    }\r\n\r\n    //,_amountWei\r\n    function burn(address _account, uint256 _amount) public{\r\n        require(_amount > 0, 'burn: amount is zero!');\r\n        //\r\n        require(Igovern.stkTokenAddr() == msg.sender,'burn: msg.sender is illegal!');//Pool\r\n        _burn(_account, _amount);\r\n    }\r\n\r\n    //retToken,_amountWei\r\n    function lockLeaseMargin(\r\n        address _from,\r\n        address _leaseAddr,\r\n        uint _leaseDate,\r\n        uint _period,\r\n        uint256 _amount\r\n    ) public{\r\n        require(Igovern.stkTokenAddr() == msg.sender,'lockLeaseMargin: msg.sender is illegal!');//Pool\r\n        require(_from != address(0),'lockLeaseMargin: _from is illegal!');\r\n        require(_leaseAddr != address(0),'lockLeaseMargin: _leaseAddr is illegal!');\r\n        require(_period > 0,'lockLeaseMargin: _period is zero!');\r\n        require(_amount > 0,'lockLeaseMargin: _amount is zero!');\r\n        lockInfos[_leaseAddr][_leaseDate] = _period;\r\n        _transfer(_from,address(this),_amount);\r\n    }\r\n\r\n    //retToken,_amountWei\r\n    function unlockLeaseMargin(\r\n        address _account,\r\n        uint _leaseDate,\r\n        uint256 _amount\r\n    ) public{\r\n        uint period = lockInfos[msg.sender][_leaseDate];\r\n        if(period > 0 && _leaseDate.add(period * dayLen) < block.timestamp.div(24 * 60 * 60)){\r\n            _transfer(address(this),_account,_amount);\r\n        }\r\n    }\r\n\r\n    //retToken,_amountWei\r\n    function zeroIncomePunish(uint _leaseDate,uint256 _amount) public{\r\n        uint period = lockInfos[msg.sender][_leaseDate];\r\n        if(period > 0 && _leaseDate.add(Igovern.getZeroTimeLimit()) < block.timestamp.div(24 * 60 * 60)){\r\n            _burn(address(this), _amount);\r\n        }\r\n    }\r\n}",
  "sourcePath": "D:\\\\StakeFinance\\StakeFinance\\truffle-dev\\contracts\\Airdrop.sol",
  "compiler": {
    "name": "solc",
    "version": "0.8.12+commit.f00d7308.Emscripten.clang"
  },
  "schemaVersion": "3.4.5",
  "updatedAt": "2022-04-18T06:54:24.959Z",
  "devdoc": {
    "kind": "dev",
    "methods": {
      "allowance(address,address)": {
        "details": "See {IERC20-allowance}."
      },
      "approve(address,uint256)": {
        "details": "See {IERC20-approve}. NOTE: If `amount` is the maximum `uint256`, the allowance is not updated on `transferFrom`. This is semantically equivalent to an infinite approval. Requirements: - `spender` cannot be the zero address."
      },
      "balanceOf(address)": {
        "details": "See {IERC20-balanceOf}."
      },
      "decimals()": {
        "details": "Returns the number of decimals used to get its user representation. For example, if `decimals` equals `2`, a balance of `505` tokens should be displayed to a user as `5.05` (`505 / 10 ** 2`). Tokens usually opt for a value of 18, imitating the relationship between Ether and Wei. This is the value {ERC20} uses, unless this function is overridden; NOTE: This information is only used for _display_ purposes: it in no way affects any of the arithmetic of the contract, including {IERC20-balanceOf} and {IERC20-transfer}."
      },
      "decreaseAllowance(address,uint256)": {
        "details": "Atomically decreases the allowance granted to `spender` by the caller. This is an alternative to {approve} that can be used as a mitigation for problems described in {IERC20-approve}. Emits an {Approval} event indicating the updated allowance. Requirements: - `spender` cannot be the zero address. - `spender` must have allowance for the caller of at least `subtractedValue`."
      },
      "increaseAllowance(address,uint256)": {
        "details": "Atomically increases the allowance granted to `spender` by the caller. This is an alternative to {approve} that can be used as a mitigation for problems described in {IERC20-approve}. Emits an {Approval} event indicating the updated allowance. Requirements: - `spender` cannot be the zero address."
      },
      "name()": {
        "details": "Returns the name of the token."
      },
      "symbol()": {
        "details": "Returns the symbol of the token, usually a shorter version of the name."
      },
      "totalSupply()": {
        "details": "See {IERC20-totalSupply}."
      },
      "transfer(address,uint256)": {
        "details": "See {IERC20-transfer}. Requirements: - `to` cannot be the zero address. - the caller must have a balance of at least `amount`."
      },
      "transferFrom(address,address,uint256)": {
        "details": "See {IERC20-transferFrom}. Emits an {Approval} event indicating the updated allowance. This is not required by the EIP. See the note at the beginning of {ERC20}. NOTE: Does not update the allowance if the current allowance is the maximum `uint256`. Requirements: - `from` and `to` cannot be the zero address. - `from` must have a balance of at least `amount`. - the caller must have allowance for ``from``'s tokens of at least `amount`."
      }
    },
    "version": 1
  },
  "userdoc": {
    "kind": "user",
    "methods": {},
    "version": 1
  }
}