{
  "contractName": "Factory",
  "abi": [
    {
      "anonymous": false,
      "inputs": [
        {
          "indexed": true,
          "internalType": "address",
          "name": "previousOwner",
          "type": "address"
        },
        {
          "indexed": true,
          "internalType": "address",
          "name": "newOwner",
          "type": "address"
        }
      ],
      "name": "OwnershipTransferred",
      "type": "event"
    },
    {
      "inputs": [],
      "name": "airdropModelAddr",
      "outputs": [
        {
          "internalType": "address",
          "name": "",
          "type": "address"
        }
      ],
      "stateMutability": "view",
      "type": "function"
    },
    {
      "inputs": [],
      "name": "faucetModelAddr",
      "outputs": [
        {
          "internalType": "address",
          "name": "",
          "type": "address"
        }
      ],
      "stateMutability": "view",
      "type": "function"
    },
    {
      "inputs": [],
      "name": "governModelAddr",
      "outputs": [
        {
          "internalType": "address",
          "name": "",
          "type": "address"
        }
      ],
      "stateMutability": "view",
      "type": "function"
    },
    {
      "inputs": [],
      "name": "len",
      "outputs": [
        {
          "internalType": "uint256",
          "name": "",
          "type": "uint256"
        }
      ],
      "stateMutability": "view",
      "type": "function"
    },
    {
      "inputs": [],
      "name": "owner",
      "outputs": [
        {
          "internalType": "address",
          "name": "",
          "type": "address"
        }
      ],
      "stateMutability": "view",
      "type": "function"
    },
    {
      "inputs": [],
      "name": "poolModelAddr",
      "outputs": [
        {
          "internalType": "address",
          "name": "",
          "type": "address"
        }
      ],
      "stateMutability": "view",
      "type": "function"
    },
    {
      "inputs": [],
      "name": "renounceOwnership",
      "outputs": [],
      "stateMutability": "nonpayable",
      "type": "function"
    },
    {
      "inputs": [],
      "name": "rewardModelAddr",
      "outputs": [
        {
          "internalType": "address",
          "name": "",
          "type": "address"
        }
      ],
      "stateMutability": "view",
      "type": "function"
    },
    {
      "inputs": [
        {
          "internalType": "address",
          "name": "newOwner",
          "type": "address"
        }
      ],
      "name": "transferOwnership",
      "outputs": [],
      "stateMutability": "nonpayable",
      "type": "function"
    },
    {
      "inputs": [
        {
          "internalType": "uint256",
          "name": "_authorAmount",
          "type": "uint256"
        },
        {
          "internalType": "uint256",
          "name": "_blockHeight",
          "type": "uint256"
        },
        {
          "internalType": "string",
          "name": "_stkName",
          "type": "string"
        },
        {
          "internalType": "string",
          "name": "_stkSymbol",
          "type": "string"
        },
        {
          "internalType": "string",
          "name": "_retName",
          "type": "string"
        },
        {
          "internalType": "string",
          "name": "_retSymbol",
          "type": "string"
        },
        {
          "internalType": "uint256",
          "name": "_retAmount",
          "type": "uint256"
        }
      ],
      "name": "createDAO",
      "outputs": [],
      "stateMutability": "nonpayable",
      "type": "function"
    },
    {
      "inputs": [
        {
          "internalType": "address",
          "name": "_modelAddr",
          "type": "address"
        }
      ],
      "name": "setGovernModelAddr",
      "outputs": [],
      "stateMutability": "nonpayable",
      "type": "function"
    },
    {
      "inputs": [
        {
          "internalType": "address",
          "name": "_modelAddr",
          "type": "address"
        }
      ],
      "name": "setPoolModelAddr",
      "outputs": [],
      "stateMutability": "nonpayable",
      "type": "function"
    },
    {
      "inputs": [
        {
          "internalType": "address",
          "name": "_modelAddr",
          "type": "address"
        }
      ],
      "name": "setAirdropModelAddr",
      "outputs": [],
      "stateMutability": "nonpayable",
      "type": "function"
    },
    {
      "inputs": [
        {
          "internalType": "address",
          "name": "_modelAddr",
          "type": "address"
        }
      ],
      "name": "setRewardModelAddr",
      "outputs": [],
      "stateMutability": "nonpayable",
      "type": "function"
    },
    {
      "inputs": [
        {
          "internalType": "address",
          "name": "_modelAddr",
          "type": "address"
        }
      ],
      "name": "setFaucetModelAddr",
      "outputs": [],
      "stateMutability": "nonpayable",
      "type": "function"
    },
    {
      "inputs": [
        {
          "internalType": "uint256",
          "name": "_index",
          "type": "uint256"
        }
      ],
      "name": "getDaoAddrs",
      "outputs": [
        {
          "internalType": "address[]",
          "name": "",
          "type": "address[]"
        }
      ],
      "stateMutability": "view",
      "type": "function"
    }
  ],
  "bytecode": "0x6080604052600060025534801561001557600080fd5b5061003261002761003760201b60201c565b61003f60201b60201c565b610103565b600033905090565b60008060009054906101000a900473ffffffffffffffffffffffffffffffffffffffff169050816000806101000a81548173ffffffffffffffffffffffffffffffffffffffff021916908373ffffffffffffffffffffffffffffffffffffffff1602179055508173ffffffffffffffffffffffffffffffffffffffff168173ffffffffffffffffffffffffffffffffffffffff167f8be0079c531659141344cd1fd0a4f28419497f9722a3daafe3b4186f6b6457e060405160405180910390a35050565b611a72806101126000396000f3fe608060405234801561001057600080fd5b50600436106101005760003560e01c80638da5cb5b11610097578063be4c794211610066578063be4c79421461025f578063c479b4521461027d578063c62baedf1461029b578063f2fde38b146102b957610100565b80638da5cb5b146101d7578063a66a8b5d146101f5578063a74adec714610225578063b28f3b8e1461024157610100565b806351f67ff3116100d357806351f67ff31461017757806356d88e27146101935780635c298412146101b1578063715018a6146101cd57610100565b806305a2fb7c146101055780630fd4fa181461012157806318626d9a1461013d578063217366eb1461015b575b600080fd5b61011f600480360381019061011a91906112be565b6102d5565b005b61013b600480360381019061013691906112be565b610395565b005b610145610455565b60405161015291906112fa565b60405180910390f35b610175600480360381019061017091906112be565b61047b565b005b610191600480360381019061018c9190611491565b61053b565b005b61019b610c3f565b6040516101a891906115b2565b60405180910390f35b6101cb60048036038101906101c691906112be565b610c45565b005b6101d5610d05565b005b6101df610d8d565b6040516101ec91906112fa565b60405180910390f35b61020f600480360381019061020a91906115cd565b610db6565b60405161021c91906116b8565b60405180910390f35b61023f600480360381019061023a91906112be565b610e57565b005b610249610f17565b60405161025691906112fa565b60405180910390f35b610267610f3d565b60405161027491906112fa565b60405180910390f35b610285610f63565b60405161029291906112fa565b60405180910390f35b6102a3610f89565b6040516102b091906112fa565b60405180910390f35b6102d360048036038101906102ce91906112be565b610faf565b005b6102dd6110a7565b73ffffffffffffffffffffffffffffffffffffffff166102fb610d8d565b73ffffffffffffffffffffffffffffffffffffffff1614610351576040517f08c379a000000000000000000000000000000000000000000000000000000000815260040161034890611737565b60405180910390fd5b80600360006101000a81548173ffffffffffffffffffffffffffffffffffffffff021916908373ffffffffffffffffffffffffffffffffffffffff16021790555050565b61039d6110a7565b73ffffffffffffffffffffffffffffffffffffffff166103bb610d8d565b73ffffffffffffffffffffffffffffffffffffffff1614610411576040517f08c379a000000000000000000000000000000000000000000000000000000000815260040161040890611737565b60405180910390fd5b80600660006101000a81548173ffffffffffffffffffffffffffffffffffffffff021916908373ffffffffffffffffffffffffffffffffffffffff16021790555050565b600660009054906101000a900473ffffffffffffffffffffffffffffffffffffffff1681565b6104836110a7565b73ffffffffffffffffffffffffffffffffffffffff166104a1610d8d565b73ffffffffffffffffffffffffffffffffffffffff16146104f7576040517f08c379a00000000000000000000000000000000000000000000000000000000081526004016104ee90611737565b60405180910390fd5b80600760006101000a81548173ffffffffffffffffffffffffffffffffffffffff021916908373ffffffffffffffffffffffffffffffffffffffff16021790555050565b6105436110a7565b73ffffffffffffffffffffffffffffffffffffffff16610561610d8d565b73ffffffffffffffffffffffffffffffffffffffff16146105b7576040517f08c379a00000000000000000000000000000000000000000000000000000000081526004016105ae90611737565b60405180910390fd5b600073ffffffffffffffffffffffffffffffffffffffff16600360009054906101000a900473ffffffffffffffffffffffffffffffffffffffff1673ffffffffffffffffffffffffffffffffffffffff16141580156106655750600073ffffffffffffffffffffffffffffffffffffffff16600460009054906101000a900473ffffffffffffffffffffffffffffffffffffffff1673ffffffffffffffffffffffffffffffffffffffff1614155b80156106c05750600073ffffffffffffffffffffffffffffffffffffffff16600560009054906101000a900473ffffffffffffffffffffffffffffffffffffffff1673ffffffffffffffffffffffffffffffffffffffff1614155b801561071b5750600073ffffffffffffffffffffffffffffffffffffffff16600660009054906101000a900473ffffffffffffffffffffffffffffffffffffffff1673ffffffffffffffffffffffffffffffffffffffff1614155b80156107765750600073ffffffffffffffffffffffffffffffffffffffff16600760009054906101000a900473ffffffffffffffffffffffffffffffffffffffff1673ffffffffffffffffffffffffffffffffffffffff1614155b6107b5576040517f08c379a00000000000000000000000000000000000000000000000000000000081526004016107ac906117a3565b60405180910390fd5b60006107e2600360009054906101000a900473ffffffffffffffffffffffffffffffffffffffff166110af565b90508073ffffffffffffffffffffffffffffffffffffffff1663a6ab36f28989336040518463ffffffff1660e01b8152600401610821939291906117c3565b600060405180830381600087803b15801561083b57600080fd5b505af115801561084f573d6000803e3d6000fd5b505050506000610880600460009054906101000a900473ffffffffffffffffffffffffffffffffffffffff166110af565b90508073ffffffffffffffffffffffffffffffffffffffff1663613d25bb838989600760009054906101000a900473ffffffffffffffffffffffffffffffffffffffff166040518563ffffffff1660e01b81526004016108e39493929190611871565b600060405180830381600087803b1580156108fd57600080fd5b505af1158015610911573d6000803e3d6000fd5b505050506000610942600560009054906101000a900473ffffffffffffffffffffffffffffffffffffffff166110af565b90508073ffffffffffffffffffffffffffffffffffffffff166375b30be684888833896040518663ffffffff1660e01b81526004016109859594939291906118c4565b600060405180830381600087803b15801561099f57600080fd5b505af11580156109b3573d6000803e3d6000fd5b5050505060006109e4600660009054906101000a900473ffffffffffffffffffffffffffffffffffffffff166110af565b90508073ffffffffffffffffffffffffffffffffffffffff1663c4d66de8856040518263ffffffff1660e01b8152600401610a1f91906112fa565b600060405180830381600087803b158015610a3957600080fd5b505af1158015610a4d573d6000803e3d6000fd5b505050506000600160006002548152602001908152602001600020905080859080600181540180825580915050600190039060005260206000200160009091909190916101000a81548173ffffffffffffffffffffffffffffffffffffffff021916908373ffffffffffffffffffffffffffffffffffffffff16021790555080849080600181540180825580915050600190039060005260206000200160009091909190916101000a81548173ffffffffffffffffffffffffffffffffffffffff021916908373ffffffffffffffffffffffffffffffffffffffff16021790555080839080600181540180825580915050600190039060005260206000200160009091909190916101000a81548173ffffffffffffffffffffffffffffffffffffffff021916908373ffffffffffffffffffffffffffffffffffffffff16021790555080829080600181540180825580915050600190039060005260206000200160009091909190916101000a81548173ffffffffffffffffffffffffffffffffffffffff021916908373ffffffffffffffffffffffffffffffffffffffff16021790555080600160006002548152602001908152602001600020908054610c169291906111dd565b50600160026000828254610c2a9190611954565b92505081905550505050505050505050505050565b60025481565b610c4d6110a7565b73ffffffffffffffffffffffffffffffffffffffff16610c6b610d8d565b73ffffffffffffffffffffffffffffffffffffffff1614610cc1576040517f08c379a0000000000000000000000000000000000000000000000000000000008152600401610cb890611737565b60405180910390fd5b80600560006101000a81548173ffffffffffffffffffffffffffffffffffffffff021916908373ffffffffffffffffffffffffffffffffffffffff16021790555050565b610d0d6110a7565b73ffffffffffffffffffffffffffffffffffffffff16610d2b610d8d565b73ffffffffffffffffffffffffffffffffffffffff1614610d81576040517f08c379a0000000000000000000000000000000000000000000000000000000008152600401610d7890611737565b60405180910390fd5b610d8b6000611119565b565b60008060009054906101000a900473ffffffffffffffffffffffffffffffffffffffff16905090565b606060016000838152602001908152602001600020805480602002602001604051908101604052809291908181526020018280548015610e4b57602002820191906000526020600020905b8160009054906101000a900473ffffffffffffffffffffffffffffffffffffffff1673ffffffffffffffffffffffffffffffffffffffff1681526020019060010190808311610e01575b50505050509050919050565b610e5f6110a7565b73ffffffffffffffffffffffffffffffffffffffff16610e7d610d8d565b73ffffffffffffffffffffffffffffffffffffffff1614610ed3576040517f08c379a0000000000000000000000000000000000000000000000000000000008152600401610eca90611737565b60405180910390fd5b80600460006101000a81548173ffffffffffffffffffffffffffffffffffffffff021916908373ffffffffffffffffffffffffffffffffffffffff16021790555050565b600760009054906101000a900473ffffffffffffffffffffffffffffffffffffffff1681565b600560009054906101000a900473ffffffffffffffffffffffffffffffffffffffff1681565b600460009054906101000a900473ffffffffffffffffffffffffffffffffffffffff1681565b600360009054906101000a900473ffffffffffffffffffffffffffffffffffffffff1681565b610fb76110a7565b73ffffffffffffffffffffffffffffffffffffffff16610fd5610d8d565b73ffffffffffffffffffffffffffffffffffffffff161461102b576040517f08c379a000000000000000000000000000000000000000000000000000000000815260040161102290611737565b60405180910390fd5b600073ffffffffffffffffffffffffffffffffffffffff168173ffffffffffffffffffffffffffffffffffffffff16141561109b576040517f08c379a000000000000000000000000000000000000000000000000000000000815260040161109290611a1c565b60405180910390fd5b6110a481611119565b50565b600033905090565b6000808260601b90506040517f3d602d80600a3d3981f3363d3d373d3d3d363d7300000000000000000000000081528160148201527f5af43d82803e903d91602b57fd5bf3000000000000000000000000000000000060288201526037816000f092505050919050565b60008060009054906101000a900473ffffffffffffffffffffffffffffffffffffffff169050816000806101000a81548173ffffffffffffffffffffffffffffffffffffffff021916908373ffffffffffffffffffffffffffffffffffffffff1602179055508173ffffffffffffffffffffffffffffffffffffffff168173ffffffffffffffffffffffffffffffffffffffff167f8be0079c531659141344cd1fd0a4f28419497f9722a3daafe3b4186f6b6457e060405160405180910390a35050565b82805482825590600052602060002090810192821561121e5760005260206000209182015b8281111561121d578254825591600101919060010190611202565b5b50905061122b919061122f565b5090565b5b80821115611248576000816000905550600101611230565b5090565b6000604051905090565b600080fd5b600080fd5b600073ffffffffffffffffffffffffffffffffffffffff82169050919050565b600061128b82611260565b9050919050565b61129b81611280565b81146112a657600080fd5b50565b6000813590506112b881611292565b92915050565b6000602082840312156112d4576112d3611256565b5b60006112e2848285016112a9565b91505092915050565b6112f481611280565b82525050565b600060208201905061130f60008301846112eb565b92915050565b6000819050919050565b61132881611315565b811461133357600080fd5b50565b6000813590506113458161131f565b92915050565b600080fd5b600080fd5b6000601f19601f8301169050919050565b7f4e487b7100000000000000000000000000000000000000000000000000000000600052604160045260246000fd5b61139e82611355565b810181811067ffffffffffffffff821117156113bd576113bc611366565b5b80604052505050565b60006113d061124c565b90506113dc8282611395565b919050565b600067ffffffffffffffff8211156113fc576113fb611366565b5b61140582611355565b9050602081019050919050565b82818337600083830152505050565b600061143461142f846113e1565b6113c6565b9050828152602081018484840111156114505761144f611350565b5b61145b848285611412565b509392505050565b600082601f8301126114785761147761134b565b5b8135611488848260208601611421565b91505092915050565b600080600080600080600060e0888a0312156114b0576114af611256565b5b60006114be8a828b01611336565b97505060206114cf8a828b01611336565b965050604088013567ffffffffffffffff8111156114f0576114ef61125b565b5b6114fc8a828b01611463565b955050606088013567ffffffffffffffff81111561151d5761151c61125b565b5b6115298a828b01611463565b945050608088013567ffffffffffffffff81111561154a5761154961125b565b5b6115568a828b01611463565b93505060a088013567ffffffffffffffff8111156115775761157661125b565b5b6115838a828b01611463565b92505060c06115948a828b01611336565b91505092959891949750929550565b6115ac81611315565b82525050565b60006020820190506115c760008301846115a3565b92915050565b6000602082840312156115e3576115e2611256565b5b60006115f184828501611336565b91505092915050565b600081519050919050565b600082825260208201905092915050565b6000819050602082019050919050565b61162f81611280565b82525050565b60006116418383611626565b60208301905092915050565b6000602082019050919050565b6000611665826115fa565b61166f8185611605565b935061167a83611616565b8060005b838110156116ab5781516116928882611635565b975061169d8361164d565b92505060018101905061167e565b5085935050505092915050565b600060208201905081810360008301526116d2818461165a565b905092915050565b600082825260208201905092915050565b7f4f776e61626c653a2063616c6c6572206973206e6f7420746865206f776e6572600082015250565b60006117216020836116da565b915061172c826116eb565b602082019050919050565b6000602082019050818103600083015261175081611714565b9050919050565b7f4d6f64656c41646472657373206e6f7420736574656421000000000000000000600082015250565b600061178d6017836116da565b915061179882611757565b602082019050919050565b600060208201905081810360008301526117bc81611780565b9050919050565b60006060820190506117d860008301866115a3565b6117e560208301856115a3565b6117f260408301846112eb565b949350505050565b600081519050919050565b60005b83811015611823578082015181840152602081019050611808565b83811115611832576000848401525b50505050565b6000611843826117fa565b61184d81856116da565b935061185d818560208601611805565b61186681611355565b840191505092915050565b600060808201905061188660008301876112eb565b81810360208301526118988186611838565b905081810360408301526118ac8185611838565b90506118bb60608301846112eb565b95945050505050565b600060a0820190506118d960008301886112eb565b81810360208301526118eb8187611838565b905081810360408301526118ff8186611838565b905061190e60608301856112eb565b61191b60808301846115a3565b9695505050505050565b7f4e487b7100000000000000000000000000000000000000000000000000000000600052601160045260246000fd5b600061195f82611315565b915061196a83611315565b9250827fffffffffffffffffffffffffffffffffffffffffffffffffffffffffffffffff0382111561199f5761199e611925565b5b828201905092915050565b7f4f776e61626c653a206e6577206f776e657220697320746865207a65726f206160008201527f6464726573730000000000000000000000000000000000000000000000000000602082015250565b6000611a066026836116da565b9150611a11826119aa565b604082019050919050565b60006020820190508181036000830152611a35816119f9565b905091905056fea264697066735822122055d52a5d96a017429a379b7a332891efdfb5e2a19bd790ea5b3124ed50a1c6b064736f6c634300080c0033",
  "immutableReferences": {},
  "source": "// SPDX-License-Identifier: GPL-3.0-only\r\npragma solidity ^0.8.0;\r\nimport \"@openzeppelin/contracts/access/Ownable.sol\";\r\n\r\ninterface IGovernance{\r\n    function initialize(\r\n        uint256 _authorAmount,\r\n        uint _blockHeight,\r\n        address _ownerAddress\r\n    ) external;\r\n}\r\n\r\ninterface IPool{\r\n    function initialize (\r\n        address _governAddr,\r\n        string memory name_,\r\n        string memory symbol_,\r\n        address _faucetModelAddr\r\n    ) external;\r\n}\r\n\r\ninterface IAirdrop{\r\n    function initialize (\r\n        address _governAddr,\r\n        string memory name_,\r\n        string memory symbol_,\r\n        address _account,\r\n        uint _amount\r\n    ) external;\r\n}\r\n\r\ninterface IReward{\r\n    function initialize (address _governAddr) external;\r\n}\r\n\r\ncontract Factory is Ownable{\r\n    mapping(uint => address[]) private daoAddrs;\r\n    uint public len = 0;\r\n    //governance\r\n    address  public governModelAddr;\r\n    //pool\r\n    address  public poolModelAddr;\r\n    //airdrop\r\n    address  public airdropModelAddr;\r\n    //reward\r\n    address  public rewardModelAddr;\r\n    //faucet\r\n    address public faucetModelAddr;\r\n\r\n    function createClone(address target) internal returns (address result) {\r\n        bytes20 targetBytes = bytes20(target);\r\n        assembly {\r\n            let clone := mload(0x40)\r\n            mstore(clone, 0x3d602d80600a3d3981f3363d3d373d3d3d363d73000000000000000000000000)\r\n            mstore(add(clone, 0x14), targetBytes)\r\n            mstore(add(clone, 0x28), 0x5af43d82803e903d91602b57fd5bf30000000000000000000000000000000000)\r\n            result := create(0, clone, 0x37)\r\n        }\r\n    }\r\n\r\n    function createDAO(\r\n        uint256 _authorAmount, //100000000000000000000\r\n        uint _blockHeight,//600\r\n        string memory _stkName,//stkToken\r\n        string memory _stkSymbol,//stkToken\r\n        string memory _retName,//retToken\r\n        string memory _retSymbol,//retToken\r\n        uint _retAmount//10000000000000000000000\r\n    ) public onlyOwner(){\r\n        require(governModelAddr != address(0)\r\n         && poolModelAddr != address(0)\r\n         && airdropModelAddr != address(0)\r\n         && rewardModelAddr != address(0)\r\n         && faucetModelAddr != address(0),'ModelAddress not seted!');\r\n        IGovernance Igovern = IGovernance(createClone(governModelAddr));\r\n        Igovern.initialize(_authorAmount,_blockHeight,msg.sender);\r\n\r\n        IPool Ipool = IPool(createClone(poolModelAddr));\r\n        Ipool.initialize(address(Igovern),_stkName,_stkSymbol,faucetModelAddr);\r\n        \r\n        IAirdrop Iairdrop = IAirdrop(createClone(airdropModelAddr));\r\n        Iairdrop.initialize(address(Igovern),_retName,_retSymbol,msg.sender,_retAmount);\r\n\r\n        IReward Ireward = IReward(createClone(rewardModelAddr));\r\n        Ireward.initialize(address(Igovern));\r\n\r\n        address[] storage addrs = daoAddrs[len];\r\n        addrs.push(address(Igovern));\r\n        addrs.push(address(Ipool));\r\n        addrs.push(address(Iairdrop));\r\n        addrs.push(address(Ireward));\r\n        daoAddrs[len] = addrs;\r\n        len += 1;\r\n    }\r\n\r\n    function setGovernModelAddr(address _modelAddr) public onlyOwner(){\r\n        governModelAddr = _modelAddr;\r\n    }\r\n\r\n    function setPoolModelAddr(address _modelAddr) public onlyOwner(){\r\n        poolModelAddr = _modelAddr;\r\n    }\r\n\r\n    function setAirdropModelAddr(address _modelAddr) public onlyOwner(){\r\n        airdropModelAddr = _modelAddr;\r\n    }\r\n\r\n    function setRewardModelAddr(address _modelAddr) public onlyOwner(){\r\n        rewardModelAddr = _modelAddr;\r\n    }\r\n\r\n    function setFaucetModelAddr(address _modelAddr) public onlyOwner(){\r\n        faucetModelAddr = _modelAddr;\r\n    }\r\n\r\n    function getDaoAddrs(uint _index) public view returns(address[] memory){\r\n        return daoAddrs[_index];\r\n    }\r\n}",
  "sourcePath": "D:\\\\StakeFinance\\StakeFinance\\truffle-dev\\contracts\\Factory.sol",
  "compiler": {
    "name": "solc",
    "version": "0.8.12+commit.f00d7308.Emscripten.clang"
  },
  "schemaVersion": "3.4.5",
  "updatedAt": "2022-04-18T06:54:25.042Z",
  "devdoc": {
    "kind": "dev",
    "methods": {
      "owner()": {
        "details": "Returns the address of the current owner."
      },
      "renounceOwnership()": {
        "details": "Leaves the contract without owner. It will not be possible to call `onlyOwner` functions anymore. Can only be called by the current owner. NOTE: Renouncing ownership will leave the contract without an owner, thereby removing any functionality that is only available to the owner."
      },
      "transferOwnership(address)": {
        "details": "Transfers ownership of the contract to a new account (`newOwner`). Can only be called by the current owner."
      }
    },
    "version": 1
  },
  "userdoc": {
    "kind": "user",
    "methods": {},
    "version": 1
  }
}