{
  "contractName": "Faucet",
  "abi": [
    {
      "inputs": [],
      "stateMutability": "nonpayable",
      "type": "constructor"
    },
    {
      "stateMutability": "payable",
      "type": "fallback"
    },
    {
      "inputs": [],
      "name": "Iairdrop",
      "outputs": [
        {
          "internalType": "contract IAirdrop",
          "name": "",
          "type": "address"
        }
      ],
      "stateMutability": "view",
      "type": "function"
    },
    {
      "inputs": [],
      "name": "Igovern",
      "outputs": [
        {
          "internalType": "contract IGovernance",
          "name": "",
          "type": "address"
        }
      ],
      "stateMutability": "view",
      "type": "function"
    },
    {
      "inputs": [],
      "name": "associationFlag",
      "outputs": [
        {
          "internalType": "bool",
          "name": "",
          "type": "bool"
        }
      ],
      "stateMutability": "view",
      "type": "function"
    },
    {
      "inputs": [],
      "name": "bstate",
      "outputs": [
        {
          "internalType": "bool",
          "name": "",
          "type": "bool"
        }
      ],
      "stateMutability": "view",
      "type": "function"
    },
    {
      "inputs": [],
      "name": "collatorAddr",
      "outputs": [
        {
          "internalType": "address",
          "name": "",
          "type": "address"
        }
      ],
      "stateMutability": "view",
      "type": "function"
    },
    {
      "inputs": [],
      "name": "dayLen",
      "outputs": [
        {
          "internalType": "uint256",
          "name": "",
          "type": "uint256"
        }
      ],
      "stateMutability": "view",
      "type": "function"
    },
    {
      "inputs": [],
      "name": "dayRewardInfo",
      "outputs": [
        {
          "internalType": "uint256",
          "name": "rdDate",
          "type": "uint256"
        },
        {
          "internalType": "uint256",
          "name": "rdamount",
          "type": "uint256"
        }
      ],
      "stateMutability": "view",
      "type": "function"
    },
    {
      "inputs": [],
      "name": "faucetType",
      "outputs": [
        {
          "internalType": "bool",
          "name": "",
          "type": "bool"
        }
      ],
      "stateMutability": "view",
      "type": "function"
    },
    {
      "inputs": [
        {
          "internalType": "uint256",
          "name": "",
          "type": "uint256"
        }
      ],
      "name": "leaseDates",
      "outputs": [
        {
          "internalType": "uint256",
          "name": "",
          "type": "uint256"
        }
      ],
      "stateMutability": "view",
      "type": "function"
    },
    {
      "inputs": [
        {
          "internalType": "uint256",
          "name": "",
          "type": "uint256"
        }
      ],
      "name": "leaseInfos",
      "outputs": [
        {
          "internalType": "uint256",
          "name": "period",
          "type": "uint256"
        },
        {
          "internalType": "uint256",
          "name": "amount",
          "type": "uint256"
        },
        {
          "internalType": "uint256",
          "name": "marginAmount",
          "type": "uint256"
        },
        {
          "internalType": "uint256",
          "name": "number",
          "type": "uint256"
        },
        {
          "internalType": "address",
          "name": "reddeemAddr",
          "type": "address"
        },
        {
          "internalType": "bool",
          "name": "bflag",
          "type": "bool"
        }
      ],
      "stateMutability": "view",
      "type": "function"
    },
    {
      "inputs": [],
      "name": "leaseTotal",
      "outputs": [
        {
          "internalType": "uint256",
          "name": "",
          "type": "uint256"
        }
      ],
      "stateMutability": "view",
      "type": "function"
    },
    {
      "inputs": [],
      "name": "leaveNumber",
      "outputs": [
        {
          "internalType": "uint256",
          "name": "",
          "type": "uint256"
        }
      ],
      "stateMutability": "view",
      "type": "function"
    },
    {
      "inputs": [],
      "name": "nimbusId",
      "outputs": [
        {
          "internalType": "bytes32",
          "name": "",
          "type": "bytes32"
        }
      ],
      "stateMutability": "view",
      "type": "function"
    },
    {
      "inputs": [],
      "name": "owner",
      "outputs": [
        {
          "internalType": "address",
          "name": "",
          "type": "address"
        }
      ],
      "stateMutability": "view",
      "type": "function"
    },
    {
      "inputs": [],
      "name": "techAddr",
      "outputs": [
        {
          "internalType": "address",
          "name": "",
          "type": "address"
        }
      ],
      "stateMutability": "view",
      "type": "function"
    },
    {
      "stateMutability": "payable",
      "type": "receive"
    },
    {
      "inputs": [
        {
          "internalType": "address",
          "name": "_governAddr",
          "type": "address"
        },
        {
          "internalType": "address",
          "name": "_collatorAddr",
          "type": "address"
        },
        {
          "internalType": "address",
          "name": "_techAddr",
          "type": "address"
        },
        {
          "internalType": "address",
          "name": "_owner",
          "type": "address"
        },
        {
          "internalType": "bool",
          "name": "_faucetType",
          "type": "bool"
        }
      ],
      "name": "initialize",
      "outputs": [],
      "stateMutability": "nonpayable",
      "type": "function"
    },
    {
      "inputs": [
        {
          "internalType": "address",
          "name": "_reddeemAddr",
          "type": "address"
        },
        {
          "internalType": "uint256",
          "name": "_leaseDate",
          "type": "uint256"
        },
        {
          "internalType": "uint256",
          "name": "_period",
          "type": "uint256"
        },
        {
          "internalType": "uint256",
          "name": "_amount",
          "type": "uint256"
        },
        {
          "internalType": "uint256",
          "name": "_marginAmount",
          "type": "uint256"
        }
      ],
      "name": "setLeaseInfo",
      "outputs": [],
      "stateMutability": "nonpayable",
      "type": "function"
    },
    {
      "inputs": [],
      "name": "sendReward",
      "outputs": [],
      "stateMutability": "nonpayable",
      "type": "function"
    },
    {
      "inputs": [],
      "name": "recordRewardInfo",
      "outputs": [],
      "stateMutability": "nonpayable",
      "type": "function"
    },
    {
      "inputs": [],
      "name": "zeroIncomePunish",
      "outputs": [],
      "stateMutability": "nonpayable",
      "type": "function"
    },
    {
      "inputs": [],
      "name": "scheduleRedeemStake",
      "outputs": [],
      "stateMutability": "nonpayable",
      "type": "function"
    },
    {
      "inputs": [],
      "name": "executeRedeemStake",
      "outputs": [],
      "stateMutability": "nonpayable",
      "type": "function"
    },
    {
      "inputs": [
        {
          "internalType": "bytes32",
          "name": "newNimbusId",
          "type": "bytes32"
        }
      ],
      "name": "addAssociation",
      "outputs": [],
      "stateMutability": "nonpayable",
      "type": "function"
    },
    {
      "inputs": [
        {
          "internalType": "bytes32",
          "name": "oldNimbusId",
          "type": "bytes32"
        },
        {
          "internalType": "bytes32",
          "name": "newNimbusId",
          "type": "bytes32"
        }
      ],
      "name": "updateAssociation",
      "outputs": [],
      "stateMutability": "nonpayable",
      "type": "function"
    },
    {
      "inputs": [],
      "name": "redemmAssociation",
      "outputs": [],
      "stateMutability": "nonpayable",
      "type": "function"
    },
    {
      "inputs": [],
      "name": "balance",
      "outputs": [
        {
          "internalType": "uint256",
          "name": "",
          "type": "uint256"
        }
      ],
      "stateMutability": "view",
      "type": "function"
    }
  ],
  "bytecode": "0x608060405260006005556000600660006101000a81548160ff02191690831515021790555060006007556000600960006101000a81548160ff0219169083151502179055506000600a556000600e556001601160146101000a81548160ff02191690831515021790555034801561007557600080fd5b506151e4806100856000396000f3fe6080604052600436106101855760003560e01c80638dbd6103116100d1578063b69ef8a81161008a578063ee3b4a3f11610064578063ee3b4a3f146105db578063ef8b6cd814610606578063fc5b5fda1461062f578063fcb7c6e9146106585761027a565b8063b69ef8a81461056e578063bd15d45e14610599578063bee6949b146105c45761027a565b80638dbd6103146104aa5780639a14679b146104c15780639b182f9b146104d8578063a8add123146104ef578063a8e9270414610518578063b225f1fe146105435761027a565b80633d512be61161013e5780637f24b15f116101185780637f24b15f146104125780638baf96a51461043d5780638d57ac7e146104685780638da5cb5b1461047f5761027a565b80633d512be61461036857806343341a041461039357806368ece26e146103d55761027a565b80631149a81a1461027c5780631337cd1f1461029357806325a39da5146102be57806328599c5d146102e757806336fbc98d14610312578063372cf5fe1461033d5761027a565b3661027a573373ffffffffffffffffffffffffffffffffffffffff1660008054906101000a900473ffffffffffffffffffffffffffffffffffffffff1673ffffffffffffffffffffffffffffffffffffffff166308c17a4a6040518163ffffffff1660e01b8152600401602060405180830381865afa15801561020c573d6000803e3d6000fd5b505050506040513d601f19601f820116820180604052508101906102309190613ed8565b73ffffffffffffffffffffffffffffffffffffffff16141561027857600660009054906101000a900460ff161561026e57610269610684565b610277565b610276610b48565b5b5b005b005b34801561028857600080fd5b50610291610e52565b005b34801561029f57600080fd5b506102a861132b565b6040516102b59190613f20565b60405180910390f35b3480156102ca57600080fd5b506102e560048036038101906102e09190613f71565b61133e565b005b3480156102f357600080fd5b506102fc6114b7565b6040516103099190613f20565b60405180910390f35b34801561031e57600080fd5b506103276114ca565b6040516103349190613fca565b60405180910390f35b34801561034957600080fd5b506103526114d0565b60405161035f9190614044565b60405180910390f35b34801561037457600080fd5b5061037d6114f6565b60405161038a9190613f20565b60405180910390f35b34801561039f57600080fd5b506103ba60048036038101906103b5919061408b565b611509565b6040516103cc969594939291906140c7565b60405180910390f35b3480156103e157600080fd5b506103fc60048036038101906103f7919061408b565b611572565b6040516104099190613fca565b60405180910390f35b34801561041e57600080fd5b5061042761158a565b6040516104349190614137565b60405180910390f35b34801561044957600080fd5b50610452611590565b60405161045f9190614173565b60405180910390f35b34801561047457600080fd5b5061047d6115b4565b005b34801561048b57600080fd5b50610494611bd0565b6040516104a1919061418e565b60405180910390f35b3480156104b657600080fd5b506104bf611bf6565b005b3480156104cd57600080fd5b506104d6611cfb565b005b3480156104e457600080fd5b506104ed612adc565b005b3480156104fb57600080fd5b50610516600480360381019061051191906141be565b6130d5565b005b34801561052457600080fd5b5061052d613481565b60405161053a9190613fca565b60405180910390f35b34801561054f57600080fd5b50610558613486565b604051610565919061418e565b60405180910390f35b34801561057a57600080fd5b506105836134ac565b6040516105909190613fca565b60405180910390f35b3480156105a557600080fd5b506105ae6134b4565b6040516105bb919061418e565b60405180910390f35b3480156105d057600080fd5b506105d96134da565b005b3480156105e757600080fd5b506105f0613828565b6040516105fd9190613fca565b60405180910390f35b34801561061257600080fd5b5061062d60048036038101906106289190614239565b61382e565b005b34801561063b57600080fd5b5061065660048036038101906106519190614292565b613aa8565b005b34801561066457600080fd5b5061066d613d17565b60405161067b92919061430d565b60405180910390f35b600061069c6201518042613d2990919063ffffffff16565b90506000600b60008381526020019081526020016000206040518060c0016040529081600082015481526020016001820154815260200160028201548152602001600382015481526020016004820160009054906101000a900473ffffffffffffffffffffffffffffffffffffffff1673ffffffffffffffffffffffffffffffffffffffff1673ffffffffffffffffffffffffffffffffffffffff1681526020016004820160149054906101000a900460ff16151515158152505090508060a00151801561076e575060008160200151115b801561077e575080602001514710155b6107bd576040517f08c379a00000000000000000000000000000000000000000000000000000000081526004016107b4906143b9565b60405180910390fd5b600160149054906101000a900460ff16156108fa57600c60009054906101000a900473ffffffffffffffffffffffffffffffffffffffff1673ffffffffffffffffffffffffffffffffffffffff16630a1bff608260200151600c60009054906101000a900473ffffffffffffffffffffffffffffffffffffffff1673ffffffffffffffffffffffffffffffffffffffff16634b1c4c296040518163ffffffff1660e01b8152600401602060405180830381865afa158015610882573d6000803e3d6000fd5b505050506040513d601f19601f820116820180604052508101906108a691906143ee565b6040518363ffffffff1660e01b81526004016108c392919061430d565b600060405180830381600087803b1580156108dd57600080fd5b505af11580156108f1573d6000803e3d6000fd5b50505050610b0c565b600c60009054906101000a900473ffffffffffffffffffffffffffffffffffffffff1673ffffffffffffffffffffffffffffffffffffffff1663829f5ee3600260009054906101000a900473ffffffffffffffffffffffffffffffffffffffff168360200151600c60009054906101000a900473ffffffffffffffffffffffffffffffffffffffff1673ffffffffffffffffffffffffffffffffffffffff1663815b796c600260009054906101000a900473ffffffffffffffffffffffffffffffffffffffff166040518263ffffffff1660e01b81526004016109dd919061418e565b602060405180830381865afa1580156109fa573d6000803e3d6000fd5b505050506040513d601f19601f82011682018060405250810190610a1e91906143ee565b600c60009054906101000a900473ffffffffffffffffffffffffffffffffffffffff1673ffffffffffffffffffffffffffffffffffffffff1663fbc51bca306040518263ffffffff1660e01b8152600401610a79919061418e565b602060405180830381865afa158015610a96573d6000803e3d6000fd5b505050506040513d601f19601f82011682018060405250810190610aba91906143ee565b6040518563ffffffff1660e01b8152600401610ad9949392919061441b565b600060405180830381600087803b158015610af357600080fd5b505af1158015610b07573d6000803e3d6000fd5b505050505b806020015160056000828254610b22919061448f565b925050819055506001600660006101000a81548160ff0219169083151502179055505050565b600660009054906101000a900460ff16610b97576040517f08c379a0000000000000000000000000000000000000000000000000000000008152600401610b8e90614557565b60405180910390fd5b6000610baf6201518042613d2990919063ffffffff16565b90506000600b60008381526020019081526020016000206040518060c0016040529081600082015481526020016001820154815260200160028201548152602001600382015481526020016004820160009054906101000a900473ffffffffffffffffffffffffffffffffffffffff1673ffffffffffffffffffffffffffffffffffffffff1673ffffffffffffffffffffffffffffffffffffffff1681526020016004820160149054906101000a900460ff16151515158152505090508060a001518015610c81575060008160200151115b8015610c91575080602001514710155b610cd0576040517f08c379a0000000000000000000000000000000000000000000000000000000008152600401610cc7906145e9565b60405180910390fd5b600160149054906101000a900460ff1615610d7b57600c60009054906101000a900473ffffffffffffffffffffffffffffffffffffffff1673ffffffffffffffffffffffffffffffffffffffff1663c57bd3a882602001516040518263ffffffff1660e01b8152600401610d449190613fca565b600060405180830381600087803b158015610d5e57600080fd5b505af1158015610d72573d6000803e3d6000fd5b50505050610e31565b600c60009054906101000a900473ffffffffffffffffffffffffffffffffffffffff1673ffffffffffffffffffffffffffffffffffffffff1663f8331108600260009054906101000a900473ffffffffffffffffffffffffffffffffffffffff1683602001516040518363ffffffff1660e01b8152600401610dfe929190614609565b600060405180830381600087803b158015610e1857600080fd5b505af1158015610e2c573d6000803e3d6000fd5b505050505b806020015160056000828254610e47919061448f565b925050819055505050565b600960009054906101000a900460ff16610ea1576040517f08c379a0000000000000000000000000000000000000000000000000000000008152600401610e98906146a4565b60405180910390fd5b60008054906101000a900473ffffffffffffffffffffffffffffffffffffffff1673ffffffffffffffffffffffffffffffffffffffff1663e6164bfb6040518163ffffffff1660e01b8152600401602060405180830381865afa158015610f0c573d6000803e3d6000fd5b505050506040513d601f19601f82011682018060405250810190610f3091906143ee565b471015610f72576040517f08c379a0000000000000000000000000000000000000000000000000000000008152600401610f6990614736565b60405180910390fd5b6000611028606461101a60008054906101000a900473ffffffffffffffffffffffffffffffffffffffff1673ffffffffffffffffffffffffffffffffffffffff166387e1164f6040518163ffffffff1660e01b8152600401602060405180830381865afa158015610fe7573d6000803e3d6000fd5b505050506040513d601f19601f8201168201806040525081019061100b91906143ee565b47613d3f90919063ffffffff16565b613d2990919063ffffffff16565b90506110c260008054906101000a900473ffffffffffffffffffffffffffffffffffffffff1673ffffffffffffffffffffffffffffffffffffffff16638f84aa096040518163ffffffff1660e01b8152600401602060405180830381865afa158015611098573d6000803e3d6000fd5b505050506040513d601f19601f820116820180604052508101906110bc9190613ed8565b82613d55565b600160149054906101000a900460ff161561127d57600061118d606461117f60008054906101000a900473ffffffffffffffffffffffffffffffffffffffff1673ffffffffffffffffffffffffffffffffffffffff16636ac61d696040518163ffffffff1660e01b8152600401602060405180830381865afa15801561114c573d6000803e3d6000fd5b505050506040513d601f19601f8201168201806040525081019061117091906143ee565b47613d3f90919063ffffffff16565b613d2990919063ffffffff16565b90506111bb600360009054906101000a900473ffffffffffffffffffffffffffffffffffffffff1682613d55565b61127760008054906101000a900473ffffffffffffffffffffffffffffffffffffffff1673ffffffffffffffffffffffffffffffffffffffff16637015e95e6040518163ffffffff1660e01b8152600401602060405180830381865afa158015611229573d6000803e3d6000fd5b505050506040513d601f19601f8201168201806040525081019061124d9190613ed8565b611272846112648547613e4990919063ffffffff16565b613e4990919063ffffffff16565b613d55565b50611328565b61132760008054906101000a900473ffffffffffffffffffffffffffffffffffffffff1673ffffffffffffffffffffffffffffffffffffffff16637015e95e6040518163ffffffff1660e01b8152600401602060405180830381865afa1580156112eb573d6000803e3d6000fd5b505050506040513d601f19601f8201168201806040525081019061130f9190613ed8565b6113228347613e4990919063ffffffff16565b613d55565b5b50565b600960009054906101000a900460ff1681565b601160009054906101000a900473ffffffffffffffffffffffffffffffffffffffff1673ffffffffffffffffffffffffffffffffffffffff163373ffffffffffffffffffffffffffffffffffffffff16146113ce576040517f08c379a00000000000000000000000000000000000000000000000000000000081526004016113c5906147a2565b60405180910390fd5b600960009054906101000a900460ff1661141d576040517f08c379a00000000000000000000000000000000000000000000000000000000081526004016114149061480e565b60405180910390fd5b600d60009054906101000a900473ffffffffffffffffffffffffffffffffffffffff1673ffffffffffffffffffffffffffffffffffffffff1663d9cef87983836040518363ffffffff1660e01b815260040161147a92919061482e565b600060405180830381600087803b15801561149457600080fd5b505af11580156114a8573d6000803e3d6000fd5b50505050806008819055505050565b600160149054906101000a900460ff1681565b60055481565b600160009054906101000a900473ffffffffffffffffffffffffffffffffffffffff1681565b600660009054906101000a900460ff1681565b600b6020528060005260406000206000915090508060000154908060010154908060020154908060030154908060040160009054906101000a900473ffffffffffffffffffffffffffffffffffffffff16908060040160149054906101000a900460ff16905086565b60046020528060005260406000206000915090505481565b60085481565b60008054906101000a900473ffffffffffffffffffffffffffffffffffffffff1681565b601160149054906101000a900460ff16611603576040517f08c379a00000000000000000000000000000000000000000000000000000000081526004016115fa906148a3565b60405180910390fd5b6000601160146101000a81548160ff021916908315150217905550600660009054906101000a900460ff1661166d576040517f08c379a00000000000000000000000000000000000000000000000000000000081526004016116649061490f565b60405180910390fd5b60005b600a54811015611bb2576000600460008381526020019081526020016000205490506000600b60008381526020019081526020016000206040518060c0016040529081600082015481526020016001820154815260200160028201548152602001600382015481526020016004820160009054906101000a900473ffffffffffffffffffffffffffffffffffffffff1673ffffffffffffffffffffffffffffffffffffffff1673ffffffffffffffffffffffffffffffffffffffff1681526020016004820160149054906101000a900460ff16151515158152505090508060a001518015611795575061176f6201518042613d2990919063ffffffff16565b611792601e8360000151611783919061492f565b84613e5f90919063ffffffff16565b11155b15611b9d57600c60009054906101000a900473ffffffffffffffffffffffffffffffffffffffff1673ffffffffffffffffffffffffffffffffffffffff166372ce89336040518163ffffffff1660e01b8152600401602060405180830381865afa158015611807573d6000803e3d6000fd5b505050506040513d601f19601f8201168201806040525081019061182b91906143ee565b6118448260200151600554613e4990919063ffffffff16565b1015611a2b576000600660006101000a81548160ff02191690831515021790555043600781905550600160149054906101000a900460ff16156119a357600c60009054906101000a900473ffffffffffffffffffffffffffffffffffffffff1673ffffffffffffffffffffffffffffffffffffffff166360afbac6600c60009054906101000a900473ffffffffffffffffffffffffffffffffffffffff1673ffffffffffffffffffffffffffffffffffffffff16634b1c4c296040518163ffffffff1660e01b8152600401602060405180830381865afa15801561192c573d6000803e3d6000fd5b505050506040513d601f19601f8201168201806040525081019061195091906143ee565b6040518263ffffffff1660e01b815260040161196c9190613fca565b600060405180830381600087803b15801561198657600080fd5b505af115801561199a573d6000803e3d6000fd5b50505050611a26565b600c60009054906101000a900473ffffffffffffffffffffffffffffffffffffffff1673ffffffffffffffffffffffffffffffffffffffff166365a5bbd06040518163ffffffff1660e01b8152600401600060405180830381600087803b158015611a0d57600080fd5b505af1158015611a21573d6000803e3d6000fd5b505050505b611b96565b43816060018181525050600160149054906101000a900460ff1615611ae057600c60009054906101000a900473ffffffffffffffffffffffffffffffffffffffff1673ffffffffffffffffffffffffffffffffffffffff1663034c47bc82602001516040518263ffffffff1660e01b8152600401611aa99190613fca565b600060405180830381600087803b158015611ac357600080fd5b505af1158015611ad7573d6000803e3d6000fd5b50505050611b95565b600c60009054906101000a900473ffffffffffffffffffffffffffffffffffffffff1673ffffffffffffffffffffffffffffffffffffffff1662043acf600260009054906101000a900473ffffffffffffffffffffffffffffffffffffffff1683602001516040518363ffffffff1660e01b8152600401611b62929190614609565b600060405180830381600087803b158015611b7c57600080fd5b505af1158015611b90573d6000803e3d6000fd5b505050505b5b5050611bb2565b50508080611baa90614989565b915050611670565b506001601160146101000a81548160ff021916908315150217905550565b601160009054906101000a900473ffffffffffffffffffffffffffffffffffffffff1681565b600660009054906101000a900460ff16611c45576040517f08c379a0000000000000000000000000000000000000000000000000000000008152600401611c3c90614a44565b60405180910390fd5b6000611c5d6201518042613d2990919063ffffffff16565b905080600f6000015410611ca6576040517f08c379a0000000000000000000000000000000000000000000000000000000008152600401611c9d90614ad6565b60405180910390fd5b47600f600101541415611ce457611ccb600f6000015482613e4990919063ffffffff16565b600e6000828254611cdc919061448f565b925050819055505b80600f6000018190555047600f6001018190555050565b601160149054906101000a900460ff16611d4a576040517f08c379a0000000000000000000000000000000000000000000000000000000008152600401611d41906148a3565b60405180910390fd5b6000601160146101000a81548160ff021916908315150217905550600060075411156125395743611e1460008054906101000a900473ffffffffffffffffffffffffffffffffffffffff1673ffffffffffffffffffffffffffffffffffffffff1663f44ff7126040518163ffffffff1660e01b8152600401602060405180830381865afa158015611ddf573d6000803e3d6000fd5b505050506040513d601f19601f82011682018060405250810190611e0391906143ee565b600754613e5f90919063ffffffff16565b1115611e55576040517f08c379a0000000000000000000000000000000000000000000000000000000008152600401611e4c90614b42565b60405180910390fd5b600160149054906101000a900460ff161561204a57600c60009054906101000a900473ffffffffffffffffffffffffffffffffffffffff1673ffffffffffffffffffffffffffffffffffffffff16633fdc4c3030600c60009054906101000a900473ffffffffffffffffffffffffffffffffffffffff1673ffffffffffffffffffffffffffffffffffffffff1663815b796c306040518263ffffffff1660e01b8152600401611f04919061418e565b602060405180830381865afa158015611f21573d6000803e3d6000fd5b505050506040513d601f19601f82011682018060405250810190611f4591906143ee565b6040518363ffffffff1660e01b8152600401611f62929190614609565b600060405180830381600087803b158015611f7c57600080fd5b505af1158015611f90573d6000803e3d6000fd5b505050506000600960006101000a81548160ff02191690831515021790555043600781905550600d60009054906101000a900473ffffffffffffffffffffffffffffffffffffffff1673ffffffffffffffffffffffffffffffffffffffff16637354c91d6008546040518263ffffffff1660e01b81526004016120139190614137565b600060405180830381600087803b15801561202d57600080fd5b505af1158015612041573d6000803e3d6000fd5b50505050612243565b6000600781905550600c60009054906101000a900473ffffffffffffffffffffffffffffffffffffffff1673ffffffffffffffffffffffffffffffffffffffff1663192e1db330600260009054906101000a900473ffffffffffffffffffffffffffffffffffffffff166040518363ffffffff1660e01b81526004016120d1929190614b62565b602060405180830381865afa1580156120ee573d6000803e3d6000fd5b505050506040513d601f19601f820116820180604052508101906121129190614ba0565b1561224257600c60009054906101000a900473ffffffffffffffffffffffffffffffffffffffff1673ffffffffffffffffffffffffffffffffffffffff1663a84a746830600c60009054906101000a900473ffffffffffffffffffffffffffffffffffffffff1673ffffffffffffffffffffffffffffffffffffffff1663fbc51bca306040518263ffffffff1660e01b81526004016121b1919061418e565b602060405180830381865afa1580156121ce573d6000803e3d6000fd5b505050506040513d601f19601f820116820180604052508101906121f291906143ee565b6040518363ffffffff1660e01b815260040161220f929190614609565b600060405180830381600087803b15801561222957600080fd5b505af115801561223d573d6000803e3d6000fd5b505050505b5b6122dd60008054906101000a900473ffffffffffffffffffffffffffffffffffffffff1673ffffffffffffffffffffffffffffffffffffffff166308c17a4a6040518163ffffffff1660e01b8152600401602060405180830381865afa1580156122b1573d6000803e3d6000fd5b505050506040513d601f19601f820116820180604052508101906122d59190613ed8565b600554613d55565b61238960008054906101000a900473ffffffffffffffffffffffffffffffffffffffff1673ffffffffffffffffffffffffffffffffffffffff16637015e95e6040518163ffffffff1660e01b8152600401602060405180830381865afa15801561234b573d6000803e3d6000fd5b505050506040513d601f19601f8201168201806040525081019061236f9190613ed8565b61238460055447613e4990919063ffffffff16565b613d55565b60005b600a54811015612533576000600460008381526020019081526020016000205490506000600b60008381526020019081526020016000206040518060c0016040529081600082015481526020016001820154815260200160028201548152602001600382015481526020016004820160009054906101000a900473ffffffffffffffffffffffffffffffffffffffff1673ffffffffffffffffffffffffffffffffffffffff1673ffffffffffffffffffffffffffffffffffffffff1681526020016004820160149054906101000a900460ff16151515158152505090508060a001511561251e5760008160a0019015159081151581525050600160009054906101000a900473ffffffffffffffffffffffffffffffffffffffff1673ffffffffffffffffffffffffffffffffffffffff166351d2ae1682608001518484604001516040518463ffffffff1660e01b81526004016124eb93929190614bcd565b600060405180830381600087803b15801561250557600080fd5b505af1158015612519573d6000803e3d6000fd5b505050505b5050808061252b90614989565b91505061238c565b50612abf565b60005b600a54811015612abd576000600460008381526020019081526020016000205490506000600b60008381526020019081526020016000206040518060c0016040529081600082015481526020016001820154815260200160028201548152602001600382015481526020016004820160009054906101000a900473ffffffffffffffffffffffffffffffffffffffff1673ffffffffffffffffffffffffffffffffffffffff1673ffffffffffffffffffffffffffffffffffffffff1681526020016004820160149054906101000a900460ff16151515158152505090508060a00151801561262e575060008160600151115b15612aa85760008160a0019015159081151581525050436126ea60008054906101000a900473ffffffffffffffffffffffffffffffffffffffff1673ffffffffffffffffffffffffffffffffffffffff1663f44ff7126040518163ffffffff1660e01b8152600401602060405180830381865afa1580156126b3573d6000803e3d6000fd5b505050506040513d601f19601f820116820180604052508101906126d791906143ee565b8360600151613e5f90919063ffffffff16565b111561272b576040517f08c379a000000000000000000000000000000000000000000000000000000000815260040161272290614b42565b60405180910390fd5b600160149054906101000a900460ff16156127d257600c60009054906101000a900473ffffffffffffffffffffffffffffffffffffffff1673ffffffffffffffffffffffffffffffffffffffff1663a9a2b8b7306040518263ffffffff1660e01b815260040161279b919061418e565b600060405180830381600087803b1580156127b557600080fd5b505af11580156127c9573d6000803e3d6000fd5b5050505061294d565b600c60009054906101000a900473ffffffffffffffffffffffffffffffffffffffff1673ffffffffffffffffffffffffffffffffffffffff1663192e1db330600260009054906101000a900473ffffffffffffffffffffffffffffffffffffffff166040518363ffffffff1660e01b8152600401612851929190614b62565b602060405180830381865afa15801561286e573d6000803e3d6000fd5b505050506040513d601f19601f820116820180604052508101906128929190614ba0565b1561294c57600c60009054906101000a900473ffffffffffffffffffffffffffffffffffffffff1673ffffffffffffffffffffffffffffffffffffffff1662043acf600260009054906101000a900473ffffffffffffffffffffffffffffffffffffffff1683602001516040518363ffffffff1660e01b8152600401612919929190614609565b600060405180830381600087803b15801561293357600080fd5b505af1158015612947573d6000803e3d6000fd5b505050505b5b6129e960008054906101000a900473ffffffffffffffffffffffffffffffffffffffff1673ffffffffffffffffffffffffffffffffffffffff166308c17a4a6040518163ffffffff1660e01b8152600401602060405180830381865afa1580156129bb573d6000803e3d6000fd5b505050506040513d601f19601f820116820180604052508101906129df9190613ed8565b8260200151613d55565b612a028160200151600554613e4990919063ffffffff16565b600581905550600160009054906101000a900473ffffffffffffffffffffffffffffffffffffffff1673ffffffffffffffffffffffffffffffffffffffff166351d2ae1682608001518484604001516040518463ffffffff1660e01b8152600401612a6f93929190614bcd565b600060405180830381600087803b158015612a8957600080fd5b505af1158015612a9d573d6000803e3d6000fd5b505050505050612abd565b50508080612ab590614989565b91505061253c565b505b6001601160146101000a81548160ff021916908315150217905550565b601160149054906101000a900460ff16612b2b576040517f08c379a0000000000000000000000000000000000000000000000000000000008152600401612b22906148a3565b60405180910390fd5b6000601160146101000a81548160ff021916908315150217905550600660009054906101000a900460ff16612b95576040517f08c379a0000000000000000000000000000000000000000000000000000000008152600401612b8c90614c76565b60405180910390fd5b60008054906101000a900473ffffffffffffffffffffffffffffffffffffffff1673ffffffffffffffffffffffffffffffffffffffff1663b97fb3ae6040518163ffffffff1660e01b8152600401602060405180830381865afa158015612c00573d6000803e3d6000fd5b505050506040513d601f19601f82011682018060405250810190612c2491906143ee565b600e541015612c68576040517f08c379a0000000000000000000000000000000000000000000000000000000008152600401612c5f90614d08565b60405180910390fd5b60008054906101000a900473ffffffffffffffffffffffffffffffffffffffff1673ffffffffffffffffffffffffffffffffffffffff1663d1d25fab6040518163ffffffff1660e01b8152600401602060405180830381865afa158015612cd3573d6000803e3d6000fd5b505050506040513d601f19601f82011682018060405250810190612cf79190613ed8565b600160006101000a81548173ffffffffffffffffffffffffffffffffffffffff021916908373ffffffffffffffffffffffffffffffffffffffff16021790555060005b600a54811015612edb576000600460008381526020019081526020016000205490506000600b60008381526020019081526020016000206040518060c0016040529081600082015481526020016001820154815260200160028201548152602001600382015481526020016004820160009054906101000a900473ffffffffffffffffffffffffffffffffffffffff1673ffffffffffffffffffffffffffffffffffffffff1673ffffffffffffffffffffffffffffffffffffffff1681526020016004820160149054906101000a900460ff16151515158152505090508060a0015115612ec65760008160a0019015159081151581525050600160009054906101000a900473ffffffffffffffffffffffffffffffffffffffff1673ffffffffffffffffffffffffffffffffffffffff1663734dc67e8383604001516040518363ffffffff1660e01b8152600401612e9392919061430d565b600060405180830381600087803b158015612ead57600080fd5b505af1158015612ec1573d6000803e3d6000fd5b505050505b50508080612ed390614989565b915050612d3a565b506000600660006101000a81548160ff02191690831515021790555043600781905550600160149054906101000a900460ff161561303557600c60009054906101000a900473ffffffffffffffffffffffffffffffffffffffff1673ffffffffffffffffffffffffffffffffffffffff166360afbac6600c60009054906101000a900473ffffffffffffffffffffffffffffffffffffffff1673ffffffffffffffffffffffffffffffffffffffff16634b1c4c296040518163ffffffff1660e01b8152600401602060405180830381865afa158015612fbe573d6000803e3d6000fd5b505050506040513d601f19601f82011682018060405250810190612fe291906143ee565b6040518263ffffffff1660e01b8152600401612ffe9190613fca565b600060405180830381600087803b15801561301857600080fd5b505af115801561302c573d6000803e3d6000fd5b505050506130b8565b600c60009054906101000a900473ffffffffffffffffffffffffffffffffffffffff1673ffffffffffffffffffffffffffffffffffffffff166365a5bbd06040518163ffffffff1660e01b8152600401600060405180830381600087803b15801561309f57600080fd5b505af11580156130b3573d6000803e3d6000fd5b505050505b6001601160146101000a81548160ff021916908315150217905550565b60008311613118576040517f08c379a000000000000000000000000000000000000000000000000000000000815260040161310f90614d74565b60405180910390fd5b3373ffffffffffffffffffffffffffffffffffffffff1660008054906101000a900473ffffffffffffffffffffffffffffffffffffffff1673ffffffffffffffffffffffffffffffffffffffff166308c17a4a6040518163ffffffff1660e01b8152600401602060405180830381865afa15801561319a573d6000803e3d6000fd5b505050506040513d601f19601f820116820180604052508101906131be9190613ed8565b73ffffffffffffffffffffffffffffffffffffffff1614613214576040517f08c379a000000000000000000000000000000000000000000000000000000000815260040161320b90614e06565b60405180910390fd5b6000600b60008681526020019081526020016000206040518060c0016040529081600082015481526020016001820154815260200160028201548152602001600382015481526020016004820160009054906101000a900473ffffffffffffffffffffffffffffffffffffffff1673ffffffffffffffffffffffffffffffffffffffff1673ffffffffffffffffffffffffffffffffffffffff1681526020016004820160149054906101000a900460ff1615151515815250509050600081600001511415613311578460046000600a548152602001908152602001600020819055506001600a6000828254613309919061448f565b925050819055505b8060a001511561336057613332838260200151613e5f90919063ffffffff16565b816020018181525050613352828260400151613e5f90919063ffffffff16565b816040018181525050613386565b828160200181815250508181604001818152505060018160a00190151590811515815250505b83816000018181525050600081606001818152505085816080019073ffffffffffffffffffffffffffffffffffffffff16908173ffffffffffffffffffffffffffffffffffffffff168152505080600b60008781526020019081526020016000206000820151816000015560208201518160010155604082015181600201556060820151816003015560808201518160040160006101000a81548173ffffffffffffffffffffffffffffffffffffffff021916908373ffffffffffffffffffffffffffffffffffffffff16021790555060a08201518160040160146101000a81548160ff021916908315150217905550905050505050505050565b601e81565b600360009054906101000a900473ffffffffffffffffffffffffffffffffffffffff1681565b600047905090565b600260009054906101000a900473ffffffffffffffffffffffffffffffffffffffff1681565b600160149054906101000a900460ff1680156135035750600960009054906101000a900460ff16155b613542576040517f08c379a000000000000000000000000000000000000000000000000000000000815260040161353990614e72565b60405180910390fd5b60008054906101000a900473ffffffffffffffffffffffffffffffffffffffff1673ffffffffffffffffffffffffffffffffffffffff1663e88d0eb56040518163ffffffff1660e01b8152600401602060405180830381865afa1580156135ad573d6000803e3d6000fd5b505050506040513d601f19601f820116820180604052508101906135d191906143ee565b471015613613576040517f08c379a000000000000000000000000000000000000000000000000000000000815260040161360a90614ede565b60405180910390fd5b436136b760008054906101000a900473ffffffffffffffffffffffffffffffffffffffff1673ffffffffffffffffffffffffffffffffffffffff1663f44ff7126040518163ffffffff1660e01b8152600401602060405180830381865afa158015613682573d6000803e3d6000fd5b505050506040513d601f19601f820116820180604052508101906136a691906143ee565b600754613e5f90919063ffffffff16565b11156136f8576040517f08c379a00000000000000000000000000000000000000000000000000000000081526004016136ef90614b42565b60405180910390fd5b600060078190555061382660008054906101000a900473ffffffffffffffffffffffffffffffffffffffff1673ffffffffffffffffffffffffffffffffffffffff166308c17a4a6040518163ffffffff1660e01b8152600401602060405180830381865afa15801561376e573d6000803e3d6000fd5b505050506040513d601f19601f820116820180604052508101906137929190613ed8565b60008054906101000a900473ffffffffffffffffffffffffffffffffffffffff1673ffffffffffffffffffffffffffffffffffffffff1663e88d0eb56040518163ffffffff1660e01b8152600401602060405180830381865afa1580156137fd573d6000803e3d6000fd5b505050506040513d601f19601f8201168201806040525081019061382191906143ee565b613d55565b565b60075481565b601160009054906101000a900473ffffffffffffffffffffffffffffffffffffffff1673ffffffffffffffffffffffffffffffffffffffff163373ffffffffffffffffffffffffffffffffffffffff16146138be576040517f08c379a00000000000000000000000000000000000000000000000000000000081526004016138b5906147a2565b60405180910390fd5b600160149054906101000a900460ff1680156138e65750600660009054906101000a900460ff165b613925576040517f08c379a000000000000000000000000000000000000000000000000000000000815260040161391c90614f4a565b60405180910390fd5b60008054906101000a900473ffffffffffffffffffffffffffffffffffffffff1673ffffffffffffffffffffffffffffffffffffffff1663e88d0eb56040518163ffffffff1660e01b8152600401602060405180830381865afa158015613990573d6000803e3d6000fd5b505050506040513d601f19601f820116820180604052508101906139b491906143ee565b4710156139f6576040517f08c379a00000000000000000000000000000000000000000000000000000000081526004016139ed90614ede565b60405180910390fd5b600d60009054906101000a900473ffffffffffffffffffffffffffffffffffffffff1673ffffffffffffffffffffffffffffffffffffffff1663aa5ac585826040518263ffffffff1660e01b8152600401613a519190614137565b600060405180830381600087803b158015613a6b57600080fd5b505af1158015613a7f573d6000803e3d6000fd5b50505050806008819055506001600960006101000a81548160ff02191690831515021790555050565b600073ffffffffffffffffffffffffffffffffffffffff1660008054906101000a900473ffffffffffffffffffffffffffffffffffffffff1673ffffffffffffffffffffffffffffffffffffffff1614613b37576040517f08c379a0000000000000000000000000000000000000000000000000000000008152600401613b2e90614fb6565b60405180910390fd5b846000806101000a81548173ffffffffffffffffffffffffffffffffffffffff021916908373ffffffffffffffffffffffffffffffffffffffff160217905550610800600c60006101000a81548173ffffffffffffffffffffffffffffffffffffffff021916908373ffffffffffffffffffffffffffffffffffffffff16021790555081601160006101000a81548173ffffffffffffffffffffffffffffffffffffffff021916908373ffffffffffffffffffffffffffffffffffffffff16021790555080600160146101000a81548160ff021916908315150217905550600160149054906101000a900460ff1615613cb35782600360006101000a81548173ffffffffffffffffffffffffffffffffffffffff021916908373ffffffffffffffffffffffffffffffffffffffff160217905550610807600d60006101000a81548173ffffffffffffffffffffffffffffffffffffffff021916908373ffffffffffffffffffffffffffffffffffffffff160217905550613cf5565b83600260006101000a81548173ffffffffffffffffffffffffffffffffffffffff021916908373ffffffffffffffffffffffffffffffffffffffff1602179055505b6001601160146101000a81548160ff0219169083151502179055505050505050565b600f8060000154908060010154905082565b60008183613d379190615005565b905092915050565b60008183613d4d919061492f565b905092915050565b80471015613d98576040517f08c379a0000000000000000000000000000000000000000000000000000000008152600401613d8f90615082565b60405180910390fd5b60008273ffffffffffffffffffffffffffffffffffffffff1682604051613dbe906150d3565b60006040518083038185875af1925050503d8060008114613dfb576040519150601f19603f3d011682016040523d82523d6000602084013e613e00565b606091505b5050905080613e44576040517f08c379a0000000000000000000000000000000000000000000000000000000008152600401613e3b9061515a565b60405180910390fd5b505050565b60008183613e57919061517a565b905092915050565b60008183613e6d919061448f565b905092915050565b600080fd5b600073ffffffffffffffffffffffffffffffffffffffff82169050919050565b6000613ea582613e7a565b9050919050565b613eb581613e9a565b8114613ec057600080fd5b50565b600081519050613ed281613eac565b92915050565b600060208284031215613eee57613eed613e75565b5b6000613efc84828501613ec3565b91505092915050565b60008115159050919050565b613f1a81613f05565b82525050565b6000602082019050613f356000830184613f11565b92915050565b6000819050919050565b613f4e81613f3b565b8114613f5957600080fd5b50565b600081359050613f6b81613f45565b92915050565b60008060408385031215613f8857613f87613e75565b5b6000613f9685828601613f5c565b9250506020613fa785828601613f5c565b9150509250929050565b6000819050919050565b613fc481613fb1565b82525050565b6000602082019050613fdf6000830184613fbb565b92915050565b6000819050919050565b600061400a61400561400084613e7a565b613fe5565b613e7a565b9050919050565b600061401c82613fef565b9050919050565b600061402e82614011565b9050919050565b61403e81614023565b82525050565b60006020820190506140596000830184614035565b92915050565b61406881613fb1565b811461407357600080fd5b50565b6000813590506140858161405f565b92915050565b6000602082840312156140a1576140a0613e75565b5b60006140af84828501614076565b91505092915050565b6140c181613e9a565b82525050565b600060c0820190506140dc6000830189613fbb565b6140e96020830188613fbb565b6140f66040830187613fbb565b6141036060830186613fbb565b61411060808301856140b8565b61411d60a0830184613f11565b979650505050505050565b61413181613f3b565b82525050565b600060208201905061414c6000830184614128565b92915050565b600061415d82614011565b9050919050565b61416d81614152565b82525050565b60006020820190506141886000830184614164565b92915050565b60006020820190506141a360008301846140b8565b92915050565b6000813590506141b881613eac565b92915050565b600080600080600060a086880312156141da576141d9613e75565b5b60006141e8888289016141a9565b95505060206141f988828901614076565b945050604061420a88828901614076565b935050606061421b88828901614076565b925050608061422c88828901614076565b9150509295509295909350565b60006020828403121561424f5761424e613e75565b5b600061425d84828501613f5c565b91505092915050565b61426f81613f05565b811461427a57600080fd5b50565b60008135905061428c81614266565b92915050565b600080600080600060a086880312156142ae576142ad613e75565b5b60006142bc888289016141a9565b95505060206142cd888289016141a9565b94505060406142de888289016141a9565b93505060606142ef888289016141a9565b92505060806143008882890161427d565b9150509295509295909350565b60006040820190506143226000830185613fbb565b61432f6020830184613fbb565b9392505050565b600082825260208201905092915050565b7f416374697661746544656c656761746f723a20696e666f20697320696c6c656760008201527f616c210000000000000000000000000000000000000000000000000000000000602082015250565b60006143a3602383614336565b91506143ae82614347565b604082019050919050565b600060208201905081810360008301526143d281614396565b9050919050565b6000815190506143e88161405f565b92915050565b60006020828403121561440457614403613e75565b5b6000614412848285016143d9565b91505092915050565b600060808201905061443060008301876140b8565b61443d6020830186613fbb565b61444a6040830185613fbb565b6144576060830184613fbb565b95945050505050565b7f4e487b7100000000000000000000000000000000000000000000000000000000600052601160045260246000fd5b600061449a82613fb1565b91506144a583613fb1565b9250827fffffffffffffffffffffffffffffffffffffffffffffffffffffffffffffffff038211156144da576144d9614460565b5b828201905092915050565b7f75706461746544656c656761746f723a206e6f742064656c656761746f72206f60008201527f7220636f6c6c61746f7221000000000000000000000000000000000000000000602082015250565b6000614541602b83614336565b915061454c826144e5565b604082019050919050565b6000602082019050818103600083015261457081614534565b9050919050565b7f75706461746544656c656761746f723a20696e666f20697320696c6c6567616c60008201527f2100000000000000000000000000000000000000000000000000000000000000602082015250565b60006145d3602183614336565b91506145de82614577565b604082019050919050565b60006020820190508181036000830152614602816145c6565b9050919050565b600060408201905061461e60008301856140b8565b61462b6020830184613fbb565b9392505050565b7f73656e645265776172643a206e6f742062696e64204173736f63696174696f6e60008201527f2100000000000000000000000000000000000000000000000000000000000000602082015250565b600061468e602183614336565b915061469982614632565b604082019050919050565b600060208201905081810360008301526146bd81614681565b9050919050565b7f73656e645265776172643a2062616c616e6365206973206e6f7420656e6f756760008201527f6821000000000000000000000000000000000000000000000000000000000000602082015250565b6000614720602283614336565b915061472b826146c4565b604082019050919050565b6000602082019050818103600083015261474f81614713565b9050919050565b7f4e6f74206d616e6167656d656e74210000000000000000000000000000000000600082015250565b600061478c600f83614336565b915061479782614756565b602082019050919050565b600060208201905081810360008301526147bb8161477f565b9050919050565b7f4173736f63696174696f6e206e6f742062696e64656421000000000000000000600082015250565b60006147f8601783614336565b9150614803826147c2565b602082019050919050565b60006020820190508181036000830152614827816147eb565b9050919050565b60006040820190506148436000830185614128565b6148506020830184614128565b9392505050565b7f4661756365743a204c4f434b4544210000000000000000000000000000000000600082015250565b600061488d600f83614336565b915061489882614857565b602082019050919050565b600060208201905081810360008301526148bc81614880565b9050919050565b7f6e6f742064656c656761746f72206f7220636f6c6c61746f7221000000000000600082015250565b60006148f9601a83614336565b9150614904826148c3565b602082019050919050565b60006020820190508181036000830152614928816148ec565b9050919050565b600061493a82613fb1565b915061494583613fb1565b9250817fffffffffffffffffffffffffffffffffffffffffffffffffffffffffffffffff048311821515161561497e5761497d614460565b5b828202905092915050565b600061499482613fb1565b91507fffffffffffffffffffffffffffffffffffffffffffffffffffffffffffffffff8214156149c7576149c6614460565b5b600182019050919050565b7f7265636f7264526577617264496e666f3a206e6f742064656c656761746f722060008201527f6f7220636f6c6c61746f72210000000000000000000000000000000000000000602082015250565b6000614a2e602c83614336565b9150614a39826149d2565b604082019050919050565b60006020820190508181036000830152614a5d81614a21565b9050919050565b7f7265636f7264526577617264496e666f3a2072644461746520697320696c6c6560008201527f67616c2100000000000000000000000000000000000000000000000000000000602082015250565b6000614ac0602483614336565b9150614acb82614a64565b604082019050919050565b60006020820190508181036000830152614aef81614ab3565b9050919050565b7f6e6f742079657420726561636865642100000000000000000000000000000000600082015250565b6000614b2c601083614336565b9150614b3782614af6565b602082019050919050565b60006020820190508181036000830152614b5b81614b1f565b9050919050565b6000604082019050614b7760008301856140b8565b614b8460208301846140b8565b9392505050565b600081519050614b9a81614266565b92915050565b600060208284031215614bb657614bb5613e75565b5b6000614bc484828501614b8b565b91505092915050565b6000606082019050614be260008301866140b8565b614bef6020830185613fbb565b614bfc6040830184613fbb565b949350505050565b7f7a65726f496e636f6d6550756e6973683a206e6f742064656c656761746f722060008201527f206f7220636f6c6c61746f722100000000000000000000000000000000000000602082015250565b6000614c60602d83614336565b9150614c6b82614c04565b604082019050919050565b60006020820190508181036000830152614c8f81614c53565b9050919050565b7f7a65726f496e636f6d6550756e6973683a2070756e697368436f756e7420697360008201527f206e6f7420656e6f756768210000000000000000000000000000000000000000602082015250565b6000614cf2602c83614336565b9150614cfd82614c96565b604082019050919050565b60006020820190508181036000830152614d2181614ce5565b9050919050565b7f7365744c65617365496e666f3a20706572696f6420697320696c6c6567616c21600082015250565b6000614d5e602083614336565b9150614d6982614d28565b602082019050919050565b60006020820190508181036000830152614d8d81614d51565b9050919050565b7f7365744c65617365496e666f3a206d73672e73656e64657220697320696c6c6560008201527f67616c2100000000000000000000000000000000000000000000000000000000602082015250565b6000614df0602483614336565b9150614dfb82614d94565b604082019050919050565b60006020820190508181036000830152614e1f81614de3565b9050919050565b7f4173736f63696174696f6e2062696e6465642100000000000000000000000000600082015250565b6000614e5c601383614336565b9150614e6782614e26565b602082019050919050565b60006020820190508181036000830152614e8b81614e4f565b9050919050565b7f62616c616e6365206e6f7420656e6f7567682100000000000000000000000000600082015250565b6000614ec8601383614336565b9150614ed382614e92565b602082019050919050565b60006020820190508181036000830152614ef781614ebb565b9050919050565b7f6e6f7420636f6c6c61746f722100000000000000000000000000000000000000600082015250565b6000614f34600d83614336565b9150614f3f82614efe565b602082019050919050565b60006020820190508181036000830152614f6381614f27565b9050919050565b7f49676f7665726e20736574656421000000000000000000000000000000000000600082015250565b6000614fa0600e83614336565b9150614fab82614f6a565b602082019050919050565b60006020820190508181036000830152614fcf81614f93565b9050919050565b7f4e487b7100000000000000000000000000000000000000000000000000000000600052601260045260246000fd5b600061501082613fb1565b915061501b83613fb1565b92508261502b5761502a614fd6565b5b828204905092915050565b7f416464726573733a20696e73756666696369656e742062616c616e6365000000600082015250565b600061506c601d83614336565b915061507782615036565b602082019050919050565b6000602082019050818103600083015261509b8161505f565b9050919050565b600081905092915050565b50565b60006150bd6000836150a2565b91506150c8826150ad565b600082019050919050565b60006150de826150b0565b9150819050919050565b7f416464726573733a20756e61626c6520746f2073656e642076616c75652c207260008201527f6563697069656e74206d61792068617665207265766572746564000000000000602082015250565b6000615144603a83614336565b915061514f826150e8565b604082019050919050565b6000602082019050818103600083015261517381615137565b9050919050565b600061518582613fb1565b915061519083613fb1565b9250828210156151a3576151a2614460565b5b82820390509291505056fea26469706673582212201147206e1b1d6e24d8a5db58b6b6518909f9bd2996a8a98fda36d51efc7acce564736f6c634300080c0033",
  "immutableReferences": {},
  "source": "// SPDX-License-Identifier: GPL-3.0-only\r\npragma solidity ^0.8.0;\r\nimport \"./StakingInterface.sol\";\r\nimport \"./AuthorMappingInterface.sol\";\r\nimport \"@openzeppelin/contracts/utils/math/SafeMath.sol\";\r\nimport \"@openzeppelin/contracts/utils/Address.sol\";\r\n\r\ninterface IAirdrop{\r\n    function zeroIncomePunish(uint _leaseDate,uint256 _amount) external;\r\n    function unlockLeaseMargin(\r\n        address _account,\r\n        uint _leaseDate,\r\n        uint256 _amount\r\n    ) external;\r\n}\r\n\r\ninterface IGovernance{\r\n    function getRewardDownLimit() external  view returns(uint);\r\n    function getZeroTimeLimit() external  view returns(uint); \r\n    function stkTokenAddr() external view returns (address);\r\n    function retTokenAddr() external view returns (address);\r\n    function rewardAddr() external view returns (address);\r\n    function authorAmount() external view returns(uint256);\r\n    function blockHeight() external  view returns(uint);\r\n    function getCollatorTechFee() external  view returns(uint);\r\n    function getDaoTechFee() external  view returns(uint);\r\n    function ownerAddress() external view returns (address);\r\n}\r\n\r\ncontract Faucet{\r\n    using SafeMath for uint256;\r\n\r\n    IGovernance public Igovern;\r\n    IAirdrop public Iairdrop;\r\n    \r\n    //\r\n    bool public faucetType;//\r\n    //(faucetType)\r\n    address public collatorAddr;\r\n    //\r\n    address public techAddr;\r\n    //\r\n    mapping(uint => uint) public leaseDates;\r\n    //\r\n    uint256 public leaseTotal = 0;\r\n    //\r\n    bool public bstate = false;\r\n    //\r\n    uint256 public leaveNumber = 0;\r\n    //nimbusId\r\n    bytes32 public nimbusId;\r\n    //association\r\n    bool public associationFlag = false;\r\n    //peroid\r\n    uint public constant dayLen = 30;\r\n    \r\n    //\r\n    uint private len = 0;\r\n    //\r\n    struct LeaseInfo{\r\n        uint period;//:130260\r\n        uint256 amount;//\r\n        uint256 marginAmount;//\r\n        uint256 number;//\r\n        address reddeemAddr;//\r\n        bool bflag;//\r\n    }\r\n    mapping(uint => LeaseInfo) public leaseInfos;\r\n    //\r\n    address private constant precompileAddress = 0x0000000000000000000000000000000000000800;\r\n    address private constant precompileAuthorMappingAddr = 0x0000000000000000000000000000000000000807;\r\n    //\r\n    ParachainStaking private staking;\r\n    AuthorMapping private authorMapping;\r\n    //\r\n    uint punishCount = 0;\r\n    //()\r\n    struct DayRewardInfo{\r\n        uint rdDate;//\r\n        uint256 rdamount;//\r\n    }\r\n    DayRewardInfo public dayRewardInfo;\r\n    ///\r\n    address public owner;\r\n    //lock\r\n    bool private unlocked = true;\r\n\r\n    constructor (){\r\n    }\r\n\r\n    //\r\n    function initialize (\r\n        address _governAddr,\r\n        address _collatorAddr,\r\n        address _techAddr,\r\n        address _owner,\r\n        bool _faucetType\r\n    ) external{\r\n        require(address(Igovern) == address(0),'Igovern seted!');\r\n        Igovern = IGovernance(_governAddr);\r\n        staking = ParachainStaking(precompileAddress);\r\n        owner = _owner;\r\n        faucetType = _faucetType;\r\n        if(faucetType){\r\n            techAddr = _techAddr;\r\n            authorMapping = AuthorMapping(precompileAuthorMappingAddr);\r\n        }else{\r\n            collatorAddr = _collatorAddr;\r\n        }\r\n        //constant\r\n        unlocked = true;\r\n    }\r\n\r\n    fallback () external payable{}\r\n\r\n    receive () external payable{\r\n        //PoolPool\r\n        if(Igovern.stkTokenAddr() == msg.sender){\r\n            if(bstate){\r\n                ///\r\n                ActivateFaucet();\r\n            }else{\r\n                ///\r\n                updateFaucet();\r\n            }\r\n        }\r\n    }\r\n\r\n    modifier isOwner() { \r\n        require(msg.sender == owner,'Not management!');\r\n        _;\r\n    }\r\n\r\n    modifier lock() {\r\n        require(unlocked, 'Faucet: LOCKED!');\r\n        unlocked = false;\r\n        _;\r\n        unlocked = true;\r\n    }\r\n\r\n    ///\r\n    function ActivateFaucet() private {\r\n        uint leaseDate = block.timestamp.div(24 * 60 * 60); \r\n        LeaseInfo memory info = leaseInfos[leaseDate];\r\n        require(info.bflag && info.amount > 0 && address(this).balance >= info.amount,'ActivateDelegator: info is illegal!');\r\n        //\r\n        if(faucetType){\r\n            staking.join_candidates(info.amount, staking.candidate_count());\r\n        }else{\r\n            staking.delegate(collatorAddr, info.amount, staking.candidate_delegation_count(collatorAddr), staking.delegator_delegation_count(address(this)));\r\n        }\r\n        leaseTotal += info.amount;\r\n        bstate = true;\r\n    }\r\n\r\n    //\r\n    function updateFaucet() private {\r\n        require(bstate,'updateDelegator: not delegator or collator!');\r\n        uint leaseDate = block.timestamp.div(24 * 60 * 60); \r\n        LeaseInfo memory info = leaseInfos[leaseDate];\r\n        require(info.bflag && info.amount > 0 && address(this).balance >= info.amount,'updateDelegator: info is illegal!');\r\n        //\r\n        if(faucetType){\r\n            staking.candidate_bond_more(info.amount);\r\n        }else{\r\n            staking.delegator_bond_more(collatorAddr, info.amount);\r\n        }\r\n        leaseTotal += info.amount;\r\n    }\r\n\r\n    //,_amount_marginAmountWei\r\n    function setLeaseInfo(\r\n        address _reddeemAddr,\r\n        uint _leaseDate,\r\n        uint _period,\r\n        uint256 _amount,\r\n        uint256 _marginAmount\r\n    ) public{\r\n        require(_period > 0,'setLeaseInfo: period is illegal!');\r\n        require(Igovern.stkTokenAddr() == msg.sender,'setLeaseInfo: msg.sender is illegal!');//Pool\r\n        LeaseInfo memory info = leaseInfos[_leaseDate];\r\n        if(info.period == 0){\r\n            leaseDates[len] = _leaseDate;\r\n            len += 1;\r\n        }\r\n        if(info.bflag){\r\n            info.amount = info.amount.add(_amount);\r\n            info.marginAmount = info.marginAmount.add(_marginAmount);\r\n        }else{\r\n            info.amount = _amount;\r\n            info.marginAmount = _marginAmount;\r\n            info.bflag = true;\r\n        }\r\n        info.period = _period;\r\n        info.number = 0;\r\n        info.reddeemAddr = _reddeemAddr;\r\n        leaseInfos[_leaseDate] = info; \r\n    }\r\n\r\n    //\r\n    function sendReward() public{\r\n        require(associationFlag,'sendReward: not bind Association!');\r\n        require(address(this).balance >= Igovern.getRewardDownLimit(),'sendReward: balance is not enough!');\r\n        uint256 daoFee = address(this).balance.mul(Igovern.getDaoTechFee()).div(100);\r\n        Address.sendValue(payable(Igovern.ownerAddress()), daoFee);\r\n        if(faucetType){\r\n            //\r\n            uint256 techFee = address(this).balance.mul(Igovern.getCollatorTechFee()).div(100);\r\n            Address.sendValue(payable(techAddr), techFee);\r\n            Address.sendValue(payable(Igovern.rewardAddr()), address(this).balance.sub(techFee).sub(daoFee));\r\n        }else{\r\n            Address.sendValue(payable(Igovern.rewardAddr()), address(this).balance.sub(daoFee));\r\n        }\r\n    }\r\n\r\n    //\r\n    function recordRewardInfo() public{\r\n        require(bstate,'recordRewardInfo: not delegator or collator!');\r\n        uint rdDate = block.timestamp.div(24 * 60 * 60); \r\n        require(dayRewardInfo.rdDate < rdDate,'recordRewardInfo: rdDate is illegal!');\r\n        if(dayRewardInfo.rdamount == address(this).balance){\r\n            punishCount += rdDate.sub(dayRewardInfo.rdDate);\r\n        }\r\n        dayRewardInfo.rdDate = rdDate;\r\n        dayRewardInfo.rdamount = address(this).balance;\r\n    }\r\n\r\n    //\r\n    function zeroIncomePunish() public lock{\r\n        require(bstate,'zeroIncomePunish: not delegator  or collator!');\r\n        require(punishCount >= Igovern.getZeroTimeLimit(),'zeroIncomePunish: punishCount is not enough!');\r\n        Iairdrop = IAirdrop(Igovern.retTokenAddr());\r\n        for(uint i = 0;i < len; i++){\r\n            uint leaseDate = leaseDates[i];\r\n            LeaseInfo memory info = leaseInfos[leaseDate];\r\n            if(info.bflag){\r\n                info.bflag = false;\r\n                Iairdrop.zeroIncomePunish(leaseDate,info.marginAmount);\r\n            }\r\n        }\r\n        //\r\n        bstate = false;\r\n        leaveNumber = block.number;\r\n        if(faucetType){\r\n            staking.schedule_leave_candidates(staking.candidate_count());\r\n        }else{\r\n            staking.schedule_leave_delegators();\r\n        }        \r\n    }\r\n\r\n    //\r\n    function scheduleRedeemStake() public lock{\r\n        require(bstate,'not delegator or collator!');\r\n        //\r\n        for(uint i = 0;i < len; i++){\r\n            uint leaseDate = leaseDates[i];\r\n            LeaseInfo memory info = leaseInfos[leaseDate];\r\n            if(info.bflag && leaseDate.add(info.period * dayLen) <= block.timestamp.div(24 * 60 * 60)){\r\n                //\r\n                if(leaseTotal.sub(info.amount) < staking.min_delegation()){\r\n                    bstate = false;\r\n                    leaveNumber = block.number;\r\n                    if(faucetType){\r\n                        staking.schedule_leave_candidates(staking.candidate_count());\r\n                    }else{\r\n                        staking.schedule_leave_delegators();\r\n                    }\r\n                }else{\r\n                    info.number = block.number;\r\n                    if(faucetType){\r\n                        staking.schedule_candidate_bond_less(info.amount);\r\n                    }else{\r\n                        staking.schedule_delegator_bond_less(collatorAddr, info.amount);\r\n                    }                        \r\n                }\r\n                break;\r\n            }\r\n        }\r\n    }\r\n    //Pool\r\n    function executeRedeemStake() public lock{\r\n        if(leaveNumber > 0){\r\n            //\r\n            require(leaveNumber.add(Igovern.blockHeight()) <= block.number,'not yet reached!');\r\n            if(faucetType){\r\n                //\r\n\r\n                staking.execute_leave_candidates(address(this),staking.candidate_delegation_count(address(this)));\r\n                associationFlag = false;\r\n                leaveNumber = block.number;\r\n                authorMapping.clear_association(nimbusId);\r\n            }else{\r\n                leaveNumber = 0;\r\n                //\r\n                if(staking.delegation_request_is_pending(address(this), collatorAddr)){\r\n                    staking.execute_leave_delegators(address(this),staking.delegator_delegation_count(address(this)));\r\n                }                \r\n            }\r\n            Address.sendValue(payable(Igovern.stkTokenAddr()), leaseTotal);\r\n            Address.sendValue(payable(Igovern.rewardAddr()), address(this).balance.sub(leaseTotal));\r\n            for(uint i = 0;i < len; i++){\r\n                uint leaseDate = leaseDates[i];\r\n                LeaseInfo memory info = leaseInfos[leaseDate];\r\n                if(info.bflag){\r\n                    info.bflag = false;\r\n                    Iairdrop.unlockLeaseMargin(info.reddeemAddr,leaseDate,info.marginAmount);\r\n                }\r\n            }\r\n        }else{\r\n            for(uint i = 0;i < len; i++){\r\n                uint leaseDate = leaseDates[i];\r\n                LeaseInfo memory info = leaseInfos[leaseDate];\r\n                if(info.bflag && info.number >0){\r\n                    info.bflag = false;\r\n                    //\r\n                    require(info.number.add(Igovern.blockHeight()) <= block.number,'not yet reached!');\r\n                    if(faucetType){\r\n                        //\r\n\r\n                        staking.execute_candidate_bond_less(address(this));\r\n                    }else {\r\n                        //\r\n                        if(staking.delegation_request_is_pending(address(this), collatorAddr)){\r\n                            staking.schedule_delegator_bond_less(collatorAddr, info.amount);\r\n                        }                        \r\n                    }\r\n                    Address.sendValue(payable(Igovern.stkTokenAddr()), info.amount);\r\n                    leaseTotal = leaseTotal.sub(info.amount);\r\n                    Iairdrop.unlockLeaseMargin(info.reddeemAddr,leaseDate,info.marginAmount);\r\n                    break;\r\n                }\r\n            }\r\n        }\r\n    }\r\n\r\n    //NimbusId()\r\n    function addAssociation(bytes32 newNimbusId) public isOwner(){\r\n        require(faucetType && bstate,'not collator!');\r\n        require(address(this).balance >= Igovern.authorAmount(),'balance not enough!');\r\n        authorMapping.add_association(newNimbusId);\r\n        nimbusId = newNimbusId;\r\n        associationFlag = true;\r\n    }\r\n\r\n    //NimbusId()\r\n    function updateAssociation(bytes32 oldNimbusId,bytes32 newNimbusId) public isOwner(){\r\n        require(associationFlag,'Association not binded!');\r\n        authorMapping.update_association(oldNimbusId,newNimbusId);\r\n        nimbusId = newNimbusId;\r\n    }\r\n\r\n    // //key()\r\n    // function registerKeys(bytes32 authorId,bytes32 keys) public isOwner(){\r\n    //     require(associationFlag,'Association not binded!');\r\n    //     authorMapping.register_keys(authorId,keys);\r\n    // }\r\n\r\n    // //key()\r\n    // function setKeys(\r\n    //     bytes32 oldAuthorId,\r\n    //     bytes32 newAuthorId,\r\n    //     bytes32 newKeys\r\n    // ) public isOwner(){\r\n    //     require(associationFlag,'Association not binded!');\r\n    //     authorMapping.set_keys(oldAuthorId,newAuthorId,newKeys);\r\n    // }\r\n\r\n    //authorid()\r\n    function redemmAssociation() public{\r\n        require(faucetType && !associationFlag,'Association binded!');\r\n        require(address(this).balance >= Igovern.authorAmount(),'balance not enough!');\r\n        //\r\n        require(leaveNumber.add(Igovern.blockHeight()) <= block.number,'not yet reached!');\r\n        leaveNumber = 0;\r\n        Address.sendValue(payable(Igovern.stkTokenAddr()), Igovern.authorAmount());\r\n    }\r\n\r\n    //token\r\n    function balance() public view returns(uint256){\r\n        return address(this).balance;\r\n    }\r\n}",
  "sourcePath": "D:\\\\StakeFinance\\StakeFinance\\truffle-dev\\contracts\\Faucet.sol",
  "compiler": {
    "name": "solc",
    "version": "0.8.12+commit.f00d7308.Emscripten.clang"
  },
  "schemaVersion": "3.4.5",
  "updatedAt": "2022-04-18T06:54:25.108Z",
  "devdoc": {
    "kind": "dev",
    "methods": {},
    "version": 1
  },
  "userdoc": {
    "kind": "user",
    "methods": {},
    "version": 1
  }
}