{
  "contractName": "Governance",
  "abi": [
    {
      "inputs": [],
      "stateMutability": "nonpayable",
      "type": "constructor"
    },
    {
      "inputs": [],
      "name": "Ipool",
      "outputs": [
        {
          "internalType": "contract IPool",
          "name": "",
          "type": "address"
        }
      ],
      "stateMutability": "view",
      "type": "function"
    },
    {
      "inputs": [],
      "name": "authorAmount",
      "outputs": [
        {
          "internalType": "uint256",
          "name": "",
          "type": "uint256"
        }
      ],
      "stateMutability": "view",
      "type": "function"
    },
    {
      "inputs": [],
      "name": "blockHeight",
      "outputs": [
        {
          "internalType": "uint256",
          "name": "",
          "type": "uint256"
        }
      ],
      "stateMutability": "view",
      "type": "function"
    },
    {
      "inputs": [],
      "name": "collatorTechLimit",
      "outputs": [
        {
          "internalType": "uint256",
          "name": "",
          "type": "uint256"
        }
      ],
      "stateMutability": "view",
      "type": "function"
    },
    {
      "inputs": [],
      "name": "currentNumber",
      "outputs": [
        {
          "internalType": "uint256",
          "name": "",
          "type": "uint256"
        }
      ],
      "stateMutability": "view",
      "type": "function"
    },
    {
      "inputs": [],
      "name": "daoTechLimit",
      "outputs": [
        {
          "internalType": "uint256",
          "name": "",
          "type": "uint256"
        }
      ],
      "stateMutability": "view",
      "type": "function"
    },
    {
      "inputs": [],
      "name": "etherBase",
      "outputs": [
        {
          "internalType": "uint256",
          "name": "",
          "type": "uint256"
        }
      ],
      "stateMutability": "view",
      "type": "function"
    },
    {
      "inputs": [],
      "name": "ownerAddress",
      "outputs": [
        {
          "internalType": "address",
          "name": "",
          "type": "address"
        }
      ],
      "stateMutability": "view",
      "type": "function"
    },
    {
      "inputs": [],
      "name": "retTokenAddr",
      "outputs": [
        {
          "internalType": "address",
          "name": "",
          "type": "address"
        }
      ],
      "stateMutability": "view",
      "type": "function"
    },
    {
      "inputs": [],
      "name": "rewardAddr",
      "outputs": [
        {
          "internalType": "address",
          "name": "",
          "type": "address"
        }
      ],
      "stateMutability": "view",
      "type": "function"
    },
    {
      "inputs": [],
      "name": "stkTokenAddr",
      "outputs": [
        {
          "internalType": "address",
          "name": "",
          "type": "address"
        }
      ],
      "stateMutability": "view",
      "type": "function"
    },
    {
      "inputs": [],
      "name": "voterDownLimit",
      "outputs": [
        {
          "internalType": "uint256",
          "name": "",
          "type": "uint256"
        }
      ],
      "stateMutability": "view",
      "type": "function"
    },
    {
      "inputs": [
        {
          "internalType": "uint256",
          "name": "_authorAmount",
          "type": "uint256"
        },
        {
          "internalType": "uint256",
          "name": "_blockHeight",
          "type": "uint256"
        },
        {
          "internalType": "address",
          "name": "_ownerAddress",
          "type": "address"
        }
      ],
      "name": "initialize",
      "outputs": [],
      "stateMutability": "nonpayable",
      "type": "function"
    },
    {
      "inputs": [
        {
          "internalType": "address",
          "name": "_stkTokenAddr",
          "type": "address"
        }
      ],
      "name": "setStkTokenAddr",
      "outputs": [],
      "stateMutability": "nonpayable",
      "type": "function"
    },
    {
      "inputs": [
        {
          "internalType": "address",
          "name": "_rewardAddr",
          "type": "address"
        }
      ],
      "name": "setRewardAddr",
      "outputs": [],
      "stateMutability": "nonpayable",
      "type": "function"
    },
    {
      "inputs": [
        {
          "internalType": "address",
          "name": "_retTokenAddr",
          "type": "address"
        }
      ],
      "name": "setRetTokenAddr",
      "outputs": [],
      "stateMutability": "nonpayable",
      "type": "function"
    },
    {
      "inputs": [
        {
          "internalType": "uint256",
          "name": "_daoTechFee",
          "type": "uint256"
        }
      ],
      "name": "setDaoTechFee",
      "outputs": [],
      "stateMutability": "nonpayable",
      "type": "function"
    },
    {
      "inputs": [
        {
          "internalType": "uint256",
          "name": "_collatorTechFee",
          "type": "uint256"
        }
      ],
      "name": "setCollatorTechFee",
      "outputs": [],
      "stateMutability": "nonpayable",
      "type": "function"
    },
    {
      "inputs": [
        {
          "internalType": "uint256",
          "name": "_fundsDownLimit",
          "type": "uint256"
        }
      ],
      "name": "setFundsDownLimit",
      "outputs": [],
      "stateMutability": "nonpayable",
      "type": "function"
    },
    {
      "inputs": [
        {
          "internalType": "uint256",
          "name": "_fundsUpLimit",
          "type": "uint256"
        }
      ],
      "name": "setFundsUpLimit",
      "outputs": [],
      "stateMutability": "nonpayable",
      "type": "function"
    },
    {
      "inputs": [
        {
          "internalType": "uint256",
          "name": "_perInvestDownLimit",
          "type": "uint256"
        }
      ],
      "name": "setPerInvestDownLimit",
      "outputs": [],
      "stateMutability": "nonpayable",
      "type": "function"
    },
    {
      "inputs": [
        {
          "internalType": "uint256",
          "name": "_voterProportion",
          "type": "uint256"
        }
      ],
      "name": "setVoterProportion",
      "outputs": [],
      "stateMutability": "nonpayable",
      "type": "function"
    },
    {
      "inputs": [
        {
          "internalType": "uint256",
          "name": "_rewardDownLimit",
          "type": "uint256"
        }
      ],
      "name": "setRewardDownLimit",
      "outputs": [],
      "stateMutability": "nonpayable",
      "type": "function"
    },
    {
      "inputs": [
        {
          "internalType": "uint256",
          "name": "_calTime",
          "type": "uint256"
        }
      ],
      "name": "setCalTime",
      "outputs": [],
      "stateMutability": "nonpayable",
      "type": "function"
    },
    {
      "inputs": [
        {
          "internalType": "uint256",
          "name": "_reserveProportion",
          "type": "uint256"
        }
      ],
      "name": "setReserveProportion",
      "outputs": [],
      "stateMutability": "nonpayable",
      "type": "function"
    },
    {
      "inputs": [
        {
          "internalType": "uint256",
          "name": "_redeemTimeLimit",
          "type": "uint256"
        }
      ],
      "name": "setRedeemTimeLimit",
      "outputs": [],
      "stateMutability": "nonpayable",
      "type": "function"
    },
    {
      "inputs": [
        {
          "internalType": "uint256",
          "name": "_zeroTimeLimit",
          "type": "uint256"
        }
      ],
      "name": "setZeroTimeLimit",
      "outputs": [],
      "stateMutability": "nonpayable",
      "type": "function"
    },
    {
      "inputs": [
        {
          "internalType": "uint256",
          "name": "_marginProportion",
          "type": "uint256"
        }
      ],
      "name": "setMarginProportion",
      "outputs": [],
      "stateMutability": "nonpayable",
      "type": "function"
    },
    {
      "inputs": [
        {
          "internalType": "uint256",
          "name": "_proposalDownLimit",
          "type": "uint256"
        }
      ],
      "name": "setProposalDownLimit",
      "outputs": [],
      "stateMutability": "nonpayable",
      "type": "function"
    },
    {
      "inputs": [
        {
          "internalType": "uint256",
          "name": "_daoTechFee",
          "type": "uint256"
        },
        {
          "internalType": "uint256",
          "name": "_startDate",
          "type": "uint256"
        },
        {
          "internalType": "uint256",
          "name": "_endDate",
          "type": "uint256"
        }
      ],
      "name": "startDTGovern",
      "outputs": [],
      "stateMutability": "nonpayable",
      "type": "function"
    },
    {
      "inputs": [
        {
          "internalType": "uint256",
          "name": "_collatorTechFee",
          "type": "uint256"
        },
        {
          "internalType": "uint256",
          "name": "_startDate",
          "type": "uint256"
        },
        {
          "internalType": "uint256",
          "name": "_endDate",
          "type": "uint256"
        }
      ],
      "name": "startCTGovern",
      "outputs": [],
      "stateMutability": "nonpayable",
      "type": "function"
    },
    {
      "inputs": [
        {
          "internalType": "uint256",
          "name": "_fundsDownLimit",
          "type": "uint256"
        },
        {
          "internalType": "uint256",
          "name": "_startDate",
          "type": "uint256"
        },
        {
          "internalType": "uint256",
          "name": "_endDate",
          "type": "uint256"
        }
      ],
      "name": "startFDLGovern",
      "outputs": [],
      "stateMutability": "nonpayable",
      "type": "function"
    },
    {
      "inputs": [
        {
          "internalType": "uint256",
          "name": "_fundsUpLimit",
          "type": "uint256"
        },
        {
          "internalType": "uint256",
          "name": "_startDate",
          "type": "uint256"
        },
        {
          "internalType": "uint256",
          "name": "_endDate",
          "type": "uint256"
        }
      ],
      "name": "startFULGovern",
      "outputs": [],
      "stateMutability": "nonpayable",
      "type": "function"
    },
    {
      "inputs": [
        {
          "internalType": "uint256",
          "name": "_perInvestDownLimit",
          "type": "uint256"
        },
        {
          "internalType": "uint256",
          "name": "_startDate",
          "type": "uint256"
        },
        {
          "internalType": "uint256",
          "name": "_endDate",
          "type": "uint256"
        }
      ],
      "name": "startPIDLGovern",
      "outputs": [],
      "stateMutability": "nonpayable",
      "type": "function"
    },
    {
      "inputs": [
        {
          "internalType": "uint256",
          "name": "_voterProportion",
          "type": "uint256"
        },
        {
          "internalType": "uint256",
          "name": "_startDate",
          "type": "uint256"
        },
        {
          "internalType": "uint256",
          "name": "_endDate",
          "type": "uint256"
        }
      ],
      "name": "startVPGovern",
      "outputs": [],
      "stateMutability": "nonpayable",
      "type": "function"
    },
    {
      "inputs": [
        {
          "internalType": "uint256",
          "name": "_rewardDownLimit",
          "type": "uint256"
        },
        {
          "internalType": "uint256",
          "name": "_startDate",
          "type": "uint256"
        },
        {
          "internalType": "uint256",
          "name": "_endDate",
          "type": "uint256"
        }
      ],
      "name": "startRDGovern",
      "outputs": [],
      "stateMutability": "nonpayable",
      "type": "function"
    },
    {
      "inputs": [
        {
          "internalType": "uint256",
          "name": "_calTime",
          "type": "uint256"
        },
        {
          "internalType": "uint256",
          "name": "_startDate",
          "type": "uint256"
        },
        {
          "internalType": "uint256",
          "name": "_endDate",
          "type": "uint256"
        }
      ],
      "name": "startCATGovern",
      "outputs": [],
      "stateMutability": "nonpayable",
      "type": "function"
    },
    {
      "inputs": [
        {
          "internalType": "uint256",
          "name": "_reserveProportion",
          "type": "uint256"
        },
        {
          "internalType": "uint256",
          "name": "_startDate",
          "type": "uint256"
        },
        {
          "internalType": "uint256",
          "name": "_endDate",
          "type": "uint256"
        }
      ],
      "name": "startRPGovern",
      "outputs": [],
      "stateMutability": "nonpayable",
      "type": "function"
    },
    {
      "inputs": [
        {
          "internalType": "uint256",
          "name": "_redeemTimeLimit",
          "type": "uint256"
        },
        {
          "internalType": "uint256",
          "name": "_startDate",
          "type": "uint256"
        },
        {
          "internalType": "uint256",
          "name": "_endDate",
          "type": "uint256"
        }
      ],
      "name": "startRTLGovern",
      "outputs": [],
      "stateMutability": "nonpayable",
      "type": "function"
    },
    {
      "inputs": [
        {
          "internalType": "uint256",
          "name": "_zeroTimeLimit",
          "type": "uint256"
        },
        {
          "internalType": "uint256",
          "name": "_startDate",
          "type": "uint256"
        },
        {
          "internalType": "uint256",
          "name": "_endDate",
          "type": "uint256"
        }
      ],
      "name": "startZTLGovern",
      "outputs": [],
      "stateMutability": "nonpayable",
      "type": "function"
    },
    {
      "inputs": [
        {
          "internalType": "uint256",
          "name": "_marginProportion",
          "type": "uint256"
        },
        {
          "internalType": "uint256",
          "name": "_startDate",
          "type": "uint256"
        },
        {
          "internalType": "uint256",
          "name": "_endDate",
          "type": "uint256"
        }
      ],
      "name": "startMPGovern",
      "outputs": [],
      "stateMutability": "nonpayable",
      "type": "function"
    },
    {
      "inputs": [
        {
          "internalType": "uint256",
          "name": "_proposalDownLimit",
          "type": "uint256"
        },
        {
          "internalType": "uint256",
          "name": "_startDate",
          "type": "uint256"
        },
        {
          "internalType": "uint256",
          "name": "_endDate",
          "type": "uint256"
        }
      ],
      "name": "startPDLGovern",
      "outputs": [],
      "stateMutability": "nonpayable",
      "type": "function"
    },
    {
      "inputs": [
        {
          "internalType": "string",
          "name": "_urlPath",
          "type": "string"
        },
        {
          "internalType": "uint256",
          "name": "_startDate",
          "type": "uint256"
        },
        {
          "internalType": "uint256",
          "name": "_endDate",
          "type": "uint256"
        }
      ],
      "name": "startUrlGovern",
      "outputs": [],
      "stateMutability": "nonpayable",
      "type": "function"
    },
    {
      "inputs": [
        {
          "internalType": "uint256",
          "name": "_number",
          "type": "uint256"
        },
        {
          "internalType": "uint256",
          "name": "_state",
          "type": "uint256"
        }
      ],
      "name": "voteTPByNumber",
      "outputs": [],
      "stateMutability": "nonpayable",
      "type": "function"
    },
    {
      "inputs": [
        {
          "internalType": "uint256",
          "name": "_number",
          "type": "uint256"
        },
        {
          "internalType": "uint256",
          "name": "_state",
          "type": "uint256"
        }
      ],
      "name": "voteCTByNumber",
      "outputs": [],
      "stateMutability": "nonpayable",
      "type": "function"
    },
    {
      "inputs": [
        {
          "internalType": "uint256",
          "name": "_number",
          "type": "uint256"
        },
        {
          "internalType": "uint256",
          "name": "_state",
          "type": "uint256"
        }
      ],
      "name": "voteFDLByNumber",
      "outputs": [],
      "stateMutability": "nonpayable",
      "type": "function"
    },
    {
      "inputs": [
        {
          "internalType": "uint256",
          "name": "_number",
          "type": "uint256"
        },
        {
          "internalType": "uint256",
          "name": "_state",
          "type": "uint256"
        }
      ],
      "name": "voteFULByNumber",
      "outputs": [],
      "stateMutability": "nonpayable",
      "type": "function"
    },
    {
      "inputs": [
        {
          "internalType": "uint256",
          "name": "_number",
          "type": "uint256"
        },
        {
          "internalType": "uint256",
          "name": "_state",
          "type": "uint256"
        }
      ],
      "name": "votePIDLByNumber",
      "outputs": [],
      "stateMutability": "nonpayable",
      "type": "function"
    },
    {
      "inputs": [
        {
          "internalType": "uint256",
          "name": "_number",
          "type": "uint256"
        },
        {
          "internalType": "uint256",
          "name": "_state",
          "type": "uint256"
        }
      ],
      "name": "voteVPByNumber",
      "outputs": [],
      "stateMutability": "nonpayable",
      "type": "function"
    },
    {
      "inputs": [
        {
          "internalType": "uint256",
          "name": "_number",
          "type": "uint256"
        },
        {
          "internalType": "uint256",
          "name": "_state",
          "type": "uint256"
        }
      ],
      "name": "voteRDByNumber",
      "outputs": [],
      "stateMutability": "nonpayable",
      "type": "function"
    },
    {
      "inputs": [
        {
          "internalType": "uint256",
          "name": "_number",
          "type": "uint256"
        },
        {
          "internalType": "uint256",
          "name": "_state",
          "type": "uint256"
        }
      ],
      "name": "voteCATByNumber",
      "outputs": [],
      "stateMutability": "nonpayable",
      "type": "function"
    },
    {
      "inputs": [
        {
          "internalType": "uint256",
          "name": "_number",
          "type": "uint256"
        },
        {
          "internalType": "uint256",
          "name": "_state",
          "type": "uint256"
        }
      ],
      "name": "voteRPByNumber",
      "outputs": [],
      "stateMutability": "nonpayable",
      "type": "function"
    },
    {
      "inputs": [
        {
          "internalType": "uint256",
          "name": "_number",
          "type": "uint256"
        },
        {
          "internalType": "uint256",
          "name": "_state",
          "type": "uint256"
        }
      ],
      "name": "voteRTLByNumber",
      "outputs": [],
      "stateMutability": "nonpayable",
      "type": "function"
    },
    {
      "inputs": [
        {
          "internalType": "uint256",
          "name": "_number",
          "type": "uint256"
        },
        {
          "internalType": "uint256",
          "name": "_state",
          "type": "uint256"
        }
      ],
      "name": "voteZTLByNumber",
      "outputs": [],
      "stateMutability": "nonpayable",
      "type": "function"
    },
    {
      "inputs": [
        {
          "internalType": "uint256",
          "name": "_number",
          "type": "uint256"
        },
        {
          "internalType": "uint256",
          "name": "_state",
          "type": "uint256"
        }
      ],
      "name": "voteMPByNumber",
      "outputs": [],
      "stateMutability": "nonpayable",
      "type": "function"
    },
    {
      "inputs": [
        {
          "internalType": "uint256",
          "name": "_number",
          "type": "uint256"
        },
        {
          "internalType": "uint256",
          "name": "_state",
          "type": "uint256"
        }
      ],
      "name": "votePDLByNumber",
      "outputs": [],
      "stateMutability": "nonpayable",
      "type": "function"
    },
    {
      "inputs": [
        {
          "internalType": "uint256",
          "name": "_number",
          "type": "uint256"
        },
        {
          "internalType": "uint256",
          "name": "_state",
          "type": "uint256"
        }
      ],
      "name": "voteURLByNumber",
      "outputs": [],
      "stateMutability": "nonpayable",
      "type": "function"
    },
    {
      "inputs": [],
      "name": "getDaoTechFee",
      "outputs": [
        {
          "internalType": "uint256",
          "name": "",
          "type": "uint256"
        }
      ],
      "stateMutability": "view",
      "type": "function"
    },
    {
      "inputs": [],
      "name": "getCollatorTechFee",
      "outputs": [
        {
          "internalType": "uint256",
          "name": "",
          "type": "uint256"
        }
      ],
      "stateMutability": "view",
      "type": "function"
    },
    {
      "inputs": [],
      "name": "getFundsDownLimit",
      "outputs": [
        {
          "internalType": "uint256",
          "name": "",
          "type": "uint256"
        }
      ],
      "stateMutability": "view",
      "type": "function"
    },
    {
      "inputs": [],
      "name": "getFundsUpLimit",
      "outputs": [
        {
          "internalType": "uint256",
          "name": "",
          "type": "uint256"
        }
      ],
      "stateMutability": "view",
      "type": "function"
    },
    {
      "inputs": [],
      "name": "getPerInvestDownLimit",
      "outputs": [
        {
          "internalType": "uint256",
          "name": "",
          "type": "uint256"
        }
      ],
      "stateMutability": "view",
      "type": "function"
    },
    {
      "inputs": [],
      "name": "getVoterProportion",
      "outputs": [
        {
          "internalType": "uint256",
          "name": "",
          "type": "uint256"
        }
      ],
      "stateMutability": "view",
      "type": "function"
    },
    {
      "inputs": [],
      "name": "getRewardDownLimit",
      "outputs": [
        {
          "internalType": "uint256",
          "name": "",
          "type": "uint256"
        }
      ],
      "stateMutability": "view",
      "type": "function"
    },
    {
      "inputs": [],
      "name": "getCalTime",
      "outputs": [
        {
          "internalType": "uint256",
          "name": "",
          "type": "uint256"
        }
      ],
      "stateMutability": "view",
      "type": "function"
    },
    {
      "inputs": [],
      "name": "getReserveProportion",
      "outputs": [
        {
          "internalType": "uint256",
          "name": "",
          "type": "uint256"
        }
      ],
      "stateMutability": "view",
      "type": "function"
    },
    {
      "inputs": [],
      "name": "getRedeemTimeLimit",
      "outputs": [
        {
          "internalType": "uint256",
          "name": "",
          "type": "uint256"
        }
      ],
      "stateMutability": "view",
      "type": "function"
    },
    {
      "inputs": [],
      "name": "getZeroTimeLimit",
      "outputs": [
        {
          "internalType": "uint256",
          "name": "",
          "type": "uint256"
        }
      ],
      "stateMutability": "view",
      "type": "function"
    },
    {
      "inputs": [],
      "name": "getMarginProportion",
      "outputs": [
        {
          "internalType": "uint256",
          "name": "",
          "type": "uint256"
        }
      ],
      "stateMutability": "view",
      "type": "function"
    },
    {
      "inputs": [],
      "name": "getProposalDownLimit",
      "outputs": [
        {
          "internalType": "uint256",
          "name": "",
          "type": "uint256"
        }
      ],
      "stateMutability": "view",
      "type": "function"
    },
    {
      "inputs": [
        {
          "internalType": "uint256",
          "name": "_number",
          "type": "uint256"
        }
      ],
      "name": "getGovernanceInfo",
      "outputs": [
        {
          "internalType": "uint256",
          "name": "governType",
          "type": "uint256"
        },
        {
          "internalType": "uint256",
          "name": "startDate",
          "type": "uint256"
        },
        {
          "internalType": "uint256",
          "name": "endDate",
          "type": "uint256"
        },
        {
          "internalType": "uint256",
          "name": "uintValue",
          "type": "uint256"
        },
        {
          "internalType": "string",
          "name": "strValue",
          "type": "string"
        },
        {
          "internalType": "uint256",
          "name": "totalVoter",
          "type": "uint256"
        },
        {
          "internalType": "uint256",
          "name": "approveVoter",
          "type": "uint256"
        },
        {
          "internalType": "uint256",
          "name": "opposeVoter",
          "type": "uint256"
        },
        {
          "internalType": "bool",
          "name": "success",
          "type": "bool"
        }
      ],
      "stateMutability": "view",
      "type": "function"
    },
    {
      "inputs": [
        {
          "internalType": "uint256",
          "name": "_number",
          "type": "uint256"
        },
        {
          "internalType": "address",
          "name": "_addr",
          "type": "address"
        }
      ],
      "name": "getGovernanceVote",
      "outputs": [
        {
          "internalType": "uint256",
          "name": "",
          "type": "uint256"
        }
      ],
      "stateMutability": "view",
      "type": "function"
    }
  ],
  "bytecode": "0x6080604052600060125534801561001557600080fd5b506157ed80620000266000396000f3fe608060405234801561001057600080fd5b50600436106104285760003560e01c80638f84aa091161022b578063cd19d25f11610130578063e6164bfb116100b8578063efd043e211610087578063efd043e214610bdf578063f2a1959214610bfb578063f44ff71214610c19578063f47d029814610c37578063f73a967814610c5357610428565b8063e6164bfb14610b6b578063e7f8c70714610b89578063e88d0eb514610ba5578063ecf5ecad14610bc357610428565b8063cf683cab116100ff578063cf683cab14610add578063d1d25fab14610af9578063d41c380514610b17578063d7b74bb614610b33578063dcc40b1d14610b4f57610428565b8063cd19d25f14610a6b578063cdded34f14610a87578063ce302ba414610aa3578063cf2d37b814610ac157610428565b8063b18c2e64116101b3578063b9c0781d11610182578063b9c0781d146109df578063c15045b0146109fb578063c33c383f14610a17578063c783783d14610a33578063ca00b03114610a4f57610428565b8063b18c2e641461096b578063b374befd14610987578063b8324c84146109a5578063b97fb3ae146109c157610428565b8063989a6358116101fa578063989a6358146108d957806398b04c06146108f75780639b4434e8146109155780639c5518e814610931578063a6ab36f21461094f57610428565b80638f84aa09146108635780639054031d1461088157806390e32c0a1461089f57806396434796146108bd57610428565b80635d83565b11610331578063752c7894116102b957806384862faf1161028857806384862faf146107d3578063860df7ea146107f1578063865057eb1461080d57806387e1164f146108295780638e2561921461084757610428565b8063752c78941461076357806377d2e24b1461077f5780637e213a3e1461079b5780638215a17b146107b757610428565b8063667357751161030057806366735775146106d15780636ac61d69146106ed5780636ec136801461070b5780636f1d0422146107275780637015e95e1461074557610428565b80635d83565b146106495780635ee0642d146106795780636549be8314610697578063657100f7146106b357610428565b80632303ced7116103b457806330b6e3661161038357806330b6e366146105bd578063343d17a4146105d9578063459f52e4146105f55780635abc962d146106115780635bc283691461062d57610428565b80632303ced71461052f57806323cc58291461054b5780632a20cc80146105675780632fbfbdb61461059f57610428565b80630eb4682b116103fb5780630eb4682b1461049f57806310c9a73b146104bb578063137df2de146104d75780631eec98f4146104f357806321cec6af1461051157610428565b806306b098881461042d5780630833079e1461044957806308c17a4a1461046557806309664afe14610483575b600080fd5b61044760048036038101906104429190614675565b610c6f565b005b610463600480360381019061045e9190614675565b610c99565b005b61046d610cc3565b60405161047a91906146f6565b60405180910390f35b61049d6004803603810190610498919061473d565b610ce9565b005b6104b960048036038101906104b4919061476a565b610dbe565b005b6104d560048036038101906104d091906147bd565b610eb8565b005b6104f160048036038101906104ec91906147bd565b611070565b005b6104fb6111e4565b60405161050891906147f9565b60405180910390f35b6105196111f0565b60405161052691906147f9565b60405180910390f35b610549600480360381019061054491906147bd565b6111fc565b005b61056560048036038101906105609190614675565b611370565b005b610581600480360381019061057c91906147bd565b61139a565b604051610596999897969594939291906148c8565b60405180910390f35b6105a761150c565b6040516105b491906147f9565b60405180910390f35b6105d760048036038101906105d291906147bd565b611518565b005b6105f360048036038101906105ee919061476a565b61168c565b005b61060f600480360381019061060a91906147bd565b6117ca565b005b61062b6004803603810190610626919061476a565b61193e565b005b6106476004803603810190610642919061476a565b611a38565b005b610663600480360381019061065e919061495c565b611b32565b60405161067091906147f9565b60405180910390f35b610681611b8d565b60405161068e91906147f9565b60405180910390f35b6106b160048036038101906106ac919061476a565b611b99565b005b6106bb611c93565b6040516106c891906147f9565b60405180910390f35b6106eb60048036038101906106e6919061476a565b611c98565b005b6106f5611d92565b60405161070291906147f9565b60405180910390f35b6107256004803603810190610720919061473d565b611d9e565b005b61072f611e73565b60405161073c91906147f9565b60405180910390f35b61074d611e7f565b60405161075a91906146f6565b60405180910390f35b61077d60048036038101906107789190614ad1565b611ea5565b005b6107996004803603810190610794919061473d565b611f91565b005b6107b560048036038101906107b0919061476a565b6120a7565b005b6107d160048036038101906107cc91906147bd565b6121a1565b005b6107db612315565b6040516107e891906147f9565b60405180910390f35b61080b60048036038101906108069190614675565b612321565b005b61082760048036038101906108229190614675565b61234b565b005b610831612375565b60405161083e91906147f9565b60405180910390f35b610861600480360381019061085c919061476a565b612381565b005b61086b6124bf565b60405161087891906146f6565b60405180910390f35b6108896124e5565b60405161089691906147f9565b60405180910390f35b6108a76124f1565b6040516108b491906147f9565b60405180910390f35b6108d760048036038101906108d291906147bd565b6124fd565b005b6108e16126b5565b6040516108ee91906147f9565b60405180910390f35b6108ff6126c1565b60405161090c91906147f9565b60405180910390f35b61092f600480360381019061092a9190614675565b6126c6565b005b6109396126f0565b60405161094691906147f9565b60405180910390f35b61096960048036038101906109649190614b40565b6126f5565b005b610985600480360381019061098091906147bd565b612919565b005b61098f612a8d565b60405161099c91906147f9565b60405180910390f35b6109bf60048036038101906109ba91906147bd565b612a93565b005b6109c9612c07565b6040516109d691906147f9565b60405180910390f35b6109f960048036038101906109f49190614675565b612c13565b005b610a156004803603810190610a109190614675565b612c3d565b005b610a316004803603810190610a2c91906147bd565b612c67565b005b610a4d6004803603810190610a4891906147bd565b612ddb565b005b610a696004803603810190610a6491906147bd565b612f4f565b005b610a856004803603810190610a80919061476a565b6130c3565b005b610aa16004803603810190610a9c9190614675565b613201565b005b610aab61322b565b604051610ab891906147f9565b60405180910390f35b610adb6004803603810190610ad69190614675565b613237565b005b610af76004803603810190610af29190614675565b613261565b005b610b0161328b565b604051610b0e91906146f6565b60405180910390f35b610b316004803603810190610b2c9190614675565b6132b1565b005b610b4d6004803603810190610b489190614675565b6132c3565b005b610b696004803603810190610b64919061476a565b6132ed565b005b610b736133e7565b604051610b8091906147f9565b60405180910390f35b610ba36004803603810190610b9e919061476a565b6133f3565b005b610bad6134ed565b604051610bba91906147f9565b60405180910390f35b610bdd6004803603810190610bd891906147bd565b6134f3565b005b610bf96004803603810190610bf4919061476a565b6136aa565b005b610c036137a4565b604051610c109190614bf2565b60405180910390f35b610c216137ca565b604051610c2e91906147f9565b60405180910390f35b610c516004803603810190610c4c9190614675565b6137d0565b005b610c6d6004803603810190610c68919061476a565b6137f9565b005b600080610c7e600785856138f3565b915091508115610c9357806000600501819055505b50505050565b600080610ca8600e85856138f3565b915091508115610cbd57806000600c01819055505b50505050565b600d60009054906101000a900473ffffffffffffffffffffffffffffffffffffffff1681565b600073ffffffffffffffffffffffffffffffffffffffff16600f60009054906101000a900473ffffffffffffffffffffffffffffffffffffffff1673ffffffffffffffffffffffffffffffffffffffff1614610d7a576040517f08c379a0000000000000000000000000000000000000000000000000000000008152600401610d7190614c59565b60405180910390fd5b80600f60006101000a81548173ffffffffffffffffffffffffffffffffffffffff021916908373ffffffffffffffffffffffffffffffffffffffff16021790555050565b600060020154601760009054906101000a900473ffffffffffffffffffffffffffffffffffffffff1673ffffffffffffffffffffffffffffffffffffffff166318160ddd6040518163ffffffff1660e01b8152600401602060405180830381865afa158015610e31573d6000803e3d6000fd5b505050506040513d601f19601f82011682018060405250810190610e559190614c8e565b1015610e96576040517f08c379a0000000000000000000000000000000000000000000000000000000008152600401610e8d90614d07565b60405180910390fd5b610eb3836040518060200160405280600081525060088585614055565b505050565b601660009054906101000a900473ffffffffffffffffffffffffffffffffffffffff1673ffffffffffffffffffffffffffffffffffffffff163373ffffffffffffffffffffffffffffffffffffffff1614610f48576040517f08c379a0000000000000000000000000000000000000000000000000000000008152600401610f3f90614d73565b60405180910390fd5b600060020154601760009054906101000a900473ffffffffffffffffffffffffffffffffffffffff1673ffffffffffffffffffffffffffffffffffffffff166318160ddd6040518163ffffffff1660e01b8152600401602060405180830381865afa158015610fbb573d6000803e3d6000fd5b505050506040513d601f19601f82011682018060405250810190610fdf9190614c8e565b1061101f576040517f08c379a000000000000000000000000000000000000000000000000000000000815260040161101690614ddf565b60405180910390fd5b6033811015611063576040517f08c379a000000000000000000000000000000000000000000000000000000000815260040161105a90614e4b565b60405180910390fd5b8060006005018190555050565b601660009054906101000a900473ffffffffffffffffffffffffffffffffffffffff1673ffffffffffffffffffffffffffffffffffffffff163373ffffffffffffffffffffffffffffffffffffffff1614611100576040517f08c379a00000000000000000000000000000000000000000000000000000000081526004016110f790614d73565b60405180910390fd5b600060020154601760009054906101000a900473ffffffffffffffffffffffffffffffffffffffff1673ffffffffffffffffffffffffffffffffffffffff166318160ddd6040518163ffffffff1660e01b8152600401602060405180830381865afa158015611173573d6000803e3d6000fd5b505050506040513d601f19601f820116820180604052508101906111979190614c8e565b106111d7576040517f08c379a00000000000000000000000000000000000000000000000000000000081526004016111ce90614ddf565b60405180910390fd5b806000600a018190555050565b60008060040154905090565b60008060020154905090565b601660009054906101000a900473ffffffffffffffffffffffffffffffffffffffff1673ffffffffffffffffffffffffffffffffffffffff163373ffffffffffffffffffffffffffffffffffffffff161461128c576040517f08c379a000000000000000000000000000000000000000000000000000000000815260040161128390614d73565b60405180910390fd5b600060020154601760009054906101000a900473ffffffffffffffffffffffffffffffffffffffff1673ffffffffffffffffffffffffffffffffffffffff166318160ddd6040518163ffffffff1660e01b8152600401602060405180830381865afa1580156112ff573d6000803e3d6000fd5b505050506040513d601f19601f820116820180604052508101906113239190614c8e565b10611363576040517f08c379a000000000000000000000000000000000000000000000000000000000815260040161135a90614ddf565b60405180910390fd5b8060006002018190555050565b60008061137f600885856138f3565b91509150811561139457806000600601819055505b50505050565b60008060008060606000806000806000601360008c8152602001908152602001600020604051806101200160405290816000820154815260200160018201548152602001600282015481526020016003820154815260200160048201805461140190614e9a565b80601f016020809104026020016040519081016040528092919081815260200182805461142d90614e9a565b801561147a5780601f1061144f5761010080835404028352916020019161147a565b820191906000526020600020905b81548152906001019060200180831161145d57829003601f168201915b505050505081526020016005820154815260200160068201548152602001600782015481526020016008820160009054906101000a900460ff1615151515815250509050806000015181602001518260400151836060015184608001518560a001518660c001518760e00151886101000151995099509950995099509950995099509950509193959799909294969850565b60008060050154905090565b601660009054906101000a900473ffffffffffffffffffffffffffffffffffffffff1673ffffffffffffffffffffffffffffffffffffffff163373ffffffffffffffffffffffffffffffffffffffff16146115a8576040517f08c379a000000000000000000000000000000000000000000000000000000000815260040161159f90614d73565b60405180910390fd5b600060020154601760009054906101000a900473ffffffffffffffffffffffffffffffffffffffff1673ffffffffffffffffffffffffffffffffffffffff166318160ddd6040518163ffffffff1660e01b8152600401602060405180830381865afa15801561161b573d6000803e3d6000fd5b505050506040513d601f19601f8201168201806040525081019061163f9190614c8e565b1061167f576040517f08c379a000000000000000000000000000000000000000000000000000000000815260040161167690614ddf565b60405180910390fd5b8060006003018190555050565b600060020154601760009054906101000a900473ffffffffffffffffffffffffffffffffffffffff1673ffffffffffffffffffffffffffffffffffffffff166318160ddd6040518163ffffffff1660e01b8152600401602060405180830381865afa1580156116ff573d6000803e3d6000fd5b505050506040513d601f19601f820116820180604052508101906117239190614c8e565b1015611764576040517f08c379a000000000000000000000000000000000000000000000000000000000815260040161175b90614d07565b60405180910390fd5b60018310156117a8576040517f08c379a000000000000000000000000000000000000000000000000000000000815260040161179f90614f18565b60405180910390fd5b6117c5836040518060200160405280600081525060008585614055565b505050565b601660009054906101000a900473ffffffffffffffffffffffffffffffffffffffff1673ffffffffffffffffffffffffffffffffffffffff163373ffffffffffffffffffffffffffffffffffffffff161461185a576040517f08c379a000000000000000000000000000000000000000000000000000000000815260040161185190614d73565b60405180910390fd5b600060020154601760009054906101000a900473ffffffffffffffffffffffffffffffffffffffff1673ffffffffffffffffffffffffffffffffffffffff166318160ddd6040518163ffffffff1660e01b8152600401602060405180830381865afa1580156118cd573d6000803e3d6000fd5b505050506040513d601f19601f820116820180604052508101906118f19190614c8e565b10611931576040517f08c379a000000000000000000000000000000000000000000000000000000000815260040161192890614ddf565b60405180910390fd5b8060006004018190555050565b600060020154601760009054906101000a900473ffffffffffffffffffffffffffffffffffffffff1673ffffffffffffffffffffffffffffffffffffffff166318160ddd6040518163ffffffff1660e01b8152600401602060405180830381865afa1580156119b1573d6000803e3d6000fd5b505050506040513d601f19601f820116820180604052508101906119d59190614c8e565b1015611a16576040517f08c379a0000000000000000000000000000000000000000000000000000000008152600401611a0d90614d07565b60405180910390fd5b611a33836040518060200160405280600081525060098585614055565b505050565b600060020154601760009054906101000a900473ffffffffffffffffffffffffffffffffffffffff1673ffffffffffffffffffffffffffffffffffffffff166318160ddd6040518163ffffffff1660e01b8152600401602060405180830381865afa158015611aab573d6000803e3d6000fd5b505050506040513d601f19601f82011682018060405250810190611acf9190614c8e565b1015611b10576040517f08c379a0000000000000000000000000000000000000000000000000000000008152600401611b0790614d07565b60405180910390fd5b611b2d836040518060200160405280600081525060028585614055565b505050565b60006014600084815260200190815260200160002060008373ffffffffffffffffffffffffffffffffffffffff1673ffffffffffffffffffffffffffffffffffffffff16815260200190815260200160002054905092915050565b670de0b6b3a764000081565b600060020154601760009054906101000a900473ffffffffffffffffffffffffffffffffffffffff1673ffffffffffffffffffffffffffffffffffffffff166318160ddd6040518163ffffffff1660e01b8152600401602060405180830381865afa158015611c0c573d6000803e3d6000fd5b505050506040513d601f19601f82011682018060405250810190611c309190614c8e565b1015611c71576040517f08c379a0000000000000000000000000000000000000000000000000000000008152600401611c6890614d07565b60405180910390fd5b611c8e8360405180602001604052806000815250600a8585614055565b505050565b600a81565b600060020154601760009054906101000a900473ffffffffffffffffffffffffffffffffffffffff1673ffffffffffffffffffffffffffffffffffffffff166318160ddd6040518163ffffffff1660e01b8152600401602060405180830381865afa158015611d0b573d6000803e3d6000fd5b505050506040513d601f19601f82011682018060405250810190611d2f9190614c8e565b1015611d70576040517f08c379a0000000000000000000000000000000000000000000000000000000008152600401611d6790614d07565b60405180910390fd5b611d8d8360405180602001604052806000815250600b8585614055565b505050565b60008060010154905090565b600073ffffffffffffffffffffffffffffffffffffffff16600e60009054906101000a900473ffffffffffffffffffffffffffffffffffffffff1673ffffffffffffffffffffffffffffffffffffffff1614611e2f576040517f08c379a0000000000000000000000000000000000000000000000000000000008152600401611e2690614f84565b60405180910390fd5b80600e60006101000a81548173ffffffffffffffffffffffffffffffffffffffff021916908373ffffffffffffffffffffffffffffffffffffffff16021790555050565b600080600c0154905090565b600f60009054906101000a900473ffffffffffffffffffffffffffffffffffffffff1681565b600060020154601760009054906101000a900473ffffffffffffffffffffffffffffffffffffffff1673ffffffffffffffffffffffffffffffffffffffff166318160ddd6040518163ffffffff1660e01b8152600401602060405180830381865afa158015611f18573d6000803e3d6000fd5b505050506040513d601f19601f82011682018060405250810190611f3c9190614c8e565b1015611f7d576040517f08c379a0000000000000000000000000000000000000000000000000000000008152600401611f7490614d07565b60405180910390fd5b611f8c600084600f8585614055565b505050565b600073ffffffffffffffffffffffffffffffffffffffff16600d60009054906101000a900473ffffffffffffffffffffffffffffffffffffffff1673ffffffffffffffffffffffffffffffffffffffff1614612022576040517f08c379a000000000000000000000000000000000000000000000000000000000815260040161201990614ff0565b60405180910390fd5b80600d60006101000a81548173ffffffffffffffffffffffffffffffffffffffff021916908373ffffffffffffffffffffffffffffffffffffffff16021790555080601760006101000a81548173ffffffffffffffffffffffffffffffffffffffff021916908373ffffffffffffffffffffffffffffffffffffffff16021790555050565b600060020154601760009054906101000a900473ffffffffffffffffffffffffffffffffffffffff1673ffffffffffffffffffffffffffffffffffffffff166318160ddd6040518163ffffffff1660e01b8152600401602060405180830381865afa15801561211a573d6000803e3d6000fd5b505050506040513d601f19601f8201168201806040525081019061213e9190614c8e565b101561217f576040517f08c379a000000000000000000000000000000000000000000000000000000000815260040161217690614d07565b60405180910390fd5b61219c8360405180602001604052806000815250600e8585614055565b505050565b601660009054906101000a900473ffffffffffffffffffffffffffffffffffffffff1673ffffffffffffffffffffffffffffffffffffffff163373ffffffffffffffffffffffffffffffffffffffff1614612231576040517f08c379a000000000000000000000000000000000000000000000000000000000815260040161222890614d73565b60405180910390fd5b600060020154601760009054906101000a900473ffffffffffffffffffffffffffffffffffffffff1673ffffffffffffffffffffffffffffffffffffffff166318160ddd6040518163ffffffff1660e01b8152600401602060405180830381865afa1580156122a4573d6000803e3d6000fd5b505050506040513d601f19601f820116820180604052508101906122c89190614c8e565b10612308576040517f08c379a00000000000000000000000000000000000000000000000000000000081526004016122ff90614ddf565b60405180910390fd5b8060006007018190555050565b600080600b0154905090565b600080612330600685856138f3565b91509150811561234557806000600401819055505b50505050565b60008061235a600b85856138f3565b91509150811561236f57806000600901819055505b50505050565b60008060000154905090565b600060020154601760009054906101000a900473ffffffffffffffffffffffffffffffffffffffff1673ffffffffffffffffffffffffffffffffffffffff166318160ddd6040518163ffffffff1660e01b8152600401602060405180830381865afa1580156123f4573d6000803e3d6000fd5b505050506040513d601f19601f820116820180604052508101906124189190614c8e565b1015612459576040517f08c379a000000000000000000000000000000000000000000000000000000000815260040161245090614d07565b60405180910390fd5b603383101561249d576040517f08c379a000000000000000000000000000000000000000000000000000000000815260040161249490614e4b565b60405180910390fd5b6124ba836040518060200160405280600081525060078585614055565b505050565b601660009054906101000a900473ffffffffffffffffffffffffffffffffffffffff1681565b60008060070154905090565b60008060080154905090565b601660009054906101000a900473ffffffffffffffffffffffffffffffffffffffff1673ffffffffffffffffffffffffffffffffffffffff163373ffffffffffffffffffffffffffffffffffffffff161461258d576040517f08c379a000000000000000000000000000000000000000000000000000000000815260040161258490614d73565b60405180910390fd5b600060020154601760009054906101000a900473ffffffffffffffffffffffffffffffffffffffff1673ffffffffffffffffffffffffffffffffffffffff166318160ddd6040518163ffffffff1660e01b8152600401602060405180830381865afa158015612600573d6000803e3d6000fd5b505050506040513d601f19601f820116820180604052508101906126249190614c8e565b10612664576040517f08c379a000000000000000000000000000000000000000000000000000000000815260040161265b90614ddf565b60405180910390fd5b600a8110156126a8576040517f08c379a000000000000000000000000000000000000000000000000000000000815260040161269f9061505c565b60405180910390fd5b8060006001018190555050565b60008060090154905090565b603381565b6000806126d5600185856138f3565b9150915081156126ea57806000600101819055505b50505050565b600181565b600073ffffffffffffffffffffffffffffffffffffffff16601660009054906101000a900473ffffffffffffffffffffffffffffffffffffffff1673ffffffffffffffffffffffffffffffffffffffff1614612786576040517f08c379a000000000000000000000000000000000000000000000000000000000815260040161277d906150c8565b60405180910390fd5b6000831180156127965750600082115b6127d5576040517f08c379a00000000000000000000000000000000000000000000000000000000081526004016127cc90615134565b60405180910390fd5b826010819055508160118190555080601660006101000a81548173ffffffffffffffffffffffffffffffffffffffff021916908373ffffffffffffffffffffffffffffffffffffffff16021790555060026000800181905550600c600060010181905550670de0b6b3a7640000600161284e9190615183565b600060020181905550670de0b6b3a7640000624c4b4061286e9190615183565b600060030181905550670de0b6b3a7640000600161288c9190615183565b6000600401819055506033600060050181905550670de0b6b3a7640000600a6128b59190615183565b60006006018190555060016000600701819055506005600060080181905550600160006009018190555060016000600a018190555060016000600b0181905550670de0b6b3a764000061271061290b9190615183565b6000600c0181905550505050565b601660009054906101000a900473ffffffffffffffffffffffffffffffffffffffff1673ffffffffffffffffffffffffffffffffffffffff163373ffffffffffffffffffffffffffffffffffffffff16146129a9576040517f08c379a00000000000000000000000000000000000000000000000000000000081526004016129a090614d73565b60405180910390fd5b600060020154601760009054906101000a900473ffffffffffffffffffffffffffffffffffffffff1673ffffffffffffffffffffffffffffffffffffffff166318160ddd6040518163ffffffff1660e01b8152600401602060405180830381865afa158015612a1c573d6000803e3d6000fd5b505050506040513d601f19601f82011682018060405250810190612a409190614c8e565b10612a80576040517f08c379a0000000000000000000000000000000000000000000000000000000008152600401612a7790614ddf565b60405180910390fd5b8060006006018190555050565b60125481565b601660009054906101000a900473ffffffffffffffffffffffffffffffffffffffff1673ffffffffffffffffffffffffffffffffffffffff163373ffffffffffffffffffffffffffffffffffffffff1614612b23576040517f08c379a0000000000000000000000000000000000000000000000000000000008152600401612b1a90614d73565b60405180910390fd5b600060020154601760009054906101000a900473ffffffffffffffffffffffffffffffffffffffff1673ffffffffffffffffffffffffffffffffffffffff166318160ddd6040518163ffffffff1660e01b8152600401602060405180830381865afa158015612b96573d6000803e3d6000fd5b505050506040513d601f19601f82011682018060405250810190612bba9190614c8e565b10612bfa576040517f08c379a0000000000000000000000000000000000000000000000000000000008152600401612bf190614ddf565b60405180910390fd5b806000600b018190555050565b600080600a0154905090565b600080612c22600d85856138f3565b915091508115612c3757806000600b01819055505b50505050565b600080612c4c600285856138f3565b915091508115612c6157806000600201819055505b50505050565b601660009054906101000a900473ffffffffffffffffffffffffffffffffffffffff1673ffffffffffffffffffffffffffffffffffffffff163373ffffffffffffffffffffffffffffffffffffffff1614612cf7576040517f08c379a0000000000000000000000000000000000000000000000000000000008152600401612cee90614d73565b60405180910390fd5b600060020154601760009054906101000a900473ffffffffffffffffffffffffffffffffffffffff1673ffffffffffffffffffffffffffffffffffffffff166318160ddd6040518163ffffffff1660e01b8152600401602060405180830381865afa158015612d6a573d6000803e3d6000fd5b505050506040513d601f19601f82011682018060405250810190612d8e9190614c8e565b10612dce576040517f08c379a0000000000000000000000000000000000000000000000000000000008152600401612dc590614ddf565b60405180910390fd5b8060006008018190555050565b601660009054906101000a900473ffffffffffffffffffffffffffffffffffffffff1673ffffffffffffffffffffffffffffffffffffffff163373ffffffffffffffffffffffffffffffffffffffff1614612e6b576040517f08c379a0000000000000000000000000000000000000000000000000000000008152600401612e6290614d73565b60405180910390fd5b600060020154601760009054906101000a900473ffffffffffffffffffffffffffffffffffffffff1673ffffffffffffffffffffffffffffffffffffffff166318160ddd6040518163ffffffff1660e01b8152600401602060405180830381865afa158015612ede573d6000803e3d6000fd5b505050506040513d601f19601f82011682018060405250810190612f029190614c8e565b10612f42576040517f08c379a0000000000000000000000000000000000000000000000000000000008152600401612f3990614ddf565b60405180910390fd5b806000600c018190555050565b601660009054906101000a900473ffffffffffffffffffffffffffffffffffffffff1673ffffffffffffffffffffffffffffffffffffffff163373ffffffffffffffffffffffffffffffffffffffff1614612fdf576040517f08c379a0000000000000000000000000000000000000000000000000000000008152600401612fd690614d73565b60405180910390fd5b600060020154601760009054906101000a900473ffffffffffffffffffffffffffffffffffffffff1673ffffffffffffffffffffffffffffffffffffffff166318160ddd6040518163ffffffff1660e01b8152600401602060405180830381865afa158015613052573d6000803e3d6000fd5b505050506040513d601f19601f820116820180604052508101906130769190614c8e565b106130b6576040517f08c379a00000000000000000000000000000000000000000000000000000000081526004016130ad90614ddf565b60405180910390fd5b8060006009018190555050565b600060020154601760009054906101000a900473ffffffffffffffffffffffffffffffffffffffff1673ffffffffffffffffffffffffffffffffffffffff166318160ddd6040518163ffffffff1660e01b8152600401602060405180830381865afa158015613136573d6000803e3d6000fd5b505050506040513d601f19601f8201168201806040525081019061315a9190614c8e565b101561319b576040517f08c379a000000000000000000000000000000000000000000000000000000000815260040161319290614d07565b60405180910390fd5b600a8310156131df576040517f08c379a00000000000000000000000000000000000000000000000000000000081526004016131d69061505c565b60405180910390fd5b6131fc836040518060200160405280600081525060018585614055565b505050565b600080613210600985856138f3565b91509150811561322557806000600701819055505b50505050565b60008060030154905090565b600080613246600c85856138f3565b91509150811561325b57806000600a01819055505b50505050565b600080613270600a85856138f3565b91509150811561328557806000600801819055505b50505050565b600e60009054906101000a900473ffffffffffffffffffffffffffffffffffffffff1681565b6132bd600e83836138f3565b50505050565b6000806132d2600385856138f3565b9150915081156132e757806000600301819055505b50505050565b600060020154601760009054906101000a900473ffffffffffffffffffffffffffffffffffffffff1673ffffffffffffffffffffffffffffffffffffffff166318160ddd6040518163ffffffff1660e01b8152600401602060405180830381865afa158015613360573d6000803e3d6000fd5b505050506040513d601f19601f820116820180604052508101906133849190614c8e565b10156133c5576040517f08c379a00000000000000000000000000000000000000000000000000000000081526004016133bc90614d07565b60405180910390fd5b6133e2836040518060200160405280600081525060038585614055565b505050565b60008060060154905090565b600060020154601760009054906101000a900473ffffffffffffffffffffffffffffffffffffffff1673ffffffffffffffffffffffffffffffffffffffff166318160ddd6040518163ffffffff1660e01b8152600401602060405180830381865afa158015613466573d6000803e3d6000fd5b505050506040513d601f19601f8201168201806040525081019061348a9190614c8e565b10156134cb576040517f08c379a00000000000000000000000000000000000000000000000000000000081526004016134c290614d07565b60405180910390fd5b6134e88360405180602001604052806000815250600c8585614055565b505050565b60105481565b601660009054906101000a900473ffffffffffffffffffffffffffffffffffffffff1673ffffffffffffffffffffffffffffffffffffffff163373ffffffffffffffffffffffffffffffffffffffff1614613583576040517f08c379a000000000000000000000000000000000000000000000000000000000815260040161357a90614d73565b60405180910390fd5b600060020154601760009054906101000a900473ffffffffffffffffffffffffffffffffffffffff1673ffffffffffffffffffffffffffffffffffffffff166318160ddd6040518163ffffffff1660e01b8152600401602060405180830381865afa1580156135f6573d6000803e3d6000fd5b505050506040513d601f19601f8201168201806040525081019061361a9190614c8e565b1061365a576040517f08c379a000000000000000000000000000000000000000000000000000000000815260040161365190614ddf565b60405180910390fd5b600181101561369e576040517f08c379a000000000000000000000000000000000000000000000000000000000815260040161369590614f18565b60405180910390fd5b80600080018190555050565b600060020154601760009054906101000a900473ffffffffffffffffffffffffffffffffffffffff1673ffffffffffffffffffffffffffffffffffffffff166318160ddd6040518163ffffffff1660e01b8152600401602060405180830381865afa15801561371d573d6000803e3d6000fd5b505050506040513d601f19601f820116820180604052508101906137419190614c8e565b1015613782576040517f08c379a000000000000000000000000000000000000000000000000000000000815260040161377990614d07565b60405180910390fd5b61379f8360405180602001604052806000815250600d8585614055565b505050565b601760009054906101000a900473ffffffffffffffffffffffffffffffffffffffff1681565b60115481565b6000806137df600085856138f3565b9150915081156137f3578060008001819055505b50505050565b600060020154601760009054906101000a900473ffffffffffffffffffffffffffffffffffffffff1673ffffffffffffffffffffffffffffffffffffffff166318160ddd6040518163ffffffff1660e01b8152600401602060405180830381865afa15801561386c573d6000803e3d6000fd5b505050506040513d601f19601f820116820180604052508101906138909190614c8e565b10156138d1576040517f08c379a00000000000000000000000000000000000000000000000000000000081526004016138c890614d07565b60405180910390fd5b6138ee836040518060200160405280600081525060068585614055565b505050565b60008060008411613939576040517f08c379a000000000000000000000000000000000000000000000000000000000815260040161393090615229565b60405180910390fd5b6000831180156139495750600383105b613988576040517f08c379a000000000000000000000000000000000000000000000000000000000815260040161397f90615295565b60405180910390fd5b60006013600086815260200190815260200160002060405180610120016040529081600082015481526020016001820154815260200160028201548152602001600382015481526020016004820180546139e190614e9a565b80601f0160208091040260200160405190810160405280929190818152602001828054613a0d90614e9a565b8015613a5a5780601f10613a2f57610100808354040283529160200191613a5a565b820191906000526020600020905b815481529060010190602001808311613a3d57829003601f168201915b505050505081526020016005820154815260200160068201548152602001600782015481526020016008820160009054906101000a900460ff161515151581525050905042816020015111158015613ab6575042816040015110155b613af5576040517f08c379a0000000000000000000000000000000000000000000000000000000008152600401613aec90615327565b60405180910390fd5b85816000015114613b3b576040517f08c379a0000000000000000000000000000000000000000000000000000000008152600401613b3290615393565b60405180910390fd5b60008160a0015111613b82576040517f08c379a0000000000000000000000000000000000000000000000000000000008152600401613b79906153ff565b60405180910390fd5b60006014600087815260200190815260200160002060003373ffffffffffffffffffffffffffffffffffffffff1673ffffffffffffffffffffffffffffffffffffffff1681526020019081526020016000205414613c15576040517f08c379a0000000000000000000000000000000000000000000000000000000008152600401613c0c9061546b565b60405180910390fd5b6000601760009054906101000a900473ffffffffffffffffffffffffffffffffffffffff1673ffffffffffffffffffffffffffffffffffffffff166370a08231336040518263ffffffff1660e01b8152600401613c7291906146f6565b602060405180830381865afa158015613c8f573d6000803e3d6000fd5b505050506040513d601f19601f82011682018060405250810190613cb39190614c8e565b11613cf3576040517f08c379a0000000000000000000000000000000000000000000000000000000008152600401613cea906154d7565b60405180910390fd5b6000613db862015180613daa601760009054906101000a900473ffffffffffffffffffffffffffffffffffffffff1673ffffffffffffffffffffffffffffffffffffffff1663ea8f56b0336040518263ffffffff1660e01b8152600401613d5a91906146f6565b602060405180830381865afa158015613d77573d6000803e3d6000fd5b505050506040513d601f19601f82011682018060405250810190613d9b9190614c8e565b426144e290919063ffffffff16565b6144f890919063ffffffff16565b9050600060070154811015613e02576040517f08c379a0000000000000000000000000000000000000000000000000000000008152600401613df990615543565b60405180910390fd5b846014600088815260200190815260200160002060003373ffffffffffffffffffffffffffffffffffffffff1673ffffffffffffffffffffffffffffffffffffffff168152602001908152602001600020819055506001851415613f2057613f12601760009054906101000a900473ffffffffffffffffffffffffffffffffffffffff1673ffffffffffffffffffffffffffffffffffffffff166370a08231336040518263ffffffff1660e01b8152600401613ebe91906146f6565b602060405180830381865afa158015613edb573d6000803e3d6000fd5b505050506040513d601f19601f82011682018060405250810190613eff9190614c8e565b8360c0015161450e90919063ffffffff16565b8260c0018181525050613fe6565b6002851415613fe557613fdb601760009054906101000a900473ffffffffffffffffffffffffffffffffffffffff1673ffffffffffffffffffffffffffffffffffffffff166370a08231336040518263ffffffff1660e01b8152600401613f8791906146f6565b602060405180830381865afa158015613fa4573d6000803e3d6000fd5b505050506040513d601f19601f82011682018060405250810190613fc89190614c8e565b8360e0015161450e90919063ffffffff16565b8260e00181815250505b5b60006005015461401a8360a0015161400c60648660c0015161452490919063ffffffff16565b6144f890919063ffffffff16565b1061403c57428260400181815250506001826101000190151590811515815250505b8161010001518260600151935093505050935093915050565b428211801561406357508082105b6140a2576040517f08c379a0000000000000000000000000000000000000000000000000000000008152600401614099906155af565b60405180910390fd5b6000601560008581526020019081526020016000205414806140d65750816015600085815260200190815260200160002054105b614115576040517f08c379a000000000000000000000000000000000000000000000000000000000815260040161410c9061561b565b60405180910390fd5b6000600c0154601760009054906101000a900473ffffffffffffffffffffffffffffffffffffffff1673ffffffffffffffffffffffffffffffffffffffff166370a08231336040518263ffffffff1660e01b815260040161417691906146f6565b602060405180830381865afa158015614193573d6000803e3d6000fd5b505050506040513d601f19601f820116820180604052508101906141b79190614c8e565b10156141f8576040517f08c379a00000000000000000000000000000000000000000000000000000000081526004016141ef906156ad565b60405180910390fd5b60006142bd620151806142af601760009054906101000a900473ffffffffffffffffffffffffffffffffffffffff1673ffffffffffffffffffffffffffffffffffffffff1663ea8f56b0336040518263ffffffff1660e01b815260040161425f91906146f6565b602060405180830381865afa15801561427c573d6000803e3d6000fd5b505050506040513d601f19601f820116820180604052508101906142a09190614c8e565b426144e290919063ffffffff16565b6144f890919063ffffffff16565b9050600060070154811015614307576040517f08c379a00000000000000000000000000000000000000000000000000000000081526004016142fe90615543565b60405180910390fd5b6000601760009054906101000a900473ffffffffffffffffffffffffffffffffffffffff1673ffffffffffffffffffffffffffffffffffffffff166318160ddd6040518163ffffffff1660e01b8152600401602060405180830381865afa158015614376573d6000803e3d6000fd5b505050506040513d601f19601f8201168201806040525081019061439a9190614c8e565b90506143a461453a565b6143ba600160125461450e90919063ffffffff16565b60128190555085816000018181525050848160200181815250508381604001818152505087816060018181525050868160800181905250818160a001818152505060008160c001818152505060008160e00181815250506000816101000190151590811515815250508060136000601254815260200190815260200160002060008201518160000155602082015181600101556040820151816002015560608201518160030155608082015181600401908051906020019061447d929190614588565b5060a0820151816005015560c0820151816006015560e082015181600701556101008201518160080160006101000a81548160ff0219169083151502179055509050508360156000888152602001908152602001600020819055505050505050505050565b600081836144f091906156cd565b905092915050565b600081836145069190615730565b905092915050565b6000818361451c9190615761565b905092915050565b600081836145329190615183565b905092915050565b60405180610120016040528060008152602001600081526020016000815260200160008152602001606081526020016000815260200160008152602001600081526020016000151581525090565b82805461459490614e9a565b90600052602060002090601f0160209004810192826145b657600085556145fd565b82601f106145cf57805160ff19168380011785556145fd565b828001600101855582156145fd579182015b828111156145fc5782518255916020019190600101906145e1565b5b50905061460a919061460e565b5090565b5b8082111561462757600081600090555060010161460f565b5090565b6000604051905090565b600080fd5b600080fd5b6000819050919050565b6146528161463f565b811461465d57600080fd5b50565b60008135905061466f81614649565b92915050565b6000806040838503121561468c5761468b614635565b5b600061469a85828601614660565b92505060206146ab85828601614660565b9150509250929050565b600073ffffffffffffffffffffffffffffffffffffffff82169050919050565b60006146e0826146b5565b9050919050565b6146f0816146d5565b82525050565b600060208201905061470b60008301846146e7565b92915050565b61471a816146d5565b811461472557600080fd5b50565b60008135905061473781614711565b92915050565b60006020828403121561475357614752614635565b5b600061476184828501614728565b91505092915050565b60008060006060848603121561478357614782614635565b5b600061479186828701614660565b93505060206147a286828701614660565b92505060406147b386828701614660565b9150509250925092565b6000602082840312156147d3576147d2614635565b5b60006147e184828501614660565b91505092915050565b6147f38161463f565b82525050565b600060208201905061480e60008301846147ea565b92915050565b600081519050919050565b600082825260208201905092915050565b60005b8381101561484e578082015181840152602081019050614833565b8381111561485d576000848401525b50505050565b6000601f19601f8301169050919050565b600061487f82614814565b614889818561481f565b9350614899818560208601614830565b6148a281614863565b840191505092915050565b60008115159050919050565b6148c2816148ad565b82525050565b6000610120820190506148de600083018c6147ea565b6148eb602083018b6147ea565b6148f8604083018a6147ea565b61490560608301896147ea565b81810360808301526149178188614874565b905061492660a08301876147ea565b61493360c08301866147ea565b61494060e08301856147ea565b61494e6101008301846148b9565b9a9950505050505050505050565b6000806040838503121561497357614972614635565b5b600061498185828601614660565b925050602061499285828601614728565b9150509250929050565b600080fd5b600080fd5b7f4e487b7100000000000000000000000000000000000000000000000000000000600052604160045260246000fd5b6149de82614863565b810181811067ffffffffffffffff821117156149fd576149fc6149a6565b5b80604052505050565b6000614a1061462b565b9050614a1c82826149d5565b919050565b600067ffffffffffffffff821115614a3c57614a3b6149a6565b5b614a4582614863565b9050602081019050919050565b82818337600083830152505050565b6000614a74614a6f84614a21565b614a06565b905082815260208101848484011115614a9057614a8f6149a1565b5b614a9b848285614a52565b509392505050565b600082601f830112614ab857614ab761499c565b5b8135614ac8848260208601614a61565b91505092915050565b600080600060608486031215614aea57614ae9614635565b5b600084013567ffffffffffffffff811115614b0857614b0761463a565b5b614b1486828701614aa3565b9350506020614b2586828701614660565b9250506040614b3686828701614660565b9150509250925092565b600080600060608486031215614b5957614b58614635565b5b6000614b6786828701614660565b9350506020614b7886828701614660565b9250506040614b8986828701614728565b9150509250925092565b6000819050919050565b6000614bb8614bb3614bae846146b5565b614b93565b6146b5565b9050919050565b6000614bca82614b9d565b9050919050565b6000614bdc82614bbf565b9050919050565b614bec81614bd1565b82525050565b6000602082019050614c076000830184614be3565b92915050565b7f7265776172644164647220736574656421000000000000000000000000000000600082015250565b6000614c4360118361481f565b9150614c4e82614c0d565b602082019050919050565b60006020820190508181036000830152614c7281614c36565b9050919050565b600081519050614c8881614649565b92915050565b600060208284031215614ca457614ca3614635565b5b6000614cb284828501614c79565b91505092915050565b7f6e6f7420737461727420676f7665726e616e6365210000000000000000000000600082015250565b6000614cf160158361481f565b9150614cfc82614cbb565b602082019050919050565b60006020820190508181036000830152614d2081614ce4565b9050919050565b7f4e6f74206d616e6167656d656e74210000000000000000000000000000000000600082015250565b6000614d5d600f8361481f565b9150614d6882614d27565b602082019050919050565b60006020820190508181036000830152614d8c81614d50565b9050919050565b7f737461727420676f7665726e616e636521000000000000000000000000000000600082015250565b6000614dc960118361481f565b9150614dd482614d93565b602082019050919050565b60006020820190508181036000830152614df881614dbc565b9050919050565b7f5f766f74657250726f706f7274696f6e20697320696c6c6567616c2100000000600082015250565b6000614e35601c8361481f565b9150614e4082614dff565b602082019050919050565b60006020820190508181036000830152614e6481614e28565b9050919050565b7f4e487b7100000000000000000000000000000000000000000000000000000000600052602260045260246000fd5b60006002820490506001821680614eb257607f821691505b60208210811415614ec657614ec5614e6b565b5b50919050565b7f5f64616f5465636846656520697320696c6c6567616c21000000000000000000600082015250565b6000614f0260178361481f565b9150614f0d82614ecc565b602082019050919050565b60006020820190508181036000830152614f3181614ef5565b9050919050565b7f726574546f6b656e416464722073657465642100000000000000000000000000600082015250565b6000614f6e60138361481f565b9150614f7982614f38565b602082019050919050565b60006020820190508181036000830152614f9d81614f61565b9050919050565b7f73746b546f6b656e416464722073657465642100000000000000000000000000600082015250565b6000614fda60138361481f565b9150614fe582614fa4565b602082019050919050565b6000602082019050818103600083015261500981614fcd565b9050919050565b7f5f636f6c6c61746f725465636846656520697320696c6c6567616c2100000000600082015250565b6000615046601c8361481f565b915061505182615010565b602082019050919050565b6000602082019050818103600083015261507581615039565b9050919050565b7f6f776e6572416464726573732073657465642100000000000000000000000000600082015250565b60006150b260138361481f565b91506150bd8261507c565b602082019050919050565b600060208201905081810360008301526150e1816150a5565b9050919050565b7f706172616d6574657220697320696c6c6567616c210000000000000000000000600082015250565b600061511e60158361481f565b9150615129826150e8565b602082019050919050565b6000602082019050818103600083015261514d81615111565b9050919050565b7f4e487b7100000000000000000000000000000000000000000000000000000000600052601160045260246000fd5b600061518e8261463f565b91506151998361463f565b9250817fffffffffffffffffffffffffffffffffffffffffffffffffffffffffffffffff04831182151516156151d2576151d1615154565b5b828202905092915050565b7f5f6e756d62657220697320696c6c6567616c2100000000000000000000000000600082015250565b600061521360138361481f565b915061521e826151dd565b602082019050919050565b6000602082019050818103600083015261524281615206565b9050919050565b7f5f737461746520697320696c6c6567616c210000000000000000000000000000600082015250565b600061527f60128361481f565b915061528a82615249565b602082019050919050565b600060208201905081810360008301526152ae81615272565b9050919050565b7f476f7665726e616365206973206e6f742073746172746564206f7220656e646560008201527f6421000000000000000000000000000000000000000000000000000000000000602082015250565b600061531160228361481f565b915061531c826152b5565b604082019050919050565b6000602082019050818103600083015261534081615304565b9050919050565b7f676f7665726e5479706520697320696c6c6567616c2100000000000000000000600082015250565b600061537d60168361481f565b915061538882615347565b602082019050919050565b600060208201905081810360008301526153ac81615370565b9050919050565b7f746f74616c566f74657220697320696c6c6567616c2100000000000000000000600082015250565b60006153e960168361481f565b91506153f4826153b3565b602082019050919050565b60006020820190508181036000830152615418816153dc565b9050919050565b7f566f746564210000000000000000000000000000000000000000000000000000600082015250565b600061545560068361481f565b91506154608261541f565b602082019050919050565b6000602082019050818103600083015261548481615448565b9050919050565b7f42616c616e6365206973207a65726f2100000000000000000000000000000000600082015250565b60006154c160108361481f565b91506154cc8261548b565b602082019050919050565b600060208201905081810360008301526154f0816154b4565b9050919050565b7f7374616b6554696d65206c657373207468616e2063616c54696d652100000000600082015250565b600061552d601c8361481f565b9150615538826154f7565b602082019050919050565b6000602082019050818103600083015261555c81615520565b9050919050565b7f4461746520697320696c6c6567616c2100000000000000000000000000000000600082015250565b600061559960108361481f565b91506155a482615563565b602082019050919050565b600060208201905081810360008301526155c88161558c565b9050919050565b7f476f7665726e696e672100000000000000000000000000000000000000000000600082015250565b6000615605600a8361481f565b9150615610826155cf565b602082019050919050565b60006020820190508181036000830152615634816155f8565b9050919050565b7f42616c616e6365206c657373207468616e2070726f706f73616c446f776e4c6960008201527f6d69742100000000000000000000000000000000000000000000000000000000602082015250565b600061569760248361481f565b91506156a28261563b565b604082019050919050565b600060208201905081810360008301526156c68161568a565b9050919050565b60006156d88261463f565b91506156e38361463f565b9250828210156156f6576156f5615154565b5b828203905092915050565b7f4e487b7100000000000000000000000000000000000000000000000000000000600052601260045260246000fd5b600061573b8261463f565b91506157468361463f565b92508261575657615755615701565b5b828204905092915050565b600061576c8261463f565b91506157778361463f565b9250827fffffffffffffffffffffffffffffffffffffffffffffffffffffffffffffffff038211156157ac576157ab615154565b5b82820190509291505056fea26469706673582212209743ea0c1fedf3e9124cb619e220ccdba5093d1ce928db5c2417ed807ef9a33364736f6c634300080c0033",
  "immutableReferences": {},
  "source": "// SPDX-License-Identifier: GPL-3.0-only\r\npragma solidity ^0.8.0;\r\nimport \"@openzeppelin/contracts/utils/math/SafeMath.sol\";\r\n\r\ninterface IPool{\r\n    function totalSupply() external view returns (uint256);\r\n    function balanceOf(address _account) external view returns (uint256);\r\n    function memberTimes(address _account) external view returns (uint256);\r\n}  \r\n\r\ncontract Governance{\r\n    using SafeMath for uint256;\r\n    //\r\n    struct DAOConfig{\r\n        uint daoTechFee;//2%\r\n        uint collatorTechFee;//12%\r\n        uint fundsDownLimit;//1000\r\n        uint fundsUpLimit;//5000000\r\n        // uint investorDownLimit;//5\r\n        // uint investorUpLimit;//500\r\n        uint perInvestDownLimit;//1\r\n        uint voterProportion;//51%\r\n        uint rewardDownLimit;//10\r\n        uint calTime ;//2\r\n        uint reserveProportion;//Pool5%\r\n        uint redeemTimeLimit;//Pool2\r\n        uint zeroTimeLimit;//3\r\n        uint marginProportion;//retToken1/10\r\n        uint proposalDownLimit;//10000\r\n    }\r\n    DAOConfig private daoConfig;\r\n\r\n    //stkToken\r\n    address public stkTokenAddr;\r\n    //retToken\r\n    address public retTokenAddr;\r\n    //\r\n    address public rewardAddr;\r\n\r\n    //NimbusId\r\n    uint256 public authorAmount;\r\n    //\r\n    uint public blockHeight;\r\n\r\n    //\r\n    uint constant public daoTechLimit = 1;\r\n    //\r\n    uint constant public collatorTechLimit = 10;\r\n    //\r\n    uint constant public voterDownLimit = 51;\r\n    //,\r\n    uint public currentNumber = 0;\r\n    //\r\n    struct GovernanceInfo{\r\n        uint governType; //:\r\n        uint256 startDate;// \r\n        uint256 endDate;//\r\n        uint uintValue;//\r\n        string strValue;//url,\r\n        uint256 totalVoter;//\r\n        uint approveVoter;//\r\n        uint opposeVoter;//\r\n        bool success; // true false\r\n    }\r\n    //,governanceInfos[number]=info,number,info\r\n    mapping(uint => GovernanceInfo) private governanceInfos;\r\n    //governanceVotes[number][adr]=state,number,adr,state0 1 2\r\n    mapping(uint => mapping (address => uint)) private governanceVotes;\r\n    //governanceInfos[type]=date,type,date\r\n    mapping(uint => uint256) private governanceTypes;\r\n    //sudo\r\n    address public ownerAddress;\r\n    //\r\n    IPool public Ipool;\r\n    //ether\r\n    uint256 public constant etherBase = 1000000000000000000;\r\n\r\n    constructor(){\r\n    }\r\n\r\n    //,_authorAmountWei\r\n    function initialize(\r\n        uint256 _authorAmount,\r\n        uint _blockHeight,\r\n        address _ownerAddress\r\n    ) external {\r\n        require(ownerAddress == address(0),'ownerAddress seted!');\r\n        require(_authorAmount > 0 && _blockHeight > 0,'parameter is illegal!');\r\n        authorAmount = _authorAmount;\r\n        blockHeight = _blockHeight;\r\n        ownerAddress = _ownerAddress;\r\n\r\n        daoConfig.daoTechFee = 2;\r\n        daoConfig.collatorTechFee = 12;\r\n        daoConfig.fundsDownLimit = 1 * etherBase;//500-5000\r\n        daoConfig.fundsUpLimit =  5000000 * etherBase;\r\n        // daoConfig.investorDownLimit = 5;\r\n        // daoConfig.investorUpLimit = 500;\r\n        daoConfig.perInvestDownLimit =  1 * etherBase;\r\n        daoConfig.voterProportion =  51;\r\n        daoConfig.rewardDownLimit = 10 * etherBase;\r\n        daoConfig.calTime =  1;\r\n        daoConfig.reserveProportion =  5;\r\n        daoConfig.redeemTimeLimit =  1;\r\n        daoConfig.zeroTimeLimit =  1;\r\n        daoConfig.marginProportion = 1;\r\n        daoConfig.proposalDownLimit = 10000 * etherBase;\r\n    }\r\n\r\n    modifier isGovernance() {\r\n        //pool\r\n        require(Ipool.totalSupply() >= daoConfig.fundsDownLimit,'not start governance!');        \r\n        _;\r\n    }\r\n\r\n    modifier isOwner() { \r\n        require(msg.sender == ownerAddress,'Not management!');\r\n        //pool\r\n        require(Ipool.totalSupply() < daoConfig.fundsDownLimit,'start governance!');\r\n        _;\r\n    }\r\n\r\n\r\n    function setStkTokenAddr(address _stkTokenAddr) public{\r\n        require(stkTokenAddr == address(0),'stkTokenAddr seted!');\r\n        stkTokenAddr = _stkTokenAddr;\r\n        Ipool = IPool(_stkTokenAddr);\r\n    }\r\n\r\n    function setRewardAddr(address _rewardAddr) public{\r\n        require(rewardAddr == address(0),'rewardAddr seted!');\r\n        rewardAddr = _rewardAddr;\r\n    }\r\n\r\n    function setRetTokenAddr(address _retTokenAddr) public{\r\n        require(retTokenAddr == address(0),'retTokenAddr seted!');\r\n        retTokenAddr = _retTokenAddr;\r\n    }    \r\n\r\n\r\n    function setDaoTechFee(uint _daoTechFee) public isOwner{\r\n        require(_daoTechFee >= daoTechLimit,'_daoTechFee is illegal!');\r\n        daoConfig.daoTechFee = _daoTechFee;\r\n    }\r\n\r\n    function setCollatorTechFee(uint _collatorTechFee) public isOwner{\r\n        require(_collatorTechFee >= collatorTechLimit,'_collatorTechFee is illegal!');\r\n        daoConfig.collatorTechFee = _collatorTechFee;\r\n    }\r\n\r\n    //_fundsDownLimitWei\r\n    function setFundsDownLimit(uint _fundsDownLimit) public isOwner{\r\n        daoConfig.fundsDownLimit = _fundsDownLimit;\r\n    }    \r\n\r\n    //_fundsUpLimitWei\r\n    function setFundsUpLimit(uint _fundsUpLimit) public isOwner{ \r\n        daoConfig.fundsUpLimit =  _fundsUpLimit;\r\n    }      \r\n\r\n    // function setInvestorDownLimit(uint _investorDownLimit) public isOwner{\r\n    //     daoConfig.investorDownLimit = _investorDownLimit;\r\n    // }      \r\n\r\n    // function setInvestorUpLimit(uint _investorUpLimit) public isOwner{\r\n    //     daoConfig.investorUpLimit = _investorUpLimit;\r\n    // }      \r\n\r\n    //_perInvestDownLimitWei\r\n    function setPerInvestDownLimit(uint _perInvestDownLimit) public isOwner{\r\n        daoConfig.perInvestDownLimit =  _perInvestDownLimit;\r\n    }      \r\n\r\n    function setVoterProportion(uint _voterProportion) public isOwner{\r\n        require(_voterProportion >= voterDownLimit,'_voterProportion is illegal!'); \r\n        daoConfig.voterProportion =  _voterProportion;\r\n    }      \r\n\r\n    //_rewardDownLimitWei\r\n    function setRewardDownLimit(uint _rewardDownLimit) public isOwner{\r\n        daoConfig.rewardDownLimit = _rewardDownLimit;\r\n    }\r\n      \r\n    function setCalTime(uint _calTime) public isOwner{\r\n        daoConfig.calTime =  _calTime;\r\n    }\r\n\r\n    function setReserveProportion(uint _reserveProportion) public isOwner{\r\n        daoConfig.reserveProportion =  _reserveProportion;\r\n    }\r\n\r\n    function setRedeemTimeLimit(uint _redeemTimeLimit) public isOwner{\r\n        daoConfig.redeemTimeLimit =  _redeemTimeLimit;\r\n    }\r\n\r\n    function setZeroTimeLimit(uint _zeroTimeLimit) public isOwner{\r\n        daoConfig.zeroTimeLimit =  _zeroTimeLimit;\r\n    }\r\n\r\n    function setMarginProportion(uint _marginProportion) public isOwner{\r\n        daoConfig.marginProportion = _marginProportion;\r\n    }\r\n    \r\n    //_proposalDownLimitWei\r\n    function setProposalDownLimit(uint _proposalDownLimit) public isOwner{\r\n        daoConfig.proposalDownLimit = _proposalDownLimit;\r\n    }\r\n\r\n    //\r\n    function _setGovern(uint _uintValue\r\n                ,string memory _strValue\r\n                ,uint _governType\r\n                ,uint256 _startDate\r\n                ,uint256 _endDate) private {\r\n        require(_startDate > block.timestamp && _startDate < _endDate,'Date is illegal!');\r\n        require(governanceTypes[_governType] == 0 || governanceTypes[_governType] < _startDate,'Governing!');\r\n        //poolstkToken\r\n        require(Ipool.balanceOf(msg.sender) >= daoConfig.proposalDownLimit,'Balance less than proposalDownLimit!');\r\n        uint day = (block.timestamp).sub(Ipool.memberTimes(msg.sender)).div(60 * 60 *24);\r\n        require(day >= daoConfig.calTime,'stakeTime less than calTime!');\r\n        uint256 voters = Ipool.totalSupply();\r\n        GovernanceInfo memory info;\r\n        currentNumber = currentNumber.add(1);\r\n        info.governType = _governType;\r\n        info.startDate = _startDate;\r\n        info.endDate = _endDate;\r\n        info.uintValue = _uintValue;\r\n        info.strValue = _strValue;  \r\n        info.totalVoter = voters;\r\n        info.approveVoter = 0;\r\n        info.opposeVoter = 0;\r\n        info.success = false;\r\n        governanceInfos[currentNumber] = info;\r\n        governanceTypes[_governType] = _endDate;\r\n    }\r\n\r\n    //\r\n    function startDTGovern(\r\n        uint _daoTechFee,\r\n        uint256 _startDate,\r\n        uint256 _endDate\r\n    ) public isGovernance{\r\n        require(_daoTechFee >= daoTechLimit,'_daoTechFee is illegal!');\r\n        _setGovern(_daoTechFee, '', 0, _startDate, _endDate);\r\n    }\r\n\r\n    //\r\n    function startCTGovern(\r\n        uint _collatorTechFee,\r\n        uint256 _startDate,\r\n        uint256 _endDate\r\n    ) public isGovernance{\r\n        require(_collatorTechFee >= collatorTechLimit,'_collatorTechFee is illegal!');\r\n        _setGovern(_collatorTechFee, '', 1, _startDate, _endDate);\r\n    }\r\n\r\n    //,_fundsDownLimitWei\r\n    function startFDLGovern(\r\n        uint _fundsDownLimit,\r\n        uint256 _startDate,\r\n        uint256 _endDate\r\n    ) public isGovernance{\r\n        _setGovern(_fundsDownLimit, '', 2, _startDate, _endDate);\r\n    }\r\n\r\n    //,_fundsUpLimitWei\r\n    function startFULGovern(\r\n        uint _fundsUpLimit,\r\n        uint256 _startDate,\r\n        uint256 _endDate\r\n    ) public isGovernance{\r\n        _setGovern(_fundsUpLimit, '', 3, _startDate, _endDate);\r\n    }\r\n\r\n    // //\r\n    // function startIDLGovern(uint _investorDownLimit,uint256 _startDate,uint256 _endDate) public isGovernance{\r\n    //     _setGovern(_investorDownLimit, '', 4, _startDate, _endDate);\r\n    // }\r\n\r\n    // //\r\n    // function startIULGovern(uint _investorUpLimit,uint256 _startDate,uint256 _endDate) public isGovernance{\r\n    //     _setGovern(_investorUpLimit, '', 5, _startDate, _endDate);\r\n    // }\r\n\r\n    //,_perInvestDownLimitWei\r\n    function startPIDLGovern(\r\n        uint _perInvestDownLimit,\r\n        uint256 _startDate,\r\n        uint256 _endDate\r\n    ) public isGovernance{\r\n        _setGovern(_perInvestDownLimit, '', 6, _startDate, _endDate);\r\n    }\r\n\r\n    //\r\n    function startVPGovern(\r\n        uint _voterProportion,\r\n        uint256 _startDate,\r\n        uint256 _endDate\r\n    ) public isGovernance{\r\n        require(_voterProportion >= voterDownLimit,'_voterProportion is illegal!');\r\n        _setGovern(_voterProportion, '', 7, _startDate, _endDate);\r\n    }\r\n\r\n    //,_rewardDownLimitWei\r\n    function startRDGovern(\r\n        uint _rewardDownLimit,\r\n        uint256 _startDate,\r\n        uint256 _endDate\r\n    ) public isGovernance{\r\n        _setGovern(_rewardDownLimit, '', 8, _startDate, _endDate);\r\n    }\r\n\r\n    //\r\n    function startCATGovern(\r\n        uint _calTime,\r\n        uint256 _startDate,\r\n        uint256 _endDate\r\n    ) public isGovernance{\r\n        _setGovern(_calTime, '', 9, _startDate, _endDate);\r\n    }\r\n\r\n    //Pool\r\n    function startRPGovern(\r\n        uint _reserveProportion,\r\n        uint256 _startDate,\r\n        uint256 _endDate\r\n    ) public isGovernance{\r\n        _setGovern(_reserveProportion, '', 10, _startDate, _endDate);\r\n    }\r\n\r\n    //Pool\r\n    function startRTLGovern(\r\n        uint _redeemTimeLimit,\r\n        uint256 _startDate,\r\n        uint256 _endDate\r\n    ) public isGovernance{\r\n        _setGovern(_redeemTimeLimit, '', 11, _startDate, _endDate);\r\n    }\r\n\r\n    //\r\n    function startZTLGovern(\r\n        uint _zeroTimeLimit,\r\n        uint256 _startDate,\r\n        uint256 _endDate\r\n    ) public isGovernance{\r\n        _setGovern(_zeroTimeLimit, '', 12, _startDate, _endDate);\r\n    }\r\n\r\n    //\r\n    function startMPGovern(\r\n        uint _marginProportion,\r\n        uint256 _startDate,\r\n        uint256 _endDate\r\n    ) public isGovernance{\r\n        _setGovern(_marginProportion, '', 13, _startDate, _endDate);\r\n    }\r\n\r\n    //,_proposalDownLimitWei\r\n    function startPDLGovern(\r\n        uint _proposalDownLimit,\r\n        uint256 _startDate,\r\n        uint256 _endDate\r\n    ) public isGovernance{\r\n        _setGovern(_proposalDownLimit, '', 14, _startDate, _endDate);\r\n    }\r\n\r\n    //\r\n    function startUrlGovern(\r\n        string memory _urlPath,\r\n        uint256 _startDate,\r\n        uint256 _endDate\r\n    ) public isGovernance{\r\n        _setGovern(0, _urlPath, 15, _startDate, _endDate);\r\n    }\r\n\r\n    //\r\n    function _setVote(\r\n        uint _governType,\r\n        uint _number,\r\n        uint _state\r\n    ) private returns (bool success,uint uintValue){\r\n        require(_number > 0,'_number is illegal!');\r\n        require(_state > 0 && _state < 3,'_state is illegal!');\r\n        GovernanceInfo memory info = governanceInfos[_number];\r\n        require(info.startDate <= block.timestamp && info.endDate >= block.timestamp,'Governace is not started or ended!');\r\n        require(info.governType == _governType ,'governType is illegal!');\r\n        require(info.totalVoter > 0 ,'totalVoter is illegal!');\r\n        require(governanceVotes[_number][msg.sender] == 0,'Voted!');\r\n\r\n        require(Ipool.balanceOf(msg.sender) > 0,'Balance is zero!');\r\n        uint day = (block.timestamp).sub(Ipool.memberTimes(msg.sender)).div(60 * 60 *24);\r\n        require(day >= daoConfig.calTime,'stakeTime less than calTime!');\r\n\r\n        governanceVotes[_number][msg.sender] = _state;\r\n        if(_state == 1){\r\n            info.approveVoter = info.approveVoter.add(Ipool.balanceOf(msg.sender));\r\n        }else if(_state == 2){\r\n            info.opposeVoter = info.opposeVoter.add(Ipool.balanceOf(msg.sender));\r\n        }\r\n        if(info.approveVoter.mul(100).div(info.totalVoter) >= daoConfig.voterProportion){\r\n            info.endDate = block.timestamp;\r\n            info.success = true;\r\n        }\r\n        return (info.success,info.uintValue);\r\n    }\r\n\r\n    //\r\n    function voteTPByNumber(uint _number,uint _state) public {\r\n        (bool success,uint uintValue) = _setVote(0, _number, _state);\r\n        if(success){\r\n            //\r\n            daoConfig.daoTechFee = uintValue;\r\n        }\r\n    }\r\n\r\n    //\r\n    function voteCTByNumber(uint _number,uint _state) public {\r\n        (bool success,uint uintValue) = _setVote(1, _number, _state);\r\n        if(success){\r\n            //\r\n            daoConfig.collatorTechFee = uintValue;\r\n        }\r\n    }\r\n\r\n    //\r\n    function voteFDLByNumber(uint _number,uint _state) public {\r\n        (bool success,uint uintValue) = _setVote(2, _number, _state);\r\n        if(success){\r\n            //\r\n            daoConfig.fundsDownLimit = uintValue;\r\n        }\r\n    }\r\n\r\n    //\r\n    function voteFULByNumber(uint _number,uint _state) public {\r\n        (bool success,uint uintValue) = _setVote(3, _number, _state);\r\n        if(success){\r\n            //\r\n            daoConfig.fundsUpLimit = uintValue;\r\n        }\r\n    }\r\n\r\n    // //\r\n    // function voteIDLByNumber(uint _number,uint _state) public {\r\n    //     (bool success,uint uintValue) = _setVote(4, _number, _state);\r\n    //     if(success){\r\n    //         //\r\n    //         daoConfig.investorDownLimit = uintValue;\r\n    //     }\r\n    // }\r\n\r\n    // //\r\n    // function voteIULByNumber(uint _number,uint _state) public {\r\n    //     (bool success,uint uintValue) =  _setVote(5, _number, _state);\r\n    //     if(success){\r\n    //         //\r\n    //         daoConfig.investorUpLimit = uintValue;\r\n    //     }\r\n    // }\r\n\r\n    //\r\n    function votePIDLByNumber(uint _number,uint _state) public {\r\n        (bool success,uint uintValue) = _setVote(6, _number, _state);\r\n        if(success){\r\n            //\r\n            daoConfig.perInvestDownLimit = uintValue;\r\n        }\r\n    }\r\n\r\n    //\r\n    function voteVPByNumber(uint _number,uint _state) public {\r\n        (bool success,uint uintValue) = _setVote(7, _number, _state);\r\n        if(success){\r\n            //\r\n            daoConfig.voterProportion = uintValue;\r\n        }\r\n    }\r\n\r\n    //\r\n    function voteRDByNumber(uint _number,uint _state) public {\r\n        (bool success,uint uintValue) = _setVote(8, _number, _state);\r\n        if(success){\r\n            //\r\n            daoConfig.rewardDownLimit = uintValue;\r\n        }\r\n    }\r\n\r\n    //\r\n    function voteCATByNumber(uint _number,uint _state) public {\r\n        (bool success,uint uintValue) = _setVote(9, _number, _state);\r\n        if(success){\r\n            //\r\n            daoConfig.calTime = uintValue;\r\n        }\r\n    }\r\n\r\n    //Pool\r\n    function voteRPByNumber(uint _number,uint _state) public {\r\n        (bool success,uint uintValue) = _setVote(10, _number, _state);\r\n        if(success){\r\n            //\r\n            daoConfig.reserveProportion = uintValue;\r\n        }\r\n    }\r\n\r\n    //Pool\r\n    function voteRTLByNumber(uint _number,uint _state) public {\r\n        (bool success,uint uintValue) = _setVote(11, _number, _state);\r\n        if(success){\r\n            //\r\n            daoConfig.redeemTimeLimit = uintValue;\r\n        }\r\n    }\r\n\r\n    //\r\n    function voteZTLByNumber(uint _number,uint _state) public {\r\n        (bool success,uint uintValue) = _setVote(12, _number, _state);\r\n        if(success){\r\n            //\r\n            daoConfig.zeroTimeLimit = uintValue;\r\n        }\r\n    }\r\n\r\n    //\r\n    function voteMPByNumber(uint _number,uint _state) public {\r\n        (bool success,uint uintValue) = _setVote(13, _number, _state);\r\n        if(success){\r\n            //\r\n            daoConfig.marginProportion = uintValue;\r\n        }\r\n    }\r\n\r\n    //\r\n    function votePDLByNumber(uint _number,uint _state) public {\r\n        (bool success,uint uintValue) = _setVote(14, _number, _state);\r\n        if(success){\r\n            //\r\n            daoConfig.proposalDownLimit = uintValue;\r\n        }\r\n    }\r\n\r\n    //\r\n    function voteURLByNumber(uint _number,uint _state) public {\r\n        _setVote(14, _number, _state);\r\n    }\r\n\r\n    //\r\n    function getDaoTechFee() public  view returns(uint){\r\n        return daoConfig.daoTechFee;\r\n    }\r\n\r\n    //\r\n    function getCollatorTechFee() public  view returns(uint){\r\n        return daoConfig.collatorTechFee;\r\n    }\r\n\r\n    //\r\n    function getFundsDownLimit() public  view returns(uint){\r\n        return daoConfig.fundsDownLimit;\r\n    }    \r\n\r\n    //\r\n    function getFundsUpLimit() public  view returns(uint){ \r\n        return daoConfig.fundsUpLimit;\r\n    }      \r\n\r\n    // //\r\n    // function getInvestorDownLimit() public  view returns(uint){\r\n    //     return daoConfig.investorDownLimit;\r\n    // }      \r\n\r\n    // //\r\n    // function getInvestorUpLimit() public  view returns(uint){\r\n    //     return daoConfig.investorUpLimit;\r\n    // }      \r\n\r\n    //\r\n    function getPerInvestDownLimit() public  view returns(uint){\r\n        return daoConfig.perInvestDownLimit;\r\n    }      \r\n\r\n    //\r\n    function getVoterProportion() public  view returns(uint){\r\n        return daoConfig.voterProportion;\r\n    }      \r\n\r\n    //\r\n    function getRewardDownLimit() public  view returns(uint){\r\n        return daoConfig.rewardDownLimit;\r\n    }\r\n    \r\n    //\r\n    function getCalTime() public  view returns(uint){\r\n        return daoConfig.calTime;\r\n    }\r\n\r\n    //Pool\r\n    function getReserveProportion() public  view returns(uint){\r\n        return daoConfig.reserveProportion;\r\n    }\r\n\r\n    //Pool\r\n    function getRedeemTimeLimit() public  view returns(uint){\r\n        return daoConfig.redeemTimeLimit;\r\n    }\r\n\r\n    //\r\n    function getZeroTimeLimit() public  view returns(uint){\r\n        return daoConfig.zeroTimeLimit;\r\n    }\r\n\r\n    //retToken\r\n    function getMarginProportion() public  view returns(uint){\r\n        return daoConfig.marginProportion;\r\n    }\r\n\r\n    //\r\n    function getProposalDownLimit() public  view returns(uint){\r\n        return daoConfig.proposalDownLimit;\r\n    }\r\n\r\n    //,\r\n    function getGovernanceInfo(uint _number) public view returns(\r\n        uint governType,\r\n        uint256 startDate,\r\n        uint256 endDate,\r\n        uint uintValue,\r\n        string memory strValue,\r\n        uint256 totalVoter,\r\n        uint approveVoter,\r\n        uint opposeVoter,\r\n        bool success\r\n    ){\r\n        GovernanceInfo memory info = governanceInfos[_number];\r\n        return (\r\n            info.governType,\r\n            info.startDate,\r\n            info.endDate,\r\n            info.uintValue,\r\n            info.strValue,\r\n            info.totalVoter,\r\n            info.approveVoter,\r\n            info.opposeVoter,\r\n            info.success);\r\n    }\r\n\r\n    //,\r\n    function getGovernanceVote(uint _number,address _addr) public view returns(uint){\r\n        return governanceVotes[_number][_addr];\r\n    }\r\n}",
  "sourcePath": "D:\\\\StakeFinance\\StakeFinance\\truffle-dev\\contracts\\Governance.sol",
  "compiler": {
    "name": "solc",
    "version": "0.8.12+commit.f00d7308.Emscripten.clang"
  },
  "schemaVersion": "3.4.5",
  "updatedAt": "2022-04-18T06:54:25.164Z",
  "devdoc": {
    "kind": "dev",
    "methods": {},
    "version": 1
  },
  "userdoc": {
    "kind": "user",
    "methods": {},
    "version": 1
  }
}