{
  "contractName": "Pool",
  "abi": [
    {
      "inputs": [],
      "stateMutability": "nonpayable",
      "type": "constructor"
    },
    {
      "anonymous": false,
      "inputs": [
        {
          "indexed": true,
          "internalType": "address",
          "name": "owner",
          "type": "address"
        },
        {
          "indexed": true,
          "internalType": "address",
          "name": "spender",
          "type": "address"
        },
        {
          "indexed": false,
          "internalType": "uint256",
          "name": "value",
          "type": "uint256"
        }
      ],
      "name": "Approval",
      "type": "event"
    },
    {
      "anonymous": false,
      "inputs": [
        {
          "indexed": true,
          "internalType": "address",
          "name": "from",
          "type": "address"
        },
        {
          "indexed": true,
          "internalType": "address",
          "name": "to",
          "type": "address"
        },
        {
          "indexed": false,
          "internalType": "uint256",
          "name": "value",
          "type": "uint256"
        }
      ],
      "name": "Transfer",
      "type": "event"
    },
    {
      "inputs": [],
      "name": "Iairdrop",
      "outputs": [
        {
          "internalType": "contract IAirdrop",
          "name": "",
          "type": "address"
        }
      ],
      "stateMutability": "view",
      "type": "function"
    },
    {
      "inputs": [],
      "name": "Igovern",
      "outputs": [
        {
          "internalType": "contract IGovernance",
          "name": "",
          "type": "address"
        }
      ],
      "stateMutability": "view",
      "type": "function"
    },
    {
      "inputs": [
        {
          "internalType": "address",
          "name": "owner",
          "type": "address"
        },
        {
          "internalType": "address",
          "name": "spender",
          "type": "address"
        }
      ],
      "name": "allowance",
      "outputs": [
        {
          "internalType": "uint256",
          "name": "",
          "type": "uint256"
        }
      ],
      "stateMutability": "view",
      "type": "function"
    },
    {
      "inputs": [
        {
          "internalType": "address",
          "name": "spender",
          "type": "address"
        },
        {
          "internalType": "uint256",
          "name": "amount",
          "type": "uint256"
        }
      ],
      "name": "approve",
      "outputs": [
        {
          "internalType": "bool",
          "name": "",
          "type": "bool"
        }
      ],
      "stateMutability": "nonpayable",
      "type": "function"
    },
    {
      "inputs": [
        {
          "internalType": "address",
          "name": "account",
          "type": "address"
        }
      ],
      "name": "balanceOf",
      "outputs": [
        {
          "internalType": "uint256",
          "name": "",
          "type": "uint256"
        }
      ],
      "stateMutability": "view",
      "type": "function"
    },
    {
      "inputs": [],
      "name": "decimals",
      "outputs": [
        {
          "internalType": "uint8",
          "name": "",
          "type": "uint8"
        }
      ],
      "stateMutability": "view",
      "type": "function"
    },
    {
      "inputs": [
        {
          "internalType": "address",
          "name": "spender",
          "type": "address"
        },
        {
          "internalType": "uint256",
          "name": "subtractedValue",
          "type": "uint256"
        }
      ],
      "name": "decreaseAllowance",
      "outputs": [
        {
          "internalType": "bool",
          "name": "",
          "type": "bool"
        }
      ],
      "stateMutability": "nonpayable",
      "type": "function"
    },
    {
      "inputs": [],
      "name": "faucetModelAddr",
      "outputs": [
        {
          "internalType": "address",
          "name": "",
          "type": "address"
        }
      ],
      "stateMutability": "view",
      "type": "function"
    },
    {
      "inputs": [
        {
          "internalType": "address",
          "name": "spender",
          "type": "address"
        },
        {
          "internalType": "uint256",
          "name": "addedValue",
          "type": "uint256"
        }
      ],
      "name": "increaseAllowance",
      "outputs": [
        {
          "internalType": "bool",
          "name": "",
          "type": "bool"
        }
      ],
      "stateMutability": "nonpayable",
      "type": "function"
    },
    {
      "inputs": [
        {
          "internalType": "uint256",
          "name": "",
          "type": "uint256"
        }
      ],
      "name": "memberAddrs",
      "outputs": [
        {
          "internalType": "address",
          "name": "",
          "type": "address"
        }
      ],
      "stateMutability": "view",
      "type": "function"
    },
    {
      "inputs": [
        {
          "internalType": "address",
          "name": "",
          "type": "address"
        }
      ],
      "name": "memberTimes",
      "outputs": [
        {
          "internalType": "uint256",
          "name": "",
          "type": "uint256"
        }
      ],
      "stateMutability": "view",
      "type": "function"
    },
    {
      "inputs": [],
      "name": "memberTotal",
      "outputs": [
        {
          "internalType": "uint256",
          "name": "",
          "type": "uint256"
        }
      ],
      "stateMutability": "view",
      "type": "function"
    },
    {
      "inputs": [],
      "name": "name",
      "outputs": [
        {
          "internalType": "string",
          "name": "",
          "type": "string"
        }
      ],
      "stateMutability": "view",
      "type": "function"
    },
    {
      "inputs": [],
      "name": "symbol",
      "outputs": [
        {
          "internalType": "string",
          "name": "",
          "type": "string"
        }
      ],
      "stateMutability": "view",
      "type": "function"
    },
    {
      "inputs": [],
      "name": "totalSupply",
      "outputs": [
        {
          "internalType": "uint256",
          "name": "",
          "type": "uint256"
        }
      ],
      "stateMutability": "view",
      "type": "function"
    },
    {
      "inputs": [
        {
          "internalType": "address",
          "name": "to",
          "type": "address"
        },
        {
          "internalType": "uint256",
          "name": "amount",
          "type": "uint256"
        }
      ],
      "name": "transfer",
      "outputs": [
        {
          "internalType": "bool",
          "name": "",
          "type": "bool"
        }
      ],
      "stateMutability": "nonpayable",
      "type": "function"
    },
    {
      "inputs": [
        {
          "internalType": "address",
          "name": "from",
          "type": "address"
        },
        {
          "internalType": "address",
          "name": "to",
          "type": "address"
        },
        {
          "internalType": "uint256",
          "name": "amount",
          "type": "uint256"
        }
      ],
      "name": "transferFrom",
      "outputs": [
        {
          "internalType": "bool",
          "name": "",
          "type": "bool"
        }
      ],
      "stateMutability": "nonpayable",
      "type": "function"
    },
    {
      "inputs": [
        {
          "internalType": "address",
          "name": "_governAddr",
          "type": "address"
        },
        {
          "internalType": "string",
          "name": "name_",
          "type": "string"
        },
        {
          "internalType": "string",
          "name": "symbol_",
          "type": "string"
        },
        {
          "internalType": "address",
          "name": "_faucetModelAddr",
          "type": "address"
        }
      ],
      "name": "initialize",
      "outputs": [],
      "stateMutability": "nonpayable",
      "type": "function"
    },
    {
      "inputs": [],
      "name": "addStake",
      "outputs": [],
      "stateMutability": "payable",
      "type": "function"
    },
    {
      "inputs": [
        {
          "internalType": "uint256",
          "name": "_amount",
          "type": "uint256"
        }
      ],
      "name": "redeemStake",
      "outputs": [],
      "stateMutability": "nonpayable",
      "type": "function"
    },
    {
      "inputs": [
        {
          "internalType": "address",
          "name": "_techAddr",
          "type": "address"
        },
        {
          "internalType": "uint256",
          "name": "_period",
          "type": "uint256"
        },
        {
          "internalType": "uint256",
          "name": "_stkAmount",
          "type": "uint256"
        }
      ],
      "name": "createCollator",
      "outputs": [
        {
          "internalType": "address",
          "name": "",
          "type": "address"
        }
      ],
      "stateMutability": "nonpayable",
      "type": "function"
    },
    {
      "inputs": [
        {
          "internalType": "address payable",
          "name": "_collatorAddr",
          "type": "address"
        },
        {
          "internalType": "uint256",
          "name": "_period",
          "type": "uint256"
        },
        {
          "internalType": "uint256",
          "name": "_stkAmount",
          "type": "uint256"
        }
      ],
      "name": "addCollator",
      "outputs": [],
      "stateMutability": "nonpayable",
      "type": "function"
    },
    {
      "inputs": [
        {
          "internalType": "address",
          "name": "_collatorAddr",
          "type": "address"
        },
        {
          "internalType": "uint256",
          "name": "_period",
          "type": "uint256"
        },
        {
          "internalType": "uint256",
          "name": "_stkAmount",
          "type": "uint256"
        }
      ],
      "name": "createDelegator",
      "outputs": [
        {
          "internalType": "address",
          "name": "",
          "type": "address"
        }
      ],
      "stateMutability": "nonpayable",
      "type": "function"
    },
    {
      "inputs": [
        {
          "internalType": "address payable",
          "name": "_delegatorAddr",
          "type": "address"
        },
        {
          "internalType": "uint256",
          "name": "_period",
          "type": "uint256"
        },
        {
          "internalType": "uint256",
          "name": "_stkAmount",
          "type": "uint256"
        }
      ],
      "name": "addDelegator",
      "outputs": [],
      "stateMutability": "nonpayable",
      "type": "function"
    },
    {
      "inputs": [
        {
          "internalType": "address",
          "name": "_account",
          "type": "address"
        }
      ],
      "name": "getDelegatorAddrs",
      "outputs": [
        {
          "internalType": "address[]",
          "name": "",
          "type": "address[]"
        }
      ],
      "stateMutability": "view",
      "type": "function"
    },
    {
      "inputs": [
        {
          "internalType": "address",
          "name": "_account",
          "type": "address"
        }
      ],
      "name": "getCollatorAddrs",
      "outputs": [
        {
          "internalType": "address[]",
          "name": "",
          "type": "address[]"
        }
      ],
      "stateMutability": "view",
      "type": "function"
    },
    {
      "inputs": [],
      "name": "balance",
      "outputs": [
        {
          "internalType": "uint256",
          "name": "",
          "type": "uint256"
        }
      ],
      "stateMutability": "view",
      "type": "function"
    },
    {
      "inputs": [
        {
          "internalType": "uint256",
          "name": "amount",
          "type": "uint256"
        }
      ],
      "name": "getRetToken",
      "outputs": [
        {
          "internalType": "uint256",
          "name": "",
          "type": "uint256"
        }
      ],
      "stateMutability": "view",
      "type": "function"
    }
  ],
  "bytecode": "0x60806040526000600a556001600d60006101000a81548160ff0219169083151502179055503480156200003157600080fd5b506040518060400160405280600c81526020017f73746b546f6b656e4e616d6500000000000000000000000000000000000000008152506040518060400160405280600e81526020017f73746b546f6b656e53796d626f6c0000000000000000000000000000000000008152508160039080519060200190620000b6929190620000d8565b508060049080519060200190620000cf929190620000d8565b505050620001ed565b828054620000e690620001b7565b90600052602060002090601f0160209004810192826200010a576000855562000156565b82601f106200012557805160ff191683800117855562000156565b8280016001018555821562000156579182015b828111156200015557825182559160200191906001019062000138565b5b50905062000165919062000169565b5090565b5b80821115620001845760008160009055506001016200016a565b5090565b7f4e487b7100000000000000000000000000000000000000000000000000000000600052602260045260246000fd5b60006002820490506001821680620001d057607f821691505b60208210811415620001e757620001e662000188565b5b50919050565b61484680620001fd6000396000f3fe6080604052600436106101b75760003560e01c806378e5c689116100ec578063a9059cbb1161008a578063dd62ed3e11610064578063dd62ed3e14610661578063ea8f56b01461069e578063ef9ea722146106db578063f4e2663514610718576101b7565b8063a9059cbb146105ce578063b28f3b8e1461060b578063b69ef8a814610636576101b7565b806395d89b41116100c657806395d89b41146105005780639f5961571461052b5780639fc71fda14610568578063a457c2d714610591576101b7565b806378e5c6891461045b5780637e20c9b0146104985780638baf96a5146104d5576101b7565b8063372cf5fe1161015957806361260f891161013357806361260f891461038f578063613d25bb146103cc57806367f64725146103f557806370a082311461041e576101b7565b8063372cf5fe1461031d57806339509351146103485780635a627dbc14610385576101b7565b806318160ddd1161019557806318160ddd1461024d5780631986bf621461027857806323b872dd146102b5578063313ce567146102f2576101b7565b806306fdde03146101bc578063095ea7b3146101e757806310ff994d14610224575b600080fd5b3480156101c857600080fd5b506101d1610743565b6040516101de91906131e7565b60405180910390f35b3480156101f357600080fd5b5061020e600480360381019061020991906132b1565b6107d5565b60405161021b919061330c565b60405180910390f35b34801561023057600080fd5b5061024b60048036038101906102469190613327565b6107f8565b005b34801561025957600080fd5b506102626109e8565b60405161026f9190613363565b60405180910390f35b34801561028457600080fd5b5061029f600480360381019061029a9190613327565b6109f2565b6040516102ac9190613363565b60405180910390f35b3480156102c157600080fd5b506102dc60048036038101906102d7919061337e565b610ac3565b6040516102e9919061330c565b60405180910390f35b3480156102fe57600080fd5b50610307610af2565b60405161031491906133ed565b60405180910390f35b34801561032957600080fd5b50610332610afb565b60405161033f9190613467565b60405180910390f35b34801561035457600080fd5b5061036f600480360381019061036a91906132b1565b610b21565b60405161037c919061330c565b60405180910390f35b61038d610bcb565b005b34801561039b57600080fd5b506103b660048036038101906103b19190613482565b610d84565b6040516103c391906134e4565b60405180910390f35b3480156103d857600080fd5b506103f360048036038101906103ee9190613634565b6112b0565b005b34801561040157600080fd5b5061041c60048036038101906104179190613711565b61149f565b005b34801561042a57600080fd5b5061044560048036038101906104409190613764565b61154b565b6040516104529190613363565b60405180910390f35b34801561046757600080fd5b50610482600480360381019061047d9190613482565b611593565b60405161048f91906134e4565b60405180910390f35b3480156104a457600080fd5b506104bf60048036038101906104ba9190613764565b61198e565b6040516104cc919061384f565b60405180910390f35b3480156104e157600080fd5b506104ea611a5b565b6040516104f79190613892565b60405180910390f35b34801561050c57600080fd5b50610515611a81565b60405161052291906131e7565b60405180910390f35b34801561053757600080fd5b50610552600480360381019061054d9190613764565b611b13565b60405161055f919061384f565b60405180910390f35b34801561057457600080fd5b5061058f600480360381019061058a9190613711565b611be0565b005b34801561059d57600080fd5b506105b860048036038101906105b391906132b1565b611c8c565b6040516105c5919061330c565b60405180910390f35b3480156105da57600080fd5b506105f560048036038101906105f091906132b1565b611d76565b604051610602919061330c565b60405180910390f35b34801561061757600080fd5b50610620611d99565b60405161062d91906134e4565b60405180910390f35b34801561064257600080fd5b5061064b611dbf565b6040516106589190613363565b60405180910390f35b34801561066d57600080fd5b50610688600480360381019061068391906138ad565b611dc7565b6040516106959190613363565b60405180910390f35b3480156106aa57600080fd5b506106c560048036038101906106c09190613764565b611e4e565b6040516106d29190613363565b60405180910390f35b3480156106e757600080fd5b5061070260048036038101906106fd9190613327565b611e66565b60405161070f91906134e4565b60405180910390f35b34801561072457600080fd5b5061072d611e99565b60405161073a9190613363565b60405180910390f35b6060600380546107529061391c565b80601f016020809104026020016040519081016040528092919081815260200182805461077e9061391c565b80156107cb5780601f106107a0576101008083540402835291602001916107cb565b820191906000526020600020905b8154815290600101906020018083116107ae57829003601f168201915b5050505050905090565b6000806107e0611e9f565b90506107ed818585611ea7565b600191505092915050565b6000811161083b576040517f08c379a00000000000000000000000000000000000000000000000000000000081526004016108329061399a565b60405180910390fd5b806108453361154b565b101580156108535750804710155b610892576040517f08c379a000000000000000000000000000000000000000000000000000000000815260040161088990613a06565b60405180910390fd5b60006108fb620151806108ed600960003373ffffffffffffffffffffffffffffffffffffffff1673ffffffffffffffffffffffffffffffffffffffff168152602001908152602001600020544261207290919063ffffffff16565b61208890919063ffffffff16565b9050600560009054906101000a900473ffffffffffffffffffffffffffffffffffffffff1673ffffffffffffffffffffffffffffffffffffffff1663989a63586040518163ffffffff1660e01b8152600401602060405180830381865afa15801561096a573d6000803e3d6000fd5b505050506040513d601f19601f8201168201806040525081019061098e9190613a3b565b8110156109d0576040517f08c379a00000000000000000000000000000000000000000000000000000000081526004016109c790613ab4565b60405180910390fd5b6109da338361209e565b6109e43383612192565b5050565b6000600254905090565b6000610abc610aad600a610a9f600560009054906101000a900473ffffffffffffffffffffffffffffffffffffffff1673ffffffffffffffffffffffffffffffffffffffff166384862faf6040518163ffffffff1660e01b8152600401602060405180830381865afa158015610a6c573d6000803e3d6000fd5b505050506040513d601f19601f82011682018060405250810190610a909190613a3b565b8661236990919063ffffffff16565b61208890919063ffffffff16565b8361237f90919063ffffffff16565b9050919050565b600080610ace611e9f565b9050610adb858285612395565b610ae6858585612421565b60019150509392505050565b60006012905090565b600660009054906101000a900473ffffffffffffffffffffffffffffffffffffffff1681565b600080610b2c611e9f565b9050610bc0818585600160008673ffffffffffffffffffffffffffffffffffffffff1673ffffffffffffffffffffffffffffffffffffffff16815260200190815260200160002060008973ffffffffffffffffffffffffffffffffffffffff1673ffffffffffffffffffffffffffffffffffffffff16815260200190815260200160002054610bbb9190613b03565b611ea7565b600191505092915050565b600560009054906101000a900473ffffffffffffffffffffffffffffffffffffffff1673ffffffffffffffffffffffffffffffffffffffff16631eec98f46040518163ffffffff1660e01b8152600401602060405180830381865afa158015610c38573d6000803e3d6000fd5b505050506040513d601f19601f82011682018060405250810190610c5c9190613a3b565b341015610c9e576040517f08c379a0000000000000000000000000000000000000000000000000000000008152600401610c9590613ba5565b60405180910390fd5b600560009054906101000a900473ffffffffffffffffffffffffffffffffffffffff1673ffffffffffffffffffffffffffffffffffffffff1663ce302ba46040518163ffffffff1660e01b8152600401602060405180830381865afa158015610d0b573d6000803e3d6000fd5b505050506040513d601f19601f82011682018060405250810190610d2f9190613a3b565b610d376109e8565b1115610d78576040517f08c379a0000000000000000000000000000000000000000000000000000000008152600401610d6f90613c11565b60405180910390fd5b610d8233346126a2565b565b6000600d60009054906101000a900460ff16610dd5576040517f08c379a0000000000000000000000000000000000000000000000000000000008152600401610dcc90613c7d565b60405180910390fd5b6000600d60006101000a81548160ff021916908315150217905550600073ffffffffffffffffffffffffffffffffffffffff16600760009054906101000a900473ffffffffffffffffffffffffffffffffffffffff1673ffffffffffffffffffffffffffffffffffffffff161415610e82576040517f08c379a0000000000000000000000000000000000000000000000000000000008152600401610e7990613ce9565b60405180910390fd5b600073ffffffffffffffffffffffffffffffffffffffff16600560009054906101000a900473ffffffffffffffffffffffffffffffffffffffff1673ffffffffffffffffffffffffffffffffffffffff16637015e95e6040518163ffffffff1660e01b8152600401602060405180830381865afa158015610f07573d6000803e3d6000fd5b505050506040513d601f19601f82011682018060405250810190610f2b9190613d1e565b73ffffffffffffffffffffffffffffffffffffffff161415610f82576040517f08c379a0000000000000000000000000000000000000000000000000000000008152600401610f7990613d97565b60405180910390fd5b600061102f61102a600560009054906101000a900473ffffffffffffffffffffffffffffffffffffffff1673ffffffffffffffffffffffffffffffffffffffff1663e88d0eb56040518163ffffffff1660e01b8152600401602060405180830381865afa158015610ff7573d6000803e3d6000fd5b505050506040513d601f19601f8201168201806040525081019061101b9190613a3b565b8561237f90919063ffffffff16565b612802565b9050600061105e600760009054906101000a900473ffffffffffffffffffffffffffffffffffffffff16612c98565b90508073ffffffffffffffffffffffffffffffffffffffff1663fc5b5fda600560009054906101000a900473ffffffffffffffffffffffffffffffffffffffff166000893360016040518663ffffffff1660e01b81526004016110c5959493929190613db7565b600060405180830381600087803b1580156110df57600080fd5b505af11580156110f3573d6000803e3d6000fd5b505050506000600b60003373ffffffffffffffffffffffffffffffffffffffff1673ffffffffffffffffffffffffffffffffffffffff168152602001908152602001600020905080829080600181540180825580915050600190039060005260206000200160009091909190916101000a81548173ffffffffffffffffffffffffffffffffffffffff021916908373ffffffffffffffffffffffffffffffffffffffff16021790555080600b60003373ffffffffffffffffffffffffffffffffffffffff1673ffffffffffffffffffffffffffffffffffffffff1681526020019081526020016000209080546111ea929190613059565b5061128882878786600560009054906101000a900473ffffffffffffffffffffffffffffffffffffffff1673ffffffffffffffffffffffffffffffffffffffff1663e88d0eb56040518163ffffffff1660e01b8152600401602060405180830381865afa15801561125f573d6000803e3d6000fd5b505050506040513d601f19601f820116820180604052508101906112839190613a3b565b612d02565b8193505050506001600d60006101000a81548160ff0219169083151502179055509392505050565b600073ffffffffffffffffffffffffffffffffffffffff16600560009054906101000a900473ffffffffffffffffffffffffffffffffffffffff1673ffffffffffffffffffffffffffffffffffffffff1614611341576040517f08c379a000000000000000000000000000000000000000000000000000000000815260040161133890613e56565b60405180910390fd5b83600560006101000a81548173ffffffffffffffffffffffffffffffffffffffff021916908373ffffffffffffffffffffffffffffffffffffffff16021790555082600390805190602001906113989291906130ab565b5081600490805190602001906113af9291906130ab565b5080600760006101000a81548173ffffffffffffffffffffffffffffffffffffffff021916908373ffffffffffffffffffffffffffffffffffffffff160217905550600560009054906101000a900473ffffffffffffffffffffffffffffffffffffffff1673ffffffffffffffffffffffffffffffffffffffff166377d2e24b306040518263ffffffff1660e01b815260040161144c91906134e4565b600060405180830381600087803b15801561146657600080fd5b505af115801561147a573d6000803e3d6000fd5b505050506001600d60006101000a81548160ff02191690831515021790555050505050565b600d60009054906101000a900460ff166114ee576040517f08c379a00000000000000000000000000000000000000000000000000000000081526004016114e590613c7d565b60405180910390fd5b6000600d60006101000a81548160ff021916908315150217905550600061151482612802565b90506000849050611529818585856000612d02565b50506001600d60006101000a81548160ff021916908315150217905550505050565b60008060008373ffffffffffffffffffffffffffffffffffffffff1673ffffffffffffffffffffffffffffffffffffffff168152602001908152602001600020549050919050565b6000600d60009054906101000a900460ff166115e4576040517f08c379a00000000000000000000000000000000000000000000000000000000081526004016115db90613c7d565b60405180910390fd5b6000600d60006101000a81548160ff021916908315150217905550600073ffffffffffffffffffffffffffffffffffffffff16600760009054906101000a900473ffffffffffffffffffffffffffffffffffffffff1673ffffffffffffffffffffffffffffffffffffffff161415611691576040517f08c379a000000000000000000000000000000000000000000000000000000000815260040161168890613ce9565b60405180910390fd5b600073ffffffffffffffffffffffffffffffffffffffff16600560009054906101000a900473ffffffffffffffffffffffffffffffffffffffff1673ffffffffffffffffffffffffffffffffffffffff16637015e95e6040518163ffffffff1660e01b8152600401602060405180830381865afa158015611716573d6000803e3d6000fd5b505050506040513d601f19601f8201168201806040525081019061173a9190613d1e565b73ffffffffffffffffffffffffffffffffffffffff161415611791576040517f08c379a000000000000000000000000000000000000000000000000000000000815260040161178890613d97565b60405180910390fd5b600061179c83612802565b905060006117cb600760009054906101000a900473ffffffffffffffffffffffffffffffffffffffff16612c98565b90508073ffffffffffffffffffffffffffffffffffffffff1663fc5b5fda600560009054906101000a900473ffffffffffffffffffffffffffffffffffffffff168860008060006040518663ffffffff1660e01b8152600401611832959493929190613db7565b600060405180830381600087803b15801561184c57600080fd5b505af1158015611860573d6000803e3d6000fd5b505050506000600c60003373ffffffffffffffffffffffffffffffffffffffff1673ffffffffffffffffffffffffffffffffffffffff168152602001908152602001600020905080829080600181540180825580915050600190039060005260206000200160009091909190916101000a81548173ffffffffffffffffffffffffffffffffffffffff021916908373ffffffffffffffffffffffffffffffffffffffff16021790555080600c60003373ffffffffffffffffffffffffffffffffffffffff1673ffffffffffffffffffffffffffffffffffffffff168152602001908152602001600020908054611957929190613059565b50611966828787866000612d02565b8193505050506001600d60006101000a81548160ff0219169083151502179055509392505050565b6060600b60008373ffffffffffffffffffffffffffffffffffffffff1673ffffffffffffffffffffffffffffffffffffffff168152602001908152602001600020805480602002602001604051908101604052809291908181526020018280548015611a4f57602002820191906000526020600020905b8160009054906101000a900473ffffffffffffffffffffffffffffffffffffffff1673ffffffffffffffffffffffffffffffffffffffff1681526020019060010190808311611a05575b50505050509050919050565b600560009054906101000a900473ffffffffffffffffffffffffffffffffffffffff1681565b606060048054611a909061391c565b80601f0160208091040260200160405190810160405280929190818152602001828054611abc9061391c565b8015611b095780601f10611ade57610100808354040283529160200191611b09565b820191906000526020600020905b815481529060010190602001808311611aec57829003601f168201915b5050505050905090565b6060600c60008373ffffffffffffffffffffffffffffffffffffffff1673ffffffffffffffffffffffffffffffffffffffff168152602001908152602001600020805480602002602001604051908101604052809291908181526020018280548015611bd457602002820191906000526020600020905b8160009054906101000a900473ffffffffffffffffffffffffffffffffffffffff1673ffffffffffffffffffffffffffffffffffffffff1681526020019060010190808311611b8a575b50505050509050919050565b600d60009054906101000a900460ff16611c2f576040517f08c379a0000000000000000000000000000000000000000000000000000000008152600401611c2690613c7d565b60405180910390fd5b6000600d60006101000a81548160ff0219169083151502179055506000611c5582612802565b90506000849050611c6a818585856000612d02565b50506001600d60006101000a81548160ff021916908315150217905550505050565b600080611c97611e9f565b90506000600160008373ffffffffffffffffffffffffffffffffffffffff1673ffffffffffffffffffffffffffffffffffffffff16815260200190815260200160002060008673ffffffffffffffffffffffffffffffffffffffff1673ffffffffffffffffffffffffffffffffffffffff16815260200190815260200160002054905083811015611d5d576040517f08c379a0000000000000000000000000000000000000000000000000000000008152600401611d5490613ee8565b60405180910390fd5b611d6a8286868403611ea7565b60019250505092915050565b600080611d81611e9f565b9050611d8e818585612421565b600191505092915050565b600760009054906101000a900473ffffffffffffffffffffffffffffffffffffffff1681565b600047905090565b6000600160008473ffffffffffffffffffffffffffffffffffffffff1673ffffffffffffffffffffffffffffffffffffffff16815260200190815260200160002060008373ffffffffffffffffffffffffffffffffffffffff1673ffffffffffffffffffffffffffffffffffffffff16815260200190815260200160002054905092915050565b60096020528060005260406000206000915090505481565b60086020528060005260406000206000915054906101000a900473ffffffffffffffffffffffffffffffffffffffff1681565b600a5481565b600033905090565b600073ffffffffffffffffffffffffffffffffffffffff168373ffffffffffffffffffffffffffffffffffffffff161415611f17576040517f08c379a0000000000000000000000000000000000000000000000000000000008152600401611f0e90613f7a565b60405180910390fd5b600073ffffffffffffffffffffffffffffffffffffffff168273ffffffffffffffffffffffffffffffffffffffff161415611f87576040517f08c379a0000000000000000000000000000000000000000000000000000000008152600401611f7e9061400c565b60405180910390fd5b80600160008573ffffffffffffffffffffffffffffffffffffffff1673ffffffffffffffffffffffffffffffffffffffff16815260200190815260200160002060008473ffffffffffffffffffffffffffffffffffffffff1673ffffffffffffffffffffffffffffffffffffffff168152602001908152602001600020819055508173ffffffffffffffffffffffffffffffffffffffff168373ffffffffffffffffffffffffffffffffffffffff167f8c5be1e5ebec7d5bd14f71427d1e84f3dd0314c0f7b2291e5b200ac8c7c3b925836040516120659190613363565b60405180910390a3505050565b60008183612080919061402c565b905092915050565b60008183612096919061408f565b905092915050565b804710156120e1576040517f08c379a00000000000000000000000000000000000000000000000000000000081526004016120d89061410c565b60405180910390fd5b60008273ffffffffffffffffffffffffffffffffffffffff16826040516121079061415d565b60006040518083038185875af1925050503d8060008114612144576040519150601f19603f3d011682016040523d82523d6000602084013e612149565b606091505b505090508061218d576040517f08c379a0000000000000000000000000000000000000000000000000000000008152600401612184906141e4565b60405180910390fd5b505050565b600073ffffffffffffffffffffffffffffffffffffffff168273ffffffffffffffffffffffffffffffffffffffff161415612202576040517f08c379a00000000000000000000000000000000000000000000000000000000081526004016121f990614276565b60405180910390fd5b61220e82600083612f0d565b60008060008473ffffffffffffffffffffffffffffffffffffffff1673ffffffffffffffffffffffffffffffffffffffff16815260200190815260200160002054905081811015612294576040517f08c379a000000000000000000000000000000000000000000000000000000000815260040161228b90614308565b60405180910390fd5b8181036000808573ffffffffffffffffffffffffffffffffffffffff1673ffffffffffffffffffffffffffffffffffffffff1681526020019081526020016000208190555081600260008282546122eb919061402c565b92505081905550600073ffffffffffffffffffffffffffffffffffffffff168373ffffffffffffffffffffffffffffffffffffffff167fddf252ad1be2c89b69c2b068fc378daa952ba7f163c4a11628f55a4df523b3ef846040516123509190613363565b60405180910390a36123648360008461304f565b505050565b600081836123779190614328565b905092915050565b6000818361238d9190613b03565b905092915050565b60006123a18484611dc7565b90507fffffffffffffffffffffffffffffffffffffffffffffffffffffffffffffffff811461241b578181101561240d576040517f08c379a0000000000000000000000000000000000000000000000000000000008152600401612404906143ce565b60405180910390fd5b61241a8484848403611ea7565b5b50505050565b600073ffffffffffffffffffffffffffffffffffffffff168373ffffffffffffffffffffffffffffffffffffffff161415612491576040517f08c379a000000000000000000000000000000000000000000000000000000000815260040161248890614460565b60405180910390fd5b600073ffffffffffffffffffffffffffffffffffffffff168273ffffffffffffffffffffffffffffffffffffffff161415612501576040517f08c379a00000000000000000000000000000000000000000000000000000000081526004016124f8906144f2565b60405180910390fd5b61250c838383612f0d565b60008060008573ffffffffffffffffffffffffffffffffffffffff1673ffffffffffffffffffffffffffffffffffffffff16815260200190815260200160002054905081811015612592576040517f08c379a000000000000000000000000000000000000000000000000000000000815260040161258990614584565b60405180910390fd5b8181036000808673ffffffffffffffffffffffffffffffffffffffff1673ffffffffffffffffffffffffffffffffffffffff16815260200190815260200160002081905550816000808573ffffffffffffffffffffffffffffffffffffffff1673ffffffffffffffffffffffffffffffffffffffff16815260200190815260200160002060008282546126259190613b03565b925050819055508273ffffffffffffffffffffffffffffffffffffffff168473ffffffffffffffffffffffffffffffffffffffff167fddf252ad1be2c89b69c2b068fc378daa952ba7f163c4a11628f55a4df523b3ef846040516126899190613363565b60405180910390a361269c84848461304f565b50505050565b600073ffffffffffffffffffffffffffffffffffffffff168273ffffffffffffffffffffffffffffffffffffffff161415612712576040517f08c379a0000000000000000000000000000000000000000000000000000000008152600401612709906145f0565b60405180910390fd5b61271e60008383612f0d565b80600260008282546127309190613b03565b92505081905550806000808473ffffffffffffffffffffffffffffffffffffffff1673ffffffffffffffffffffffffffffffffffffffff16815260200190815260200160002060008282546127859190613b03565b925050819055508173ffffffffffffffffffffffffffffffffffffffff16600073ffffffffffffffffffffffffffffffffffffffff167fddf252ad1be2c89b69c2b068fc378daa952ba7f163c4a11628f55a4df523b3ef836040516127ea9190613363565b60405180910390a36127fe6000838361304f565b5050565b60008073ffffffffffffffffffffffffffffffffffffffff16600560009054906101000a900473ffffffffffffffffffffffffffffffffffffffff1673ffffffffffffffffffffffffffffffffffffffff1663d1d25fab6040518163ffffffff1660e01b8152600401602060405180830381865afa158015612888573d6000803e3d6000fd5b505050506040513d601f19601f820116820180604052508101906128ac9190613d1e565b73ffffffffffffffffffffffffffffffffffffffff161415612903576040517f08c379a00000000000000000000000000000000000000000000000000000000081526004016128fa9061465c565b60405180910390fd5b6129c060646129b2600560009054906101000a900473ffffffffffffffffffffffffffffffffffffffff1673ffffffffffffffffffffffffffffffffffffffff166390e32c0a6040518163ffffffff1660e01b8152600401602060405180830381865afa158015612978573d6000803e3d6000fd5b505050506040513d601f19601f8201168201806040525081019061299c9190613a3b565b6129a46109e8565b61236990919063ffffffff16565b61208890919063ffffffff16565b6129d3834761207290919063ffffffff16565b1015612a14576040517f08c379a0000000000000000000000000000000000000000000000000000000008152600401612a0b90613a06565b60405180910390fd5b6000612acc600a612abe600560009054906101000a900473ffffffffffffffffffffffffffffffffffffffff1673ffffffffffffffffffffffffffffffffffffffff166384862faf6040518163ffffffff1660e01b8152600401602060405180830381865afa158015612a8b573d6000803e3d6000fd5b505050506040513d601f19601f82011682018060405250810190612aaf9190613a3b565b8661236990919063ffffffff16565b61208890919063ffffffff16565b9050600560009054906101000a900473ffffffffffffffffffffffffffffffffffffffff1673ffffffffffffffffffffffffffffffffffffffff1663d1d25fab6040518163ffffffff1660e01b8152600401602060405180830381865afa158015612b3b573d6000803e3d6000fd5b505050506040513d601f19601f82011682018060405250810190612b5f9190613d1e565b600660006101000a81548173ffffffffffffffffffffffffffffffffffffffff021916908373ffffffffffffffffffffffffffffffffffffffff160217905550612bb2818461237f90919063ffffffff16565b600660009054906101000a900473ffffffffffffffffffffffffffffffffffffffff1673ffffffffffffffffffffffffffffffffffffffff166370a08231336040518263ffffffff1660e01b8152600401612c0d91906134e4565b602060405180830381865afa158015612c2a573d6000803e3d6000fd5b505050506040513d601f19601f82011682018060405250810190612c4e9190613a3b565b1015612c8f576040517f08c379a0000000000000000000000000000000000000000000000000000000008152600401612c86906146c8565b60405180910390fd5b80915050919050565b6000808260601b90506040517f3d602d80600a3d3981f3363d3d373d3d3d363d7300000000000000000000000081528160148201527f5af43d82803e903d91602b57fd5bf3000000000000000000000000000000000060288201526037816000f092505050919050565b6000612d1a620151804261208890919063ffffffff16565b90508573ffffffffffffffffffffffffffffffffffffffff1663a8add12333838888886040518663ffffffff1660e01b8152600401612d5d9594939291906146e8565b600060405180830381600087803b158015612d7757600080fd5b505af1158015612d8b573d6000803e3d6000fd5b50505050612dab86612da6848761237f90919063ffffffff16565b61209e565b600660009054906101000a900473ffffffffffffffffffffffffffffffffffffffff1673ffffffffffffffffffffffffffffffffffffffff16639dc29fac33612dfd858861237f90919063ffffffff16565b6040518363ffffffff1660e01b8152600401612e1a92919061473b565b6020604051808303816000875af1158015612e39573d6000803e3d6000fd5b505050506040513d601f19601f82011682018060405250810190612e5d9190614790565b50600660009054906101000a900473ffffffffffffffffffffffffffffffffffffffff1673ffffffffffffffffffffffffffffffffffffffff1663cd2d07ca33888489886040518663ffffffff1660e01b8152600401612ec19594939291906147bd565b6020604051808303816000875af1158015612ee0573d6000803e3d6000fd5b505050506040513d601f19601f82011682018060405250810190612f049190614790565b50505050505050565b612f18838383613054565b600073ffffffffffffffffffffffffffffffffffffffff168273ffffffffffffffffffffffffffffffffffffffff161461304a576000600960008473ffffffffffffffffffffffffffffffffffffffff1673ffffffffffffffffffffffffffffffffffffffff168152602001908152602001600020541415613005578160086000600a54815260200190815260200160002060006101000a81548173ffffffffffffffffffffffffffffffffffffffff021916908373ffffffffffffffffffffffffffffffffffffffff160217905550612ffe6001600a5461237f90919063ffffffff16565b600a819055505b42600960008473ffffffffffffffffffffffffffffffffffffffff1673ffffffffffffffffffffffffffffffffffffffff168152602001908152602001600020819055505b505050565b505050565b505050565b82805482825590600052602060002090810192821561309a5760005260206000209182015b8281111561309957825482559160010191906001019061307e565b5b5090506130a79190613131565b5090565b8280546130b79061391c565b90600052602060002090601f0160209004810192826130d95760008555613120565b82601f106130f257805160ff1916838001178555613120565b82800160010185558215613120579182015b8281111561311f578251825591602001919060010190613104565b5b50905061312d9190613131565b5090565b5b8082111561314a576000816000905550600101613132565b5090565b600081519050919050565b600082825260208201905092915050565b60005b8381101561318857808201518184015260208101905061316d565b83811115613197576000848401525b50505050565b6000601f19601f8301169050919050565b60006131b98261314e565b6131c38185613159565b93506131d381856020860161316a565b6131dc8161319d565b840191505092915050565b6000602082019050818103600083015261320181846131ae565b905092915050565b6000604051905090565b600080fd5b600080fd5b600073ffffffffffffffffffffffffffffffffffffffff82169050919050565b60006132488261321d565b9050919050565b6132588161323d565b811461326357600080fd5b50565b6000813590506132758161324f565b92915050565b6000819050919050565b61328e8161327b565b811461329957600080fd5b50565b6000813590506132ab81613285565b92915050565b600080604083850312156132c8576132c7613213565b5b60006132d685828601613266565b92505060206132e78582860161329c565b9150509250929050565b60008115159050919050565b613306816132f1565b82525050565b600060208201905061332160008301846132fd565b92915050565b60006020828403121561333d5761333c613213565b5b600061334b8482850161329c565b91505092915050565b61335d8161327b565b82525050565b60006020820190506133786000830184613354565b92915050565b60008060006060848603121561339757613396613213565b5b60006133a586828701613266565b93505060206133b686828701613266565b92505060406133c78682870161329c565b9150509250925092565b600060ff82169050919050565b6133e7816133d1565b82525050565b600060208201905061340260008301846133de565b92915050565b6000819050919050565b600061342d6134286134238461321d565b613408565b61321d565b9050919050565b600061343f82613412565b9050919050565b600061345182613434565b9050919050565b61346181613446565b82525050565b600060208201905061347c6000830184613458565b92915050565b60008060006060848603121561349b5761349a613213565b5b60006134a986828701613266565b93505060206134ba8682870161329c565b92505060406134cb8682870161329c565b9150509250925092565b6134de8161323d565b82525050565b60006020820190506134f960008301846134d5565b92915050565b600080fd5b600080fd5b7f4e487b7100000000000000000000000000000000000000000000000000000000600052604160045260246000fd5b6135418261319d565b810181811067ffffffffffffffff821117156135605761355f613509565b5b80604052505050565b6000613573613209565b905061357f8282613538565b919050565b600067ffffffffffffffff82111561359f5761359e613509565b5b6135a88261319d565b9050602081019050919050565b82818337600083830152505050565b60006135d76135d284613584565b613569565b9050828152602081018484840111156135f3576135f2613504565b5b6135fe8482856135b5565b509392505050565b600082601f83011261361b5761361a6134ff565b5b813561362b8482602086016135c4565b91505092915050565b6000806000806080858703121561364e5761364d613213565b5b600061365c87828801613266565b945050602085013567ffffffffffffffff81111561367d5761367c613218565b5b61368987828801613606565b935050604085013567ffffffffffffffff8111156136aa576136a9613218565b5b6136b687828801613606565b92505060606136c787828801613266565b91505092959194509250565b60006136de8261321d565b9050919050565b6136ee816136d3565b81146136f957600080fd5b50565b60008135905061370b816136e5565b92915050565b60008060006060848603121561372a57613729613213565b5b6000613738868287016136fc565b93505060206137498682870161329c565b925050604061375a8682870161329c565b9150509250925092565b60006020828403121561377a57613779613213565b5b600061378884828501613266565b91505092915050565b600081519050919050565b600082825260208201905092915050565b6000819050602082019050919050565b6137c68161323d565b82525050565b60006137d883836137bd565b60208301905092915050565b6000602082019050919050565b60006137fc82613791565b613806818561379c565b9350613811836137ad565b8060005b8381101561384257815161382988826137cc565b9750613834836137e4565b925050600181019050613815565b5085935050505092915050565b6000602082019050818103600083015261386981846137f1565b905092915050565b600061387c82613434565b9050919050565b61388c81613871565b82525050565b60006020820190506138a76000830184613883565b92915050565b600080604083850312156138c4576138c3613213565b5b60006138d285828601613266565b92505060206138e385828601613266565b9150509250929050565b7f4e487b7100000000000000000000000000000000000000000000000000000000600052602260045260246000fd5b6000600282049050600182168061393457607f821691505b60208210811415613948576139476138ed565b5b50919050565b7f416d6f756e74206973207a65726f210000000000000000000000000000000000600082015250565b6000613984600f83613159565b915061398f8261394e565b602082019050919050565b600060208201905081810360008301526139b381613977565b9050919050565b7f42616c616e6365206973206e6f7420656e6f7567682100000000000000000000600082015250565b60006139f0601683613159565b91506139fb826139ba565b602082019050919050565b60006020820190508181036000830152613a1f816139e3565b9050919050565b600081519050613a3581613285565b92915050565b600060208284031215613a5157613a50613213565b5b6000613a5f84828501613a26565b91505092915050565b7f52656465656d54696d654c696d6974206973206e6f7420796574000000000000600082015250565b6000613a9e601a83613159565b9150613aa982613a68565b602082019050919050565b60006020820190508181036000830152613acd81613a91565b9050919050565b7f4e487b7100000000000000000000000000000000000000000000000000000000600052601160045260246000fd5b6000613b0e8261327b565b9150613b198361327b565b9250827fffffffffffffffffffffffffffffffffffffffffffffffffffffffffffffffff03821115613b4e57613b4d613ad4565b5b828201905092915050565b7f4c657373207468616e20706572496e76657374446f776e4c696d697421000000600082015250565b6000613b8f601d83613159565b9150613b9a82613b59565b602082019050919050565b60006020820190508181036000830152613bbe81613b82565b9050919050565b7f4d6f7265207468616e2067657446756e647355704c696d697421000000000000600082015250565b6000613bfb601a83613159565b9150613c0682613bc5565b602082019050919050565b60006020820190508181036000830152613c2a81613bee565b9050919050565b7f506f6f6c3a204c4f434b45442100000000000000000000000000000000000000600082015250565b6000613c67600d83613159565b9150613c7282613c31565b602082019050919050565b60006020820190508181036000830152613c9681613c5a565b9050919050565b7f6661756365744d6f64656c41646472206973206e6f7420736574210000000000600082015250565b6000613cd3601b83613159565b9150613cde82613c9d565b602082019050919050565b60006020820190508181036000830152613d0281613cc6565b9050919050565b600081519050613d188161324f565b92915050565b600060208284031215613d3457613d33613213565b5b6000613d4284828501613d09565b91505092915050565b7f72657761726441646472206973206e6f74207365742100000000000000000000600082015250565b6000613d81601683613159565b9150613d8c82613d4b565b602082019050919050565b60006020820190508181036000830152613db081613d74565b9050919050565b600060a082019050613dcc60008301886134d5565b613dd960208301876134d5565b613de660408301866134d5565b613df360608301856134d5565b613e0060808301846132fd565b9695505050505050565b7f49676f7665726e20736574656421000000000000000000000000000000000000600082015250565b6000613e40600e83613159565b9150613e4b82613e0a565b602082019050919050565b60006020820190508181036000830152613e6f81613e33565b9050919050565b7f45524332303a2064656372656173656420616c6c6f77616e63652062656c6f7760008201527f207a65726f000000000000000000000000000000000000000000000000000000602082015250565b6000613ed2602583613159565b9150613edd82613e76565b604082019050919050565b60006020820190508181036000830152613f0181613ec5565b9050919050565b7f45524332303a20617070726f76652066726f6d20746865207a65726f2061646460008201527f7265737300000000000000000000000000000000000000000000000000000000602082015250565b6000613f64602483613159565b9150613f6f82613f08565b604082019050919050565b60006020820190508181036000830152613f9381613f57565b9050919050565b7f45524332303a20617070726f766520746f20746865207a65726f20616464726560008201527f7373000000000000000000000000000000000000000000000000000000000000602082015250565b6000613ff6602283613159565b915061400182613f9a565b604082019050919050565b6000602082019050818103600083015261402581613fe9565b9050919050565b60006140378261327b565b91506140428361327b565b92508282101561405557614054613ad4565b5b828203905092915050565b7f4e487b7100000000000000000000000000000000000000000000000000000000600052601260045260246000fd5b600061409a8261327b565b91506140a58361327b565b9250826140b5576140b4614060565b5b828204905092915050565b7f416464726573733a20696e73756666696369656e742062616c616e6365000000600082015250565b60006140f6601d83613159565b9150614101826140c0565b602082019050919050565b60006020820190508181036000830152614125816140e9565b9050919050565b600081905092915050565b50565b600061414760008361412c565b915061415282614137565b600082019050919050565b60006141688261413a565b9150819050919050565b7f416464726573733a20756e61626c6520746f2073656e642076616c75652c207260008201527f6563697069656e74206d61792068617665207265766572746564000000000000602082015250565b60006141ce603a83613159565b91506141d982614172565b604082019050919050565b600060208201905081810360008301526141fd816141c1565b9050919050565b7f45524332303a206275726e2066726f6d20746865207a65726f2061646472657360008201527f7300000000000000000000000000000000000000000000000000000000000000602082015250565b6000614260602183613159565b915061426b82614204565b604082019050919050565b6000602082019050818103600083015261428f81614253565b9050919050565b7f45524332303a206275726e20616d6f756e7420657863656564732062616c616e60008201527f6365000000000000000000000000000000000000000000000000000000000000602082015250565b60006142f2602283613159565b91506142fd82614296565b604082019050919050565b60006020820190508181036000830152614321816142e5565b9050919050565b60006143338261327b565b915061433e8361327b565b9250817fffffffffffffffffffffffffffffffffffffffffffffffffffffffffffffffff048311821515161561437757614376613ad4565b5b828202905092915050565b7f45524332303a20696e73756666696369656e7420616c6c6f77616e6365000000600082015250565b60006143b8601d83613159565b91506143c382614382565b602082019050919050565b600060208201905081810360008301526143e7816143ab565b9050919050565b7f45524332303a207472616e736665722066726f6d20746865207a65726f20616460008201527f6472657373000000000000000000000000000000000000000000000000000000602082015250565b600061444a602583613159565b9150614455826143ee565b604082019050919050565b600060208201905081810360008301526144798161443d565b9050919050565b7f45524332303a207472616e7366657220746f20746865207a65726f206164647260008201527f6573730000000000000000000000000000000000000000000000000000000000602082015250565b60006144dc602383613159565b91506144e782614480565b604082019050919050565b6000602082019050818103600083015261450b816144cf565b9050919050565b7f45524332303a207472616e7366657220616d6f756e742065786365656473206260008201527f616c616e63650000000000000000000000000000000000000000000000000000602082015250565b600061456e602683613159565b915061457982614512565b604082019050919050565b6000602082019050818103600083015261459d81614561565b9050919050565b7f45524332303a206d696e7420746f20746865207a65726f206164647265737300600082015250565b60006145da601f83613159565b91506145e5826145a4565b602082019050919050565b60006020820190508181036000830152614609816145cd565b9050919050565b7f726574546f6b656e41646472206973206e6f7420736574210000000000000000600082015250565b6000614646601883613159565b915061465182614610565b602082019050919050565b6000602082019050818103600083015261467581614639565b9050919050565b7f726574546f6b656e206973206e6f7420656e6f75676821000000000000000000600082015250565b60006146b2601783613159565b91506146bd8261467c565b602082019050919050565b600060208201905081810360008301526146e1816146a5565b9050919050565b600060a0820190506146fd60008301886134d5565b61470a6020830187613354565b6147176040830186613354565b6147246060830185613354565b6147316080830184613354565b9695505050505050565b600060408201905061475060008301856134d5565b61475d6020830184613354565b9392505050565b61476d816132f1565b811461477857600080fd5b50565b60008151905061478a81614764565b92915050565b6000602082840312156147a6576147a5613213565b5b60006147b48482850161477b565b91505092915050565b600060a0820190506147d260008301886134d5565b6147df60208301876134d5565b6147ec6040830186613354565b6147f96060830185613354565b6148066080830184613354565b969550505050505056fea2646970667358221220d51eb6e4a79a1b15db8caff35d26beca7e7e31a02cb009ad4295f06945cc126d64736f6c634300080c0033",
  "immutableReferences": {},
  "source": "// SPDX-License-Identifier: GPL-3.0-only\r\npragma solidity ^0.8.0;\r\nimport \"./ERC20.sol\";\r\nimport \"@openzeppelin/contracts/utils/math/SafeMath.sol\";\r\nimport \"@openzeppelin/contracts/utils/Address.sol\";\r\n\r\ninterface IFaucet{\r\n    function initialize (\r\n        address _governAddr,\r\n        address _collatorAddr,\r\n        address _techAddr,\r\n        address _owner,\r\n        bool _faucetType\r\n    ) external;\r\n    function setLeaseInfo(\r\n        address _reddeemAddr,\r\n        uint _leaseDate,\r\n        uint _period,\r\n        uint256 _amount,\r\n        uint256 _marginAmount\r\n    ) external;\r\n}\r\n\r\ninterface IGovernance{\r\n    function getPerInvestDownLimit() external view returns(uint);\r\n    function getFundsUpLimit() external view returns(uint);  \r\n    function getRedeemTimeLimit() external  view returns(uint);  \r\n    function setStkTokenAddr(address _stkTokenAddr) external;\r\n    function retTokenAddr() external view returns (address);\r\n    function rewardAddr() external view returns (address);\r\n    function getMarginProportion() external  view returns(uint);\r\n    function getReserveProportion() external  view returns(uint);\r\n    function authorAmount() external view returns(uint256);\r\n}\r\n\r\ninterface IAirdrop{\r\n    function burn(address _account, uint256 _amount) external returns (bool);\r\n    function balanceOf(address _account) external view returns (uint256);\r\n    function lockLeaseMargin(\r\n        address _from,\r\n        address _leaseAddr,\r\n        uint _leaseDate,\r\n        uint _period,\r\n        uint256 _amount\r\n    ) external returns (bool);\r\n}\r\n\r\ncontract Pool is ERC20{\r\n    using SafeMath for uint256;\r\n\r\n    IGovernance public Igovern;\r\n    IAirdrop public Iairdrop;\r\n\r\n    //faucet\r\n    address public faucetModelAddr;\r\n\r\n    //\r\n    mapping(uint => address) public memberAddrs;\r\n    //\r\n    mapping(address => uint256) public memberTimes;\r\n    //\r\n    uint public memberTotal = 0;\r\n    //\r\n    mapping(address => address[]) private collatorAddrs;\r\n    //\r\n    mapping(address => address[]) private delegatorAddrs;\r\n    //lock\r\n    bool private unlocked = true;\r\n    \r\n    constructor() ERC20('stkTokenName','stkTokenSymbol'){        \r\n    }\r\n\r\n    //\r\n    function initialize (\r\n        address _governAddr,\r\n        string memory name_,\r\n        string memory symbol_,\r\n        address _faucetModelAddr\r\n    ) external{\r\n        require(address(Igovern) == address(0),'Igovern seted!');\r\n        Igovern = IGovernance(_governAddr);\r\n        _name = name_;\r\n        _symbol = symbol_;\r\n        faucetModelAddr = _faucetModelAddr;\r\n        //GovernmentstkToken\r\n        Igovern.setStkTokenAddr(address(this));\r\n        //constant\r\n        unlocked = true;\r\n    }\r\n\r\n    modifier lock() {\r\n        require(unlocked, 'Pool: LOCKED!');\r\n        unlocked = false;\r\n        _;\r\n        unlocked = true;\r\n    }\r\n\r\n    //\r\n    function createClone(address target) internal returns (address result) {\r\n        bytes20 targetBytes = bytes20(target);\r\n        assembly {\r\n            let clone := mload(0x40)\r\n            mstore(clone, 0x3d602d80600a3d3981f3363d3d373d3d3d363d73000000000000000000000000)\r\n            mstore(add(clone, 0x14), targetBytes)\r\n            mstore(add(clone, 0x28), 0x5af43d82803e903d91602b57fd5bf30000000000000000000000000000000000)\r\n            result := create(0, clone, 0x37)\r\n        }\r\n    }\r\n\r\n    //_beforeTokenTransfer,memberAddrsmemberTimesmemberTotal\r\n    function _beforeTokenTransfer(\r\n        address from,\r\n        address to,\r\n        uint256 amount\r\n    ) internal virtual override {\r\n        super._beforeTokenTransfer(from, to, amount);\r\n        if(to != address(0)){\r\n            if(memberTimes[to] == 0){\r\n                memberAddrs[memberTotal] = to;\r\n                memberTotal = memberTotal.add(1);\r\n            }\r\n            memberTimes[to] = block.timestamp;\r\n        }\r\n    }\r\n    \r\n    //,_stkAmountWei\r\n    function getMarginCount(uint256 _stkAmount) private returns(uint256){\r\n        require(Igovern.retTokenAddr()!=address(0),'retTokenAddr is not set!');\r\n        require((address(this).balance).sub(_stkAmount) >= totalSupply().mul(Igovern.getReserveProportion()).div(100),'Balance is not enough!');        \r\n        uint256 marginAmount = _stkAmount.mul(Igovern.getMarginProportion()).div(10);\r\n        Iairdrop = IAirdrop(Igovern.retTokenAddr());\r\n        require(Iairdrop.balanceOf(msg.sender) >= _stkAmount.add(marginAmount),'retToken is not enough!');\r\n        return marginAmount;\r\n    }\r\n\r\n    //faucet,_stkAmount_marginAmount_authorAmountWei\r\n    function setFaucetInfo(\r\n        IFaucet _faucet,\r\n        uint _period,\r\n        uint256 _stkAmount,\r\n        uint256 _marginAmount,\r\n        uint256 _authorAmount\r\n    ) private{\r\n        //delegator   \r\n        uint leaseDate = block.timestamp.div(24 * 60 * 60);\r\n        _faucet.setLeaseInfo(msg.sender,leaseDate,_period,_stkAmount,_marginAmount);\r\n        Address.sendValue(payable(address(_faucet)),_stkAmount.add(_authorAmount));\r\n        Iairdrop.burn(msg.sender,_stkAmount.add(_authorAmount));\r\n        //marginAmountairdrop       \r\n        Iairdrop.lockLeaseMargin(msg.sender,address(_faucet),leaseDate,_period,_marginAmount);\r\n    }\r\n\r\n    //DAO\r\n    function addStake() public payable {\r\n        require(msg.value >= Igovern.getPerInvestDownLimit(),'Less than perInvestDownLimit!');\r\n        require(totalSupply() <= Igovern.getFundsUpLimit(),'More than getFundsUpLimit!');        \r\n        _mint(msg.sender, msg.value);\r\n    }\r\n\r\n    //,_amountWei\r\n    function redeemStake(uint256 _amount) public{\r\n        require(_amount > 0,'Amount is zero!');\r\n        require(balanceOf(msg.sender) >= _amount && address(this).balance >= _amount,'Balance is not enough!');\r\n        uint day = (block.timestamp).sub(memberTimes[msg.sender]).div(60 * 60 *24);\r\n        require(day >= Igovern.getRedeemTimeLimit(),'RedeemTimeLimit is not yet');\r\n        Address.sendValue(payable(msg.sender), _amount);\r\n        _burn(msg.sender,_amount);\r\n    }\r\n\r\n    //,_stkAmountWei\r\n    function createCollator(\r\n        address _techAddr,\r\n        uint _period,\r\n        uint256 _stkAmount\r\n    ) public lock returns(address){\r\n        require(faucetModelAddr != address(0),'faucetModelAddr is not set!');\r\n        require(Igovern.rewardAddr() != address(0),'rewardAddr is not set!');        \r\n        uint256 marginAmount = getMarginCount(_stkAmount.add(Igovern.authorAmount()));\r\n        //\r\n        IFaucet collator = IFaucet(createClone(faucetModelAddr)); \r\n        collator.initialize(address(Igovern),address(0),_techAddr,msg.sender,true); \r\n        address[] storage addrs = collatorAddrs[msg.sender];\r\n        addrs.push(address(collator));\r\n        collatorAddrs[msg.sender] = addrs;\r\n        setFaucetInfo(collator,_period,_stkAmount,marginAmount,Igovern.authorAmount());\r\n        return address(collator);\r\n    }\r\n\r\n    //,_stkAmountWei\r\n    function addCollator(\r\n        address payable _collatorAddr,\r\n        uint _period,\r\n        uint256 _stkAmount\r\n    ) public lock{\r\n        uint256 marginAmount = getMarginCount(_stkAmount);  \r\n        IFaucet collator = IFaucet(_collatorAddr); \r\n        setFaucetInfo(collator,_period,_stkAmount,marginAmount,0);\r\n    }\r\n\r\n    //,_stkAmountWei\r\n    function createDelegator(\r\n        address _collatorAddr,\r\n        uint _period,\r\n        uint256 _stkAmount\r\n    ) public lock returns(address){\r\n        require(faucetModelAddr != address(0),'faucetModelAddr is not set!');\r\n        require(Igovern.rewardAddr() != address(0),'rewardAddr is not set!');\r\n        //retToken,\r\n        uint256 marginAmount = getMarginCount(_stkAmount); \r\n        //\r\n        IFaucet delegator = IFaucet(createClone(faucetModelAddr));\r\n        delegator.initialize(address(Igovern),_collatorAddr,address(0),address(0),false);\r\n        address[] storage addrs = delegatorAddrs[msg.sender];\r\n        addrs.push(address(delegator));\r\n        delegatorAddrs[msg.sender] = addrs;\r\n\r\n        setFaucetInfo(delegator,_period,_stkAmount,marginAmount,0);\r\n        return address(delegator);\r\n    }\r\n    \r\n    //,_stkAmountWei\r\n    function addDelegator(\r\n        address payable _delegatorAddr,\r\n        uint _period,\r\n        uint256 _stkAmount\r\n    ) public lock{\r\n        uint256 marginAmount = getMarginCount(_stkAmount); \r\n        IFaucet delegator = IFaucet(_delegatorAddr);\r\n        setFaucetInfo(delegator,_period,_stkAmount,marginAmount,0);\r\n    }\r\n\r\n    //\r\n    function getDelegatorAddrs(address _account) public view returns(address[] memory){\r\n        return delegatorAddrs[_account];\r\n    }\r\n\r\n    //\r\n    function getCollatorAddrs(address _account) public view returns(address[] memory){\r\n        return collatorAddrs[_account];\r\n    }\r\n\r\n    //token\r\n    function balance() public view returns(uint256){\r\n        return address(this).balance;\r\n    }\r\n\r\n    //faucettokenrettoken\r\n    function getRetToken(uint256 amount) public view returns(uint256) {\r\n        return amount.add(amount.mul(Igovern.getMarginProportion()).div(10));\r\n    }\r\n}",
  "sourcePath": "D:\\\\StakeFinance\\StakeFinance\\truffle-dev\\contracts\\Pool.sol",
  "compiler": {
    "name": "solc",
    "version": "0.8.12+commit.f00d7308.Emscripten.clang"
  },
  "schemaVersion": "3.4.5",
  "updatedAt": "2022-04-18T06:54:25.254Z",
  "devdoc": {
    "kind": "dev",
    "methods": {
      "allowance(address,address)": {
        "details": "See {IERC20-allowance}."
      },
      "approve(address,uint256)": {
        "details": "See {IERC20-approve}. NOTE: If `amount` is the maximum `uint256`, the allowance is not updated on `transferFrom`. This is semantically equivalent to an infinite approval. Requirements: - `spender` cannot be the zero address."
      },
      "balanceOf(address)": {
        "details": "See {IERC20-balanceOf}."
      },
      "decimals()": {
        "details": "Returns the number of decimals used to get its user representation. For example, if `decimals` equals `2`, a balance of `505` tokens should be displayed to a user as `5.05` (`505 / 10 ** 2`). Tokens usually opt for a value of 18, imitating the relationship between Ether and Wei. This is the value {ERC20} uses, unless this function is overridden; NOTE: This information is only used for _display_ purposes: it in no way affects any of the arithmetic of the contract, including {IERC20-balanceOf} and {IERC20-transfer}."
      },
      "decreaseAllowance(address,uint256)": {
        "details": "Atomically decreases the allowance granted to `spender` by the caller. This is an alternative to {approve} that can be used as a mitigation for problems described in {IERC20-approve}. Emits an {Approval} event indicating the updated allowance. Requirements: - `spender` cannot be the zero address. - `spender` must have allowance for the caller of at least `subtractedValue`."
      },
      "increaseAllowance(address,uint256)": {
        "details": "Atomically increases the allowance granted to `spender` by the caller. This is an alternative to {approve} that can be used as a mitigation for problems described in {IERC20-approve}. Emits an {Approval} event indicating the updated allowance. Requirements: - `spender` cannot be the zero address."
      },
      "name()": {
        "details": "Returns the name of the token."
      },
      "symbol()": {
        "details": "Returns the symbol of the token, usually a shorter version of the name."
      },
      "totalSupply()": {
        "details": "See {IERC20-totalSupply}."
      },
      "transfer(address,uint256)": {
        "details": "See {IERC20-transfer}. Requirements: - `to` cannot be the zero address. - the caller must have a balance of at least `amount`."
      },
      "transferFrom(address,address,uint256)": {
        "details": "See {IERC20-transferFrom}. Emits an {Approval} event indicating the updated allowance. This is not required by the EIP. See the note at the beginning of {ERC20}. NOTE: Does not update the allowance if the current allowance is the maximum `uint256`. Requirements: - `from` and `to` cannot be the zero address. - `from` must have a balance of at least `amount`. - the caller must have allowance for ``from``'s tokens of at least `amount`."
      }
    },
    "version": 1
  },
  "userdoc": {
    "kind": "user",
    "methods": {},
    "version": 1
  }
}