{
  "contractName": "Reward",
  "abi": [
    {
      "inputs": [],
      "stateMutability": "nonpayable",
      "type": "constructor"
    },
    {
      "stateMutability": "payable",
      "type": "fallback"
    },
    {
      "inputs": [],
      "name": "Igovern",
      "outputs": [
        {
          "internalType": "contract IGovernance",
          "name": "",
          "type": "address"
        }
      ],
      "stateMutability": "view",
      "type": "function"
    },
    {
      "inputs": [],
      "name": "Ipool",
      "outputs": [
        {
          "internalType": "contract IPool",
          "name": "",
          "type": "address"
        }
      ],
      "stateMutability": "view",
      "type": "function"
    },
    {
      "inputs": [
        {
          "internalType": "address",
          "name": "",
          "type": "address"
        }
      ],
      "name": "daoRewards",
      "outputs": [
        {
          "internalType": "uint256",
          "name": "",
          "type": "uint256"
        }
      ],
      "stateMutability": "view",
      "type": "function"
    },
    {
      "stateMutability": "payable",
      "type": "receive"
    },
    {
      "inputs": [
        {
          "internalType": "address",
          "name": "_governAddr",
          "type": "address"
        }
      ],
      "name": "initialize",
      "outputs": [],
      "stateMutability": "nonpayable",
      "type": "function"
    },
    {
      "inputs": [],
      "name": "assignReward",
      "outputs": [],
      "stateMutability": "nonpayable",
      "type": "function"
    },
    {
      "inputs": [],
      "name": "balance",
      "outputs": [
        {
          "internalType": "uint256",
          "name": "",
          "type": "uint256"
        }
      ],
      "stateMutability": "view",
      "type": "function"
    }
  ],
  "bytecode": "0x608060405260018060146101000a81548160ff02191690831515021790555034801561002a57600080fd5b506113e78061003a6000396000f3fe6080604052600436106100595760003560e01c8063881661801461006a5780638baf96a514610081578063b69ef8a8146100ac578063c4d66de8146100d7578063c74759ba14610100578063f2a195921461013d57610068565b3661006857610066610168565b005b005b34801561007657600080fd5b5061007f610168565b005b34801561008d57600080fd5b50610096610918565b6040516100a39190610cc4565b60405180910390f35b3480156100b857600080fd5b506100c161093c565b6040516100ce9190610cf8565b60405180910390f35b3480156100e357600080fd5b506100fe60048036038101906100f99190610d56565b610944565b005b34801561010c57600080fd5b5061012760048036038101906101229190610d56565b610abb565b6040516101349190610cf8565b60405180910390f35b34801561014957600080fd5b50610152610ad3565b60405161015f9190610da4565b60405180910390f35b600160149054906101000a900460ff166101b7576040517f08c379a00000000000000000000000000000000000000000000000000000000081526004016101ae90610e1c565b60405180910390fd5b6000600160146101000a81548160ff021916908315150217905550600073ffffffffffffffffffffffffffffffffffffffff1660008054906101000a900473ffffffffffffffffffffffffffffffffffffffff1673ffffffffffffffffffffffffffffffffffffffff166308c17a4a6040518163ffffffff1660e01b8152600401602060405180830381865afa158015610255573d6000803e3d6000fd5b505050506040513d601f19601f820116820180604052508101906102799190610e51565b73ffffffffffffffffffffffffffffffffffffffff1614156102d0576040517f08c379a00000000000000000000000000000000000000000000000000000000081526004016102c790610eca565b60405180910390fd5b60008060009054906101000a900473ffffffffffffffffffffffffffffffffffffffff1673ffffffffffffffffffffffffffffffffffffffff16639054031d6040518163ffffffff1660e01b8152600401602060405180830381865afa15801561033e573d6000803e3d6000fd5b505050506040513d601f19601f820116820180604052508101906103629190610f16565b9050600081116103a7576040517f08c379a000000000000000000000000000000000000000000000000000000000815260040161039e90610f8f565b60405180910390fd5b600047116103ea576040517f08c379a00000000000000000000000000000000000000000000000000000000081526004016103e190610ffb565b60405180910390fd5b60008054906101000a900473ffffffffffffffffffffffffffffffffffffffff1673ffffffffffffffffffffffffffffffffffffffff166308c17a4a6040518163ffffffff1660e01b8152600401602060405180830381865afa158015610455573d6000803e3d6000fd5b505050506040513d601f19601f820116820180604052508101906104799190610e51565b600160006101000a81548173ffffffffffffffffffffffffffffffffffffffff021916908373ffffffffffffffffffffffffffffffffffffffff1602179055506000600160009054906101000a900473ffffffffffffffffffffffffffffffffffffffff1673ffffffffffffffffffffffffffffffffffffffff166318160ddd6040518163ffffffff1660e01b8152600401602060405180830381865afa158015610528573d6000803e3d6000fd5b505050506040513d601f19601f8201168201806040525081019061054c9190610f16565b9050600047905060005b600160009054906101000a900473ffffffffffffffffffffffffffffffffffffffff1673ffffffffffffffffffffffffffffffffffffffff1663f4e266356040518163ffffffff1660e01b8152600401602060405180830381865afa1580156105c3573d6000803e3d6000fd5b505050506040513d601f19601f820116820180604052508101906105e79190610f16565b8110156108f8576000600160009054906101000a900473ffffffffffffffffffffffffffffffffffffffff1673ffffffffffffffffffffffffffffffffffffffff1663ef9ea722836040518263ffffffff1660e01b815260040161064b9190610cf8565b602060405180830381865afa158015610668573d6000803e3d6000fd5b505050506040513d601f19601f8201168201806040525081019061068c9190610e51565b90506000600160009054906101000a900473ffffffffffffffffffffffffffffffffffffffff1673ffffffffffffffffffffffffffffffffffffffff1663ea8f56b0836040518263ffffffff1660e01b81526004016106eb919061102a565b602060405180830381865afa158015610708573d6000803e3d6000fd5b505050506040513d601f19601f8201168201806040525081019061072c9190610f16565b90506000600160009054906101000a900473ffffffffffffffffffffffffffffffffffffffff1673ffffffffffffffffffffffffffffffffffffffff166370a08231846040518263ffffffff1660e01b815260040161078b919061102a565b602060405180830381865afa1580156107a8573d6000803e3d6000fd5b505050506040513d601f19601f820116820180604052508101906107cc9190610f16565b90506000821180156107de5750600081115b156108e257600061080d620151806107ff8542610af990919063ffffffff16565b610b0f90919063ffffffff16565b90508781106108e057600061083d8861082f858a610b2590919063ffffffff16565b610b0f90919063ffffffff16565b905061089181600260008873ffffffffffffffffffffffffffffffffffffffff1673ffffffffffffffffffffffffffffffffffffffff16815260200190815260200160002054610b3b90919063ffffffff16565b600260008773ffffffffffffffffffffffffffffffffffffffff1673ffffffffffffffffffffffffffffffffffffffff168152602001908152602001600020819055506108de8582610b51565b505b505b50505080806108f090611074565b915050610556565b5050505060018060146101000a81548160ff021916908315150217905550565b60008054906101000a900473ffffffffffffffffffffffffffffffffffffffff1681565b600047905090565b600073ffffffffffffffffffffffffffffffffffffffff1660008054906101000a900473ffffffffffffffffffffffffffffffffffffffff1673ffffffffffffffffffffffffffffffffffffffff16146109d3576040517f08c379a00000000000000000000000000000000000000000000000000000000081526004016109ca90611109565b60405180910390fd5b806000806101000a81548173ffffffffffffffffffffffffffffffffffffffff021916908373ffffffffffffffffffffffffffffffffffffffff16021790555060008054906101000a900473ffffffffffffffffffffffffffffffffffffffff1673ffffffffffffffffffffffffffffffffffffffff166309664afe306040518263ffffffff1660e01b8152600401610a6c919061102a565b600060405180830381600087803b158015610a8657600080fd5b505af1158015610a9a573d6000803e3d6000fd5b5050505060018060146101000a81548160ff02191690831515021790555050565b60026020528060005260406000206000915090505481565b600160009054906101000a900473ffffffffffffffffffffffffffffffffffffffff1681565b60008183610b079190611129565b905092915050565b60008183610b1d919061118c565b905092915050565b60008183610b3391906111bd565b905092915050565b60008183610b499190611217565b905092915050565b80471015610b94576040517f08c379a0000000000000000000000000000000000000000000000000000000008152600401610b8b906112b9565b60405180910390fd5b60008273ffffffffffffffffffffffffffffffffffffffff1682604051610bba9061130a565b60006040518083038185875af1925050503d8060008114610bf7576040519150601f19603f3d011682016040523d82523d6000602084013e610bfc565b606091505b5050905080610c40576040517f08c379a0000000000000000000000000000000000000000000000000000000008152600401610c3790611391565b60405180910390fd5b505050565b600073ffffffffffffffffffffffffffffffffffffffff82169050919050565b6000819050919050565b6000610c8a610c85610c8084610c45565b610c65565b610c45565b9050919050565b6000610c9c82610c6f565b9050919050565b6000610cae82610c91565b9050919050565b610cbe81610ca3565b82525050565b6000602082019050610cd96000830184610cb5565b92915050565b6000819050919050565b610cf281610cdf565b82525050565b6000602082019050610d0d6000830184610ce9565b92915050565b600080fd5b6000610d2382610c45565b9050919050565b610d3381610d18565b8114610d3e57600080fd5b50565b600081359050610d5081610d2a565b92915050565b600060208284031215610d6c57610d6b610d13565b5b6000610d7a84828501610d41565b91505092915050565b6000610d8e82610c91565b9050919050565b610d9e81610d83565b82525050565b6000602082019050610db96000830184610d95565b92915050565b600082825260208201905092915050565b7f5265776172643a204c4f434b4544210000000000000000000000000000000000600082015250565b6000610e06600f83610dbf565b9150610e1182610dd0565b602082019050919050565b60006020820190508181036000830152610e3581610df9565b9050919050565b600081519050610e4b81610d2a565b92915050565b600060208284031215610e6757610e66610d13565b5b6000610e7584828501610e3c565b91505092915050565b7f73746b546f6b656e41646472206e6f7420736574656421000000000000000000600082015250565b6000610eb4601783610dbf565b9150610ebf82610e7e565b602082019050919050565b60006020820190508181036000830152610ee381610ea7565b9050919050565b610ef381610cdf565b8114610efe57600080fd5b50565b600081519050610f1081610eea565b92915050565b600060208284031215610f2c57610f2b610d13565b5b6000610f3a84828501610f01565b91505092915050565b7f61737369676e5265776172643a63616c54696d65206973207a65726f21000000600082015250565b6000610f79601d83610dbf565b9150610f8482610f43565b602082019050919050565b60006020820190508181036000830152610fa881610f6c565b9050919050565b7f4c657373207468656e20726577617264446f776e4c696d697400000000000000600082015250565b6000610fe5601983610dbf565b9150610ff082610faf565b602082019050919050565b6000602082019050818103600083015261101481610fd8565b9050919050565b61102481610d18565b82525050565b600060208201905061103f600083018461101b565b92915050565b7f4e487b7100000000000000000000000000000000000000000000000000000000600052601160045260246000fd5b600061107f82610cdf565b91507fffffffffffffffffffffffffffffffffffffffffffffffffffffffffffffffff8214156110b2576110b1611045565b5b600182019050919050565b7f49676f7665726e20736574656421000000000000000000000000000000000000600082015250565b60006110f3600e83610dbf565b91506110fe826110bd565b602082019050919050565b60006020820190508181036000830152611122816110e6565b9050919050565b600061113482610cdf565b915061113f83610cdf565b92508282101561115257611151611045565b5b828203905092915050565b7f4e487b7100000000000000000000000000000000000000000000000000000000600052601260045260246000fd5b600061119782610cdf565b91506111a283610cdf565b9250826111b2576111b161115d565b5b828204905092915050565b60006111c882610cdf565b91506111d383610cdf565b9250817fffffffffffffffffffffffffffffffffffffffffffffffffffffffffffffffff048311821515161561120c5761120b611045565b5b828202905092915050565b600061122282610cdf565b915061122d83610cdf565b9250827fffffffffffffffffffffffffffffffffffffffffffffffffffffffffffffffff0382111561126257611261611045565b5b828201905092915050565b7f416464726573733a20696e73756666696369656e742062616c616e6365000000600082015250565b60006112a3601d83610dbf565b91506112ae8261126d565b602082019050919050565b600060208201905081810360008301526112d281611296565b9050919050565b600081905092915050565b50565b60006112f46000836112d9565b91506112ff826112e4565b600082019050919050565b6000611315826112e7565b9150819050919050565b7f416464726573733a20756e61626c6520746f2073656e642076616c75652c207260008201527f6563697069656e74206d61792068617665207265766572746564000000000000602082015250565b600061137b603a83610dbf565b91506113868261131f565b604082019050919050565b600060208201905081810360008301526113aa8161136e565b905091905056fea2646970667358221220c369514afd538f5d598ab478f9ec743b943b06bbe4792a8d286ad7f99cd965a764736f6c634300080c0033",
  "immutableReferences": {},
  "source": "// SPDX-License-Identifier: GPL-3.0-only\r\npragma solidity ^0.8.0;\r\nimport \"@openzeppelin/contracts/utils/math/SafeMath.sol\";\r\nimport \"@openzeppelin/contracts/utils/Address.sol\";\r\n\r\ninterface IGovernance{\r\n    function setRewardAddr(address _rewardAddr) external;\r\n    function stkTokenAddr() external view returns (address);   \r\n    function getCalTime() external view returns(uint); \r\n}\r\n\r\ninterface IPool{\r\n    function memberTotal() external view returns (uint);\r\n    function memberAddrs(uint _index) external view returns (address);\r\n    function memberTimes(address _account) external view returns (uint256);\r\n    function balanceOf(address _account) external view returns (uint256);\r\n    function totalSupply() external view returns (uint256);\r\n}\r\n\r\ncontract Reward{\r\n    using SafeMath for uint256;\r\n\r\n    IGovernance public Igovern;\r\n    IPool public Ipool;\r\n    //lock\r\n    bool private unlocked = true;\r\n    //DAO\r\n    mapping(address => uint256) public daoRewards;\r\n    \r\n    constructor (){        \r\n    }\r\n\r\n    //\r\n    function initialize (address _governAddr) external{\r\n        require(address(Igovern) == address(0),'Igovern seted!');\r\n        Igovern = IGovernance(_governAddr);\r\n        //Government\r\n        Igovern.setRewardAddr(address(this));\r\n        //constant\r\n        unlocked = true;\r\n    }\r\n\r\n    modifier lock() {\r\n        require(unlocked, 'Reward: LOCKED!');\r\n        unlocked = false;\r\n        _;\r\n        unlocked = true;\r\n    }\r\n\r\n    fallback () external payable{}\r\n\r\n    receive () external payable{\r\n        assignReward();\r\n    }\r\n\r\n    //stkToken\r\n    function assignReward() public lock{\r\n        require(Igovern.stkTokenAddr() != address(0),'stkTokenAddr not seted!');\r\n        uint calTime = Igovern.getCalTime();\r\n        require(calTime > 0,'assignReward:calTime is zero!');\r\n        require(address(this).balance > 0,'Less then rewardDownLimit');\r\n        Ipool = IPool(Igovern.stkTokenAddr());\r\n        uint totalSupply = Ipool.totalSupply();\r\n        \r\n        uint256 newReward = address(this).balance;\r\n        for(uint i = 0; i < Ipool.memberTotal(); i++){\r\n            address account = Ipool.memberAddrs(i);\r\n            uint256 memberTime = Ipool.memberTimes(account);\r\n            uint256 amount = Ipool.balanceOf(account);\r\n            if(memberTime > 0 && amount > 0){\r\n                uint256 day = (block.timestamp).sub(memberTime).div(60 * 60 *24);\r\n                if(day >= calTime){\r\n                    uint256 reward = newReward.mul(amount).div(totalSupply);\r\n                    daoRewards[account] = daoRewards[account].add(reward);\r\n                    Address.sendValue(payable(account),reward);\r\n                }\r\n            }\r\n        }\r\n    }\r\n\r\n    //token\r\n    function balance() public view returns(uint256){\r\n        return address(this).balance;\r\n    }\r\n}",
  "sourcePath": "D:\\\\StakeFinance\\StakeFinance\\truffle-dev\\contracts\\Reward.sol",
  "compiler": {
    "name": "solc",
    "version": "0.8.12+commit.f00d7308.Emscripten.clang"
  },
  "schemaVersion": "3.4.5",
  "updatedAt": "2022-04-18T06:54:25.286Z",
  "devdoc": {
    "kind": "dev",
    "methods": {},
    "version": 1
  },
  "userdoc": {
    "kind": "user",
    "methods": {},
    "version": 1
  }
}